{
  "_format": "hh-sol-artifact-1",
  "contractName": "NftERC721",
  "sourceName": "contracts/NftERC721.sol",
  "abi": [
    {
      "inputs": [
        {
          "internalType": "uint256",
          "name": "_quantity",
          "type": "uint256"
        },
        {
          "internalType": "string",
          "name": "_collectionName",
          "type": "string"
        },
        {
          "internalType": "string",
          "name": "_token",
          "type": "string"
        }
      ],
      "stateMutability": "nonpayable",
      "type": "constructor"
    },
    {
      "anonymous": false,
      "inputs": [
        {
          "indexed": true,
          "internalType": "address",
          "name": "owner",
          "type": "address"
        },
        {
          "indexed": true,
          "internalType": "address",
          "name": "approved",
          "type": "address"
        },
        {
          "indexed": true,
          "internalType": "uint256",
          "name": "tokenId",
          "type": "uint256"
        }
      ],
      "name": "Approval",
      "type": "event"
    },
    {
      "anonymous": false,
      "inputs": [
        {
          "indexed": true,
          "internalType": "address",
          "name": "owner",
          "type": "address"
        },
        {
          "indexed": true,
          "internalType": "address",
          "name": "operator",
          "type": "address"
        },
        {
          "indexed": false,
          "internalType": "bool",
          "name": "approved",
          "type": "bool"
        }
      ],
      "name": "ApprovalForAll",
      "type": "event"
    },
    {
      "anonymous": false,
      "inputs": [
        {
          "indexed": true,
          "internalType": "address",
          "name": "from",
          "type": "address"
        },
        {
          "indexed": true,
          "internalType": "address",
          "name": "to",
          "type": "address"
        },
        {
          "indexed": true,
          "internalType": "uint256",
          "name": "tokenId",
          "type": "uint256"
        }
      ],
      "name": "Transfer",
      "type": "event"
    },
    {
      "inputs": [
        {
          "internalType": "address",
          "name": "to",
          "type": "address"
        },
        {
          "internalType": "uint256",
          "name": "tokenId",
          "type": "uint256"
        }
      ],
      "name": "approve",
      "outputs": [],
      "stateMutability": "nonpayable",
      "type": "function"
    },
    {
      "inputs": [
        {
          "internalType": "address",
          "name": "owner",
          "type": "address"
        }
      ],
      "name": "balanceOf",
      "outputs": [
        {
          "internalType": "uint256",
          "name": "",
          "type": "uint256"
        }
      ],
      "stateMutability": "view",
      "type": "function"
    },
    {
      "inputs": [
        {
          "internalType": "uint256",
          "name": "tokenId",
          "type": "uint256"
        }
      ],
      "name": "getApproved",
      "outputs": [
        {
          "internalType": "address",
          "name": "",
          "type": "address"
        }
      ],
      "stateMutability": "view",
      "type": "function"
    },
    {
      "inputs": [
        {
          "internalType": "address",
          "name": "owner",
          "type": "address"
        },
        {
          "internalType": "address",
          "name": "operator",
          "type": "address"
        }
      ],
      "name": "isApprovedForAll",
      "outputs": [
        {
          "internalType": "bool",
          "name": "",
          "type": "bool"
        }
      ],
      "stateMutability": "view",
      "type": "function"
    },
    {
      "inputs": [],
      "name": "name",
      "outputs": [
        {
          "internalType": "string",
          "name": "",
          "type": "string"
        }
      ],
      "stateMutability": "view",
      "type": "function"
    },
    {
      "inputs": [
        {
          "internalType": "uint256",
          "name": "tokenId",
          "type": "uint256"
        }
      ],
      "name": "ownerOf",
      "outputs": [
        {
          "internalType": "address",
          "name": "",
          "type": "address"
        }
      ],
      "stateMutability": "view",
      "type": "function"
    },
    {
      "inputs": [
        {
          "internalType": "address",
          "name": "to",
          "type": "address"
        },
        {
          "internalType": "string",
          "name": "ipfsUri",
          "type": "string"
        }
      ],
      "name": "safeMint",
      "outputs": [],
      "stateMutability": "nonpayable",
      "type": "function"
    },
    {
      "inputs": [
        {
          "internalType": "address",
          "name": "from",
          "type": "address"
        },
        {
          "internalType": "address",
          "name": "to",
          "type": "address"
        },
        {
          "internalType": "uint256",
          "name": "tokenId",
          "type": "uint256"
        }
      ],
      "name": "safeTransferFrom",
      "outputs": [],
      "stateMutability": "nonpayable",
      "type": "function"
    },
    {
      "inputs": [
        {
          "internalType": "address",
          "name": "from",
          "type": "address"
        },
        {
          "internalType": "address",
          "name": "to",
          "type": "address"
        },
        {
          "internalType": "uint256",
          "name": "tokenId",
          "type": "uint256"
        },
        {
          "internalType": "bytes",
          "name": "data",
          "type": "bytes"
        }
      ],
      "name": "safeTransferFrom",
      "outputs": [],
      "stateMutability": "nonpayable",
      "type": "function"
    },
    {
      "inputs": [
        {
          "internalType": "address",
          "name": "operator",
          "type": "address"
        },
        {
          "internalType": "bool",
          "name": "approved",
          "type": "bool"
        }
      ],
      "name": "setApprovalForAll",
      "outputs": [],
      "stateMutability": "nonpayable",
      "type": "function"
    },
    {
      "inputs": [
        {
          "internalType": "bytes4",
          "name": "interfaceId",
          "type": "bytes4"
        }
      ],
      "name": "supportsInterface",
      "outputs": [
        {
          "internalType": "bool",
          "name": "",
          "type": "bool"
        }
      ],
      "stateMutability": "view",
      "type": "function"
    },
    {
      "inputs": [],
      "name": "symbol",
      "outputs": [
        {
          "internalType": "string",
          "name": "",
          "type": "string"
        }
      ],
      "stateMutability": "view",
      "type": "function"
    },
    {
      "inputs": [],
      "name": "tokenIdCounter",
      "outputs": [
        {
          "internalType": "uint256",
          "name": "_value",
          "type": "uint256"
        }
      ],
      "stateMutability": "view",
      "type": "function"
    },
    {
      "inputs": [
        {
          "internalType": "uint256",
          "name": "tokenId",
          "type": "uint256"
        }
      ],
      "name": "tokenURI",
      "outputs": [
        {
          "internalType": "string",
          "name": "",
          "type": "string"
        }
      ],
      "stateMutability": "view",
      "type": "function"
    },
    {
      "inputs": [
        {
          "internalType": "address",
          "name": "from",
          "type": "address"
        },
        {
          "internalType": "address",
          "name": "to",
          "type": "address"
        },
        {
          "internalType": "uint256",
          "name": "tokenId",
          "type": "uint256"
        }
      ],
      "name": "transferFrom",
      "outputs": [],
      "stateMutability": "nonpayable",
      "type": "function"
    },
    {
      "inputs": [
        {
          "internalType": "address",
          "name": "from",
          "type": "address"
        },
        {
          "internalType": "address",
          "name": "to",
          "type": "address"
        },
        {
          "internalType": "uint256",
          "name": "tokenId",
          "type": "uint256"
        }
      ],
      "name": "transferToken",
      "outputs": [],
      "stateMutability": "nonpayable",
      "type": "function"
    }
  ],
  "bytecode": "0x6080604052600060085560405180606001604052806040518060800160405280604d815260200162003121604d9139815260200160405180608001604052806056815260200162003075605691398152602001604051806080016040528060568152602001620030cb60569139815250600990600362000081929190620000fb565b503480156200008f57600080fd5b506040516200316e3803806200316e8339818101604052810190620000b5919062000458565b81818160009080519060200190620000cf92919062000162565b508060019080519060200190620000e892919062000162565b5050508260088190555050505062000557565b8280548282559060005260206000209081019282156200014f579160200282015b828111156200014e5782518290805190602001906200013d92919062000162565b50916020019190600101906200011c565b5b5090506200015e9190620001f3565b5090565b828054620001709062000521565b90600052602060002090601f016020900481019282620001945760008555620001e0565b82601f10620001af57805160ff1916838001178555620001e0565b82800160010185558215620001e0579182015b82811115620001df578251825591602001919060010190620001c2565b5b509050620001ef91906200021b565b5090565b5b808211156200021757600081816200020d91906200023a565b50600101620001f4565b5090565b5b80821115620002365760008160009055506001016200021c565b5090565b508054620002489062000521565b6000825580601f106200025c57506200027d565b601f0160209004906000526020600020908101906200027c91906200021b565b5b50565b6000604051905090565b600080fd5b600080fd5b6000819050919050565b620002a98162000294565b8114620002b557600080fd5b50565b600081519050620002c9816200029e565b92915050565b600080fd5b600080fd5b6000601f19601f8301169050919050565b7f4e487b7100000000000000000000000000000000000000000000000000000000600052604160045260246000fd5b6200032482620002d9565b810181811067ffffffffffffffff82111715620003465762000345620002ea565b5b80604052505050565b60006200035b62000280565b905062000369828262000319565b919050565b600067ffffffffffffffff8211156200038c576200038b620002ea565b5b6200039782620002d9565b9050602081019050919050565b60005b83811015620003c4578082015181840152602081019050620003a7565b83811115620003d4576000848401525b50505050565b6000620003f1620003eb846200036e565b6200034f565b90508281526020810184848401111562000410576200040f620002d4565b5b6200041d848285620003a4565b509392505050565b600082601f8301126200043d576200043c620002cf565b5b81516200044f848260208601620003da565b91505092915050565b6000806000606084860312156200047457620004736200028a565b5b60006200048486828701620002b8565b935050602084015167ffffffffffffffff811115620004a857620004a76200028f565b5b620004b68682870162000425565b925050604084015167ffffffffffffffff811115620004da57620004d96200028f565b5b620004e88682870162000425565b9150509250925092565b7f4e487b7100000000000000000000000000000000000000000000000000000000600052602260045260246000fd5b600060028204905060018216806200053a57607f821691505b60208210811415620005515762000550620004f2565b5b50919050565b612b0e80620005676000396000f3fe608060405234801561001057600080fd5b50600436106101005760003560e01c806395d89b4111610097578063c87b56dd11610066578063c87b56dd146102ab578063d204c45e146102db578063e985e9c5146102f7578063f5537ede1461032757610100565b806395d89b411461023757806398bdf6f514610255578063a22cb46514610273578063b88d4fde1461028f57610100565b806323b872dd116100d357806323b872dd1461019f57806342842e0e146101bb5780636352211e146101d757806370a082311461020757610100565b806301ffc9a71461010557806306fdde0314610135578063081812fc14610153578063095ea7b314610183575b600080fd5b61011f600480360381019061011a9190611b99565b610343565b60405161012c9190611be1565b60405180910390f35b61013d610425565b60405161014a9190611c95565b60405180910390f35b61016d60048036038101906101689190611ced565b6104b7565b60405161017a9190611d5b565b60405180910390f35b61019d60048036038101906101989190611da2565b6104fd565b005b6101b960048036038101906101b49190611de2565b610615565b005b6101d560048036038101906101d09190611de2565b610675565b005b6101f160048036038101906101ec9190611ced565b610695565b6040516101fe9190611d5b565b60405180910390f35b610221600480360381019061021c9190611e35565b61071c565b60405161022e9190611e71565b60405180910390f35b61023f6107d4565b60405161024c9190611c95565b60405180910390f35b61025d610866565b60405161026a9190611e71565b60405180910390f35b61028d60048036038101906102889190611eb8565b610872565b005b6102a960048036038101906102a4919061202d565b610888565b005b6102c560048036038101906102c09190611ced565b6108ea565b6040516102d29190611c95565b60405180910390f35b6102f560048036038101906102f09190612151565b6108fc565b005b610311600480360381019061030c91906121ad565b610972565b60405161031e9190611be1565b60405180910390f35b610341600480360381019061033c9190611de2565b610a06565b005b60007f80ac58cd000000000000000000000000000000000000000000000000000000007bffffffffffffffffffffffffffffffffffffffffffffffffffffffff1916827bffffffffffffffffffffffffffffffffffffffffffffffffffffffff1916148061040e57507f5b5e139f000000000000000000000000000000000000000000000000000000007bffffffffffffffffffffffffffffffffffffffffffffffffffffffff1916827bffffffffffffffffffffffffffffffffffffffffffffffffffffffff1916145b8061041e575061041d82610a8c565b5b9050919050565b6060600080546104349061221c565b80601f01602080910402602001604051908101604052809291908181526020018280546104609061221c565b80156104ad5780601f10610482576101008083540402835291602001916104ad565b820191906000526020600020905b81548152906001019060200180831161049057829003601f168201915b5050505050905090565b60006104c282610af6565b6004600083815260200190815260200160002060009054906101000a900473ffffffffffffffffffffffffffffffffffffffff169050919050565b600061050882610695565b90508073ffffffffffffffffffffffffffffffffffffffff168373ffffffffffffffffffffffffffffffffffffffff161415610579576040517f08c379a0000000000000000000000000000000000000000000000000000000008152600401610570906122c0565b60405180910390fd5b8073ffffffffffffffffffffffffffffffffffffffff16610598610b41565b73ffffffffffffffffffffffffffffffffffffffff1614806105c757506105c6816105c1610b41565b610972565b5b610606576040517f08c379a00000000000000000000000000000000000000000000000000000000081526004016105fd90612352565b60405180910390fd5b6106108383610b49565b505050565b610626610620610b41565b82610c02565b610665576040517f08c379a000000000000000000000000000000000000000000000000000000000815260040161065c906123e4565b60405180910390fd5b610670838383610c97565b505050565b61069083838360405180602001604052806000815250610888565b505050565b6000806106a183610f91565b9050600073ffffffffffffffffffffffffffffffffffffffff168173ffffffffffffffffffffffffffffffffffffffff161415610713576040517f08c379a000000000000000000000000000000000000000000000000000000000815260040161070a90612450565b60405180910390fd5b80915050919050565b60008073ffffffffffffffffffffffffffffffffffffffff168273ffffffffffffffffffffffffffffffffffffffff16141561078d576040517f08c379a0000000000000000000000000000000000000000000000000000000008152600401610784906124e2565b60405180910390fd5b600360008373ffffffffffffffffffffffffffffffffffffffff1673ffffffffffffffffffffffffffffffffffffffff168152602001908152602001600020549050919050565b6060600180546107e39061221c565b80601f016020809104026020016040519081016040528092919081815260200182805461080f9061221c565b801561085c5780601f106108315761010080835404028352916020019161085c565b820191906000526020600020905b81548152906001019060200180831161083f57829003601f168201915b5050505050905090565b60078060000154905081565b61088461087d610b41565b8383610fce565b5050565b610899610893610b41565b83610c02565b6108d8576040517f08c379a00000000000000000000000000000000000000000000000000000000081526004016108cf906123e4565b60405180910390fd5b6108e48484848461113b565b50505050565b60606108f582611197565b9050919050565b600061090860076112aa565b905060085481111561094f576040517f08c379a00000000000000000000000000000000000000000000000000000000081526004016109469061254e565b60405180910390fd5b61095960076112b8565b61096383826112ce565b61096d81836112ec565b505050565b6000600560008473ffffffffffffffffffffffffffffffffffffffff1673ffffffffffffffffffffffffffffffffffffffff16815260200190815260200160002060008373ffffffffffffffffffffffffffffffffffffffff1673ffffffffffffffffffffffffffffffffffffffff16815260200190815260200160002060009054906101000a900460ff16905092915050565b8273ffffffffffffffffffffffffffffffffffffffff16610a2682610695565b73ffffffffffffffffffffffffffffffffffffffff1614610a7c576040517f08c379a0000000000000000000000000000000000000000000000000000000008152600401610a73906125ba565b60405180910390fd5b610a87838383610c97565b505050565b60007f01ffc9a7000000000000000000000000000000000000000000000000000000007bffffffffffffffffffffffffffffffffffffffffffffffffffffffff1916827bffffffffffffffffffffffffffffffffffffffffffffffffffffffff1916149050919050565b610aff81611360565b610b3e576040517f08c379a0000000000000000000000000000000000000000000000000000000008152600401610b3590612450565b60405180910390fd5b50565b600033905090565b816004600083815260200190815260200160002060006101000a81548173ffffffffffffffffffffffffffffffffffffffff021916908373ffffffffffffffffffffffffffffffffffffffff160217905550808273ffffffffffffffffffffffffffffffffffffffff16610bbc83610695565b73ffffffffffffffffffffffffffffffffffffffff167f8c5be1e5ebec7d5bd14f71427d1e84f3dd0314c0f7b2291e5b200ac8c7c3b92560405160405180910390a45050565b600080610c0e83610695565b90508073ffffffffffffffffffffffffffffffffffffffff168473ffffffffffffffffffffffffffffffffffffffff161480610c505750610c4f8185610972565b5b80610c8e57508373ffffffffffffffffffffffffffffffffffffffff16610c76846104b7565b73ffffffffffffffffffffffffffffffffffffffff16145b91505092915050565b8273ffffffffffffffffffffffffffffffffffffffff16610cb782610695565b73ffffffffffffffffffffffffffffffffffffffff1614610d0d576040517f08c379a0000000000000000000000000000000000000000000000000000000008152600401610d049061264c565b60405180910390fd5b600073ffffffffffffffffffffffffffffffffffffffff168273ffffffffffffffffffffffffffffffffffffffff161415610d7d576040517f08c379a0000000000000000000000000000000000000000000000000000000008152600401610d74906126de565b60405180910390fd5b610d8a83838360016113a1565b8273ffffffffffffffffffffffffffffffffffffffff16610daa82610695565b73ffffffffffffffffffffffffffffffffffffffff1614610e00576040517f08c379a0000000000000000000000000000000000000000000000000000000008152600401610df79061264c565b60405180910390fd5b6004600082815260200190815260200160002060006101000a81549073ffffffffffffffffffffffffffffffffffffffff02191690556001600360008573ffffffffffffffffffffffffffffffffffffffff1673ffffffffffffffffffffffffffffffffffffffff168152602001908152602001600020600082825403925050819055506001600360008473ffffffffffffffffffffffffffffffffffffffff1673ffffffffffffffffffffffffffffffffffffffff16815260200190815260200160002060008282540192505081905550816002600083815260200190815260200160002060006101000a81548173ffffffffffffffffffffffffffffffffffffffff021916908373ffffffffffffffffffffffffffffffffffffffff160217905550808273ffffffffffffffffffffffffffffffffffffffff168473ffffffffffffffffffffffffffffffffffffffff167fddf252ad1be2c89b69c2b068fc378daa952ba7f163c4a11628f55a4df523b3ef60405160405180910390a4610f8c83838360016113a7565b505050565b60006002600083815260200190815260200160002060009054906101000a900473ffffffffffffffffffffffffffffffffffffffff169050919050565b8173ffffffffffffffffffffffffffffffffffffffff168373ffffffffffffffffffffffffffffffffffffffff16141561103d576040517f08c379a00000000000000000000000000000000000000000000000000000000081526004016110349061274a565b60405180910390fd5b80600560008573ffffffffffffffffffffffffffffffffffffffff1673ffffffffffffffffffffffffffffffffffffffff16815260200190815260200160002060008473ffffffffffffffffffffffffffffffffffffffff1673ffffffffffffffffffffffffffffffffffffffff16815260200190815260200160002060006101000a81548160ff0219169083151502179055508173ffffffffffffffffffffffffffffffffffffffff168373ffffffffffffffffffffffffffffffffffffffff167f17307eab39ab6107e8899845ad3d59bd9653f200f220920489ca2b5937696c318360405161112e9190611be1565b60405180910390a3505050565b611146848484610c97565b611152848484846113ad565b611191576040517f08c379a0000000000000000000000000000000000000000000000000000000008152600401611188906127dc565b60405180910390fd5b50505050565b60606111a282610af6565b60006006600084815260200190815260200160002080546111c29061221c565b80601f01602080910402602001604051908101604052809291908181526020018280546111ee9061221c565b801561123b5780601f106112105761010080835404028352916020019161123b565b820191906000526020600020905b81548152906001019060200180831161121e57829003601f168201915b50505050509050600061124c611544565b90506000815114156112625781925050506112a5565b60008251111561129757808260405160200161127f929190612838565b604051602081830303815290604052925050506112a5565b6112a08461155b565b925050505b919050565b600081600001549050919050565b6001816000016000828254019250508190555050565b6112e88282604051806020016040528060008152506115c3565b5050565b6112f582611360565b611334576040517f08c379a000000000000000000000000000000000000000000000000000000000815260040161132b906128ce565b60405180910390fd5b8060066000848152602001908152602001600020908051906020019061135b929190611a8a565b505050565b60008073ffffffffffffffffffffffffffffffffffffffff1661138283610f91565b73ffffffffffffffffffffffffffffffffffffffff1614159050919050565b50505050565b50505050565b60006113ce8473ffffffffffffffffffffffffffffffffffffffff1661161e565b15611537578373ffffffffffffffffffffffffffffffffffffffff1663150b7a026113f7610b41565b8786866040518563ffffffff1660e01b81526004016114199493929190612943565b602060405180830381600087803b15801561143357600080fd5b505af192505050801561146457506040513d601f19601f8201168201806040525081019061146191906129a4565b60015b6114e7573d8060008114611494576040519150601f19603f3d011682016040523d82523d6000602084013e611499565b606091505b506000815114156114df576040517f08c379a00000000000000000000000000000000000000000000000000000000081526004016114d6906127dc565b60405180910390fd5b805181602001fd5b63150b7a0260e01b7bffffffffffffffffffffffffffffffffffffffffffffffffffffffff1916817bffffffffffffffffffffffffffffffffffffffffffffffffffffffff19161491505061153c565b600190505b949350505050565b606060405180602001604052806000815250905090565b606061156682610af6565b6000611570611544565b9050600081511161159057604051806020016040528060008152506115bb565b8061159a84611641565b6040516020016115ab929190612838565b6040516020818303038152906040525b915050919050565b6115cd8383611719565b6115da60008484846113ad565b611619576040517f08c379a0000000000000000000000000000000000000000000000000000000008152600401611610906127dc565b60405180910390fd5b505050565b6000808273ffffffffffffffffffffffffffffffffffffffff163b119050919050565b60606000600161165084611937565b01905060008167ffffffffffffffff81111561166f5761166e611f02565b5b6040519080825280601f01601f1916602001820160405280156116a15781602001600182028036833780820191505090505b509050600082602001820190505b60011561170e578080600190039150507f3031323334353637383961626364656600000000000000000000000000000000600a86061a8153600a85816116f8576116f76129d1565b5b04945060008514156117095761170e565b6116af565b819350505050919050565b600073ffffffffffffffffffffffffffffffffffffffff168273ffffffffffffffffffffffffffffffffffffffff161415611789576040517f08c379a000000000000000000000000000000000000000000000000000000000815260040161178090612a4c565b60405180910390fd5b61179281611360565b156117d2576040517f08c379a00000000000000000000000000000000000000000000000000000000081526004016117c990612ab8565b60405180910390fd5b6117e06000838360016113a1565b6117e981611360565b15611829576040517f08c379a000000000000000000000000000000000000000000000000000000000815260040161182090612ab8565b60405180910390fd5b6001600360008473ffffffffffffffffffffffffffffffffffffffff1673ffffffffffffffffffffffffffffffffffffffff16815260200190815260200160002060008282540192505081905550816002600083815260200190815260200160002060006101000a81548173ffffffffffffffffffffffffffffffffffffffff021916908373ffffffffffffffffffffffffffffffffffffffff160217905550808273ffffffffffffffffffffffffffffffffffffffff16600073ffffffffffffffffffffffffffffffffffffffff167fddf252ad1be2c89b69c2b068fc378daa952ba7f163c4a11628f55a4df523b3ef60405160405180910390a46119336000838360016113a7565b5050565b600080600090507a184f03e93ff9f4daa797ed6e38ed64bf6a1f0100000000000000008310611995577a184f03e93ff9f4daa797ed6e38ed64bf6a1f010000000000000000838161198b5761198a6129d1565b5b0492506040810190505b6d04ee2d6d415b85acef810000000083106119d2576d04ee2d6d415b85acef810000000083816119c8576119c76129d1565b5b0492506020810190505b662386f26fc100008310611a0157662386f26fc1000083816119f7576119f66129d1565b5b0492506010810190505b6305f5e1008310611a2a576305f5e1008381611a2057611a1f6129d1565b5b0492506008810190505b6127108310611a4f576127108381611a4557611a446129d1565b5b0492506004810190505b60648310611a725760648381611a6857611a676129d1565b5b0492506002810190505b600a8310611a81576001810190505b80915050919050565b828054611a969061221c565b90600052602060002090601f016020900481019282611ab85760008555611aff565b82601f10611ad157805160ff1916838001178555611aff565b82800160010185558215611aff579182015b82811115611afe578251825591602001919060010190611ae3565b5b509050611b0c9190611b10565b5090565b5b80821115611b29576000816000905550600101611b11565b5090565b6000604051905090565b600080fd5b600080fd5b60007fffffffff0000000000000000000000000000000000000000000000000000000082169050919050565b611b7681611b41565b8114611b8157600080fd5b50565b600081359050611b9381611b6d565b92915050565b600060208284031215611baf57611bae611b37565b5b6000611bbd84828501611b84565b91505092915050565b60008115159050919050565b611bdb81611bc6565b82525050565b6000602082019050611bf66000830184611bd2565b92915050565b600081519050919050565b600082825260208201905092915050565b60005b83811015611c36578082015181840152602081019050611c1b565b83811115611c45576000848401525b50505050565b6000601f19601f8301169050919050565b6000611c6782611bfc565b611c718185611c07565b9350611c81818560208601611c18565b611c8a81611c4b565b840191505092915050565b60006020820190508181036000830152611caf8184611c5c565b905092915050565b6000819050919050565b611cca81611cb7565b8114611cd557600080fd5b50565b600081359050611ce781611cc1565b92915050565b600060208284031215611d0357611d02611b37565b5b6000611d1184828501611cd8565b91505092915050565b600073ffffffffffffffffffffffffffffffffffffffff82169050919050565b6000611d4582611d1a565b9050919050565b611d5581611d3a565b82525050565b6000602082019050611d706000830184611d4c565b92915050565b611d7f81611d3a565b8114611d8a57600080fd5b50565b600081359050611d9c81611d76565b92915050565b60008060408385031215611db957611db8611b37565b5b6000611dc785828601611d8d565b9250506020611dd885828601611cd8565b9150509250929050565b600080600060608486031215611dfb57611dfa611b37565b5b6000611e0986828701611d8d565b9350506020611e1a86828701611d8d565b9250506040611e2b86828701611cd8565b9150509250925092565b600060208284031215611e4b57611e4a611b37565b5b6000611e5984828501611d8d565b91505092915050565b611e6b81611cb7565b82525050565b6000602082019050611e866000830184611e62565b92915050565b611e9581611bc6565b8114611ea057600080fd5b50565b600081359050611eb281611e8c565b92915050565b60008060408385031215611ecf57611ece611b37565b5b6000611edd85828601611d8d565b9250506020611eee85828601611ea3565b9150509250929050565b600080fd5b600080fd5b7f4e487b7100000000000000000000000000000000000000000000000000000000600052604160045260246000fd5b611f3a82611c4b565b810181811067ffffffffffffffff82111715611f5957611f58611f02565b5b80604052505050565b6000611f6c611b2d565b9050611f788282611f31565b919050565b600067ffffffffffffffff821115611f9857611f97611f02565b5b611fa182611c4b565b9050602081019050919050565b82818337600083830152505050565b6000611fd0611fcb84611f7d565b611f62565b905082815260208101848484011115611fec57611feb611efd565b5b611ff7848285611fae565b509392505050565b600082601f83011261201457612013611ef8565b5b8135612024848260208601611fbd565b91505092915050565b6000806000806080858703121561204757612046611b37565b5b600061205587828801611d8d565b945050602061206687828801611d8d565b935050604061207787828801611cd8565b925050606085013567ffffffffffffffff81111561209857612097611b3c565b5b6120a487828801611fff565b91505092959194509250565b600067ffffffffffffffff8211156120cb576120ca611f02565b5b6120d482611c4b565b9050602081019050919050565b60006120f46120ef846120b0565b611f62565b9050828152602081018484840111156121105761210f611efd565b5b61211b848285611fae565b509392505050565b600082601f83011261213857612137611ef8565b5b81356121488482602086016120e1565b91505092915050565b6000806040838503121561216857612167611b37565b5b600061217685828601611d8d565b925050602083013567ffffffffffffffff81111561219757612196611b3c565b5b6121a385828601612123565b9150509250929050565b600080604083850312156121c4576121c3611b37565b5b60006121d285828601611d8d565b92505060206121e385828601611d8d565b9150509250929050565b7f4e487b7100000000000000000000000000000000000000000000000000000000600052602260045260246000fd5b6000600282049050600182168061223457607f821691505b60208210811415612248576122476121ed565b5b50919050565b7f4552433732313a20617070726f76616c20746f2063757272656e74206f776e6560008201527f7200000000000000000000000000000000000000000000000000000000000000602082015250565b60006122aa602183611c07565b91506122b58261224e565b604082019050919050565b600060208201905081810360008301526122d98161229d565b9050919050565b7f4552433732313a20617070726f76652063616c6c6572206973206e6f7420746f60008201527f6b656e206f776e6572206f7220617070726f76656420666f7220616c6c000000602082015250565b600061233c603d83611c07565b9150612347826122e0565b604082019050919050565b6000602082019050818103600083015261236b8161232f565b9050919050565b7f4552433732313a2063616c6c6572206973206e6f7420746f6b656e206f776e6560008201527f72206f7220617070726f76656400000000000000000000000000000000000000602082015250565b60006123ce602d83611c07565b91506123d982612372565b604082019050919050565b600060208201905081810360008301526123fd816123c1565b9050919050565b7f4552433732313a20696e76616c696420746f6b656e2049440000000000000000600082015250565b600061243a601883611c07565b915061244582612404565b602082019050919050565b600060208201905081810360008301526124698161242d565b9050919050565b7f4552433732313a2061646472657373207a65726f206973206e6f74206120766160008201527f6c6964206f776e65720000000000000000000000000000000000000000000000602082015250565b60006124cc602983611c07565b91506124d782612470565b604082019050919050565b600060208201905081810360008301526124fb816124bf565b9050919050565b7f446f6e742068617665206d6f726520746f6b656e7320746f206d696e74000000600082015250565b6000612538601d83611c07565b915061254382612502565b602082019050919050565b600060208201905081810360008301526125678161252b565b9050919050565b7f46726f6d2061646472657373206d75737420626520746f6b656e206f776e6572600082015250565b60006125a4602083611c07565b91506125af8261256e565b602082019050919050565b600060208201905081810360008301526125d381612597565b9050919050565b7f4552433732313a207472616e736665722066726f6d20696e636f72726563742060008201527f6f776e6572000000000000000000000000000000000000000000000000000000602082015250565b6000612636602583611c07565b9150612641826125da565b604082019050919050565b6000602082019050818103600083015261266581612629565b9050919050565b7f4552433732313a207472616e7366657220746f20746865207a65726f2061646460008201527f7265737300000000000000000000000000000000000000000000000000000000602082015250565b60006126c8602483611c07565b91506126d38261266c565b604082019050919050565b600060208201905081810360008301526126f7816126bb565b9050919050565b7f4552433732313a20617070726f766520746f2063616c6c657200000000000000600082015250565b6000612734601983611c07565b915061273f826126fe565b602082019050919050565b6000602082019050818103600083015261276381612727565b9050919050565b7f4552433732313a207472616e7366657220746f206e6f6e20455243373231526560008201527f63656976657220696d706c656d656e7465720000000000000000000000000000602082015250565b60006127c6603283611c07565b91506127d18261276a565b604082019050919050565b600060208201905081810360008301526127f5816127b9565b9050919050565b600081905092915050565b600061281282611bfc565b61281c81856127fc565b935061282c818560208601611c18565b80840191505092915050565b60006128448285612807565b91506128508284612807565b91508190509392505050565b7f45524337323155524953746f726167653a2055524920736574206f66206e6f6e60008201527f6578697374656e7420746f6b656e000000000000000000000000000000000000602082015250565b60006128b8602e83611c07565b91506128c38261285c565b604082019050919050565b600060208201905081810360008301526128e7816128ab565b9050919050565b600081519050919050565b600082825260208201905092915050565b6000612915826128ee565b61291f81856128f9565b935061292f818560208601611c18565b61293881611c4b565b840191505092915050565b60006080820190506129586000830187611d4c565b6129656020830186611d4c565b6129726040830185611e62565b8181036060830152612984818461290a565b905095945050505050565b60008151905061299e81611b6d565b92915050565b6000602082840312156129ba576129b9611b37565b5b60006129c88482850161298f565b91505092915050565b7f4e487b7100000000000000000000000000000000000000000000000000000000600052601260045260246000fd5b7f4552433732313a206d696e7420746f20746865207a65726f2061646472657373600082015250565b6000612a36602083611c07565b9150612a4182612a00565b602082019050919050565b60006020820190508181036000830152612a6581612a29565b9050919050565b7f4552433732313a20746f6b656e20616c7265616479206d696e74656400000000600082015250565b6000612aa2601c83611c07565b9150612aad82612a6c565b602082019050919050565b60006020820190508181036000830152612ad181612a95565b905091905056fea2646970667358221220bfffe67a233afea8c82cc1b57eeb68c056bd61e262ae3ae03e570f907635621a64736f6c6343000809003368747470733a2f2f697066732e696f2f697066732f516d59615473797854446e724734746f6338373231773632724c345a424b585154476a396339527064726e746f752f707572706c652d7370726f75742e6a736f6e68747470733a2f2f697066732e696f2f697066732f516d59615473797854446e724734746f6338373231773632724c345a424b585154476a396339527064726e746f752f707572706c652d626c6f6f6d732e6a736f6e68747470733a2f2f697066732e696f2f697066732f516d59615473797854446e724734746f6338373231773632724c345a424b585154476a396339527064726e746f752f736565642e6a736f6e",
  "linkReferences": {},
  "deployedLinkReferences": {}
}