{
  "_format": "hh-sol-artifact-1",
  "contractName": "NftERC721",
  "sourceName": "contracts/NftERC721.sol",
  "abi": [
    {
      "inputs": [
        {
          "internalType": "string",
          "name": "_collectionName",
          "type": "string"
        },
        {
          "internalType": "string",
          "name": "_token",
          "type": "string"
        }
      ],
      "stateMutability": "payable",
      "type": "constructor"
    },
    {
      "anonymous": false,
      "inputs": [
        {
          "indexed": true,
          "internalType": "address",
          "name": "owner",
          "type": "address"
        },
        {
          "indexed": true,
          "internalType": "address",
          "name": "approved",
          "type": "address"
        },
        {
          "indexed": true,
          "internalType": "uint256",
          "name": "tokenId",
          "type": "uint256"
        }
      ],
      "name": "Approval",
      "type": "event"
    },
    {
      "anonymous": false,
      "inputs": [
        {
          "indexed": true,
          "internalType": "address",
          "name": "owner",
          "type": "address"
        },
        {
          "indexed": true,
          "internalType": "address",
          "name": "operator",
          "type": "address"
        },
        {
          "indexed": false,
          "internalType": "bool",
          "name": "approved",
          "type": "bool"
        }
      ],
      "name": "ApprovalForAll",
      "type": "event"
    },
    {
      "anonymous": false,
      "inputs": [
        {
          "indexed": false,
          "internalType": "bool",
          "name": "isMinted",
          "type": "bool"
        }
      ],
      "name": "NftMinted",
      "type": "event"
    },
    {
      "anonymous": false,
      "inputs": [
        {
          "indexed": false,
          "internalType": "bool",
          "name": "isMinted",
          "type": "bool"
        }
      ],
      "name": "NftTransferred",
      "type": "event"
    },
    {
      "anonymous": false,
      "inputs": [
        {
          "indexed": true,
          "internalType": "bytes32",
          "name": "role",
          "type": "bytes32"
        },
        {
          "indexed": true,
          "internalType": "bytes32",
          "name": "previousAdminRole",
          "type": "bytes32"
        },
        {
          "indexed": true,
          "internalType": "bytes32",
          "name": "newAdminRole",
          "type": "bytes32"
        }
      ],
      "name": "RoleAdminChanged",
      "type": "event"
    },
    {
      "anonymous": false,
      "inputs": [
        {
          "indexed": true,
          "internalType": "bytes32",
          "name": "role",
          "type": "bytes32"
        },
        {
          "indexed": true,
          "internalType": "address",
          "name": "account",
          "type": "address"
        },
        {
          "indexed": true,
          "internalType": "address",
          "name": "sender",
          "type": "address"
        }
      ],
      "name": "RoleGranted",
      "type": "event"
    },
    {
      "anonymous": false,
      "inputs": [
        {
          "indexed": true,
          "internalType": "bytes32",
          "name": "role",
          "type": "bytes32"
        },
        {
          "indexed": true,
          "internalType": "address",
          "name": "account",
          "type": "address"
        },
        {
          "indexed": true,
          "internalType": "address",
          "name": "sender",
          "type": "address"
        }
      ],
      "name": "RoleRevoked",
      "type": "event"
    },
    {
      "anonymous": false,
      "inputs": [
        {
          "indexed": true,
          "internalType": "address",
          "name": "from",
          "type": "address"
        },
        {
          "indexed": true,
          "internalType": "address",
          "name": "to",
          "type": "address"
        },
        {
          "indexed": true,
          "internalType": "uint256",
          "name": "tokenId",
          "type": "uint256"
        }
      ],
      "name": "Transfer",
      "type": "event"
    },
    {
      "inputs": [],
      "name": "DEFAULT_ADMIN_ROLE",
      "outputs": [
        {
          "internalType": "bytes32",
          "name": "",
          "type": "bytes32"
        }
      ],
      "stateMutability": "view",
      "type": "function"
    },
    {
      "inputs": [],
      "name": "LEADER_ROLE",
      "outputs": [
        {
          "internalType": "bytes32",
          "name": "",
          "type": "bytes32"
        }
      ],
      "stateMutability": "view",
      "type": "function"
    },
    {
      "inputs": [],
      "name": "MEMBER_ROLE",
      "outputs": [
        {
          "internalType": "bytes32",
          "name": "",
          "type": "bytes32"
        }
      ],
      "stateMutability": "view",
      "type": "function"
    },
    {
      "inputs": [
        {
          "internalType": "uint256",
          "name": "tokenId",
          "type": "uint256"
        }
      ],
      "name": "activityOwnerOf",
      "outputs": [
        {
          "internalType": "address",
          "name": "",
          "type": "address"
        }
      ],
      "stateMutability": "view",
      "type": "function"
    },
    {
      "inputs": [
        {
          "internalType": "address",
          "name": "to",
          "type": "address"
        },
        {
          "internalType": "uint256",
          "name": "tokenId",
          "type": "uint256"
        }
      ],
      "name": "approve",
      "outputs": [],
      "stateMutability": "nonpayable",
      "type": "function"
    },
    {
      "inputs": [
        {
          "internalType": "address",
          "name": "owner",
          "type": "address"
        }
      ],
      "name": "balanceOf",
      "outputs": [
        {
          "internalType": "uint256",
          "name": "",
          "type": "uint256"
        }
      ],
      "stateMutability": "view",
      "type": "function"
    },
    {
      "inputs": [
        {
          "internalType": "address",
          "name": "account",
          "type": "address"
        }
      ],
      "name": "checkAddressLeader",
      "outputs": [
        {
          "internalType": "bool",
          "name": "",
          "type": "bool"
        }
      ],
      "stateMutability": "view",
      "type": "function"
    },
    {
      "inputs": [
        {
          "internalType": "address",
          "name": "account",
          "type": "address"
        }
      ],
      "name": "checkAddressMember",
      "outputs": [
        {
          "internalType": "bool",
          "name": "",
          "type": "bool"
        }
      ],
      "stateMutability": "view",
      "type": "function"
    },
    {
      "inputs": [
        {
          "internalType": "uint256",
          "name": "tokenId",
          "type": "uint256"
        }
      ],
      "name": "getActivity",
      "outputs": [
        {
          "components": [
            {
              "internalType": "uint256",
              "name": "tokenId",
              "type": "uint256"
            },
            {
              "internalType": "string",
              "name": "status",
              "type": "string"
            },
            {
              "internalType": "string",
              "name": "tokenUri",
              "type": "string"
            }
          ],
          "internalType": "struct NftERC721.Activity",
          "name": "",
          "type": "tuple"
        }
      ],
      "stateMutability": "view",
      "type": "function"
    },
    {
      "inputs": [
        {
          "internalType": "uint256",
          "name": "tokenId",
          "type": "uint256"
        }
      ],
      "name": "getApproved",
      "outputs": [
        {
          "internalType": "address",
          "name": "",
          "type": "address"
        }
      ],
      "stateMutability": "view",
      "type": "function"
    },
    {
      "inputs": [
        {
          "internalType": "bytes32",
          "name": "role",
          "type": "bytes32"
        }
      ],
      "name": "getRoleAdmin",
      "outputs": [
        {
          "internalType": "bytes32",
          "name": "",
          "type": "bytes32"
        }
      ],
      "stateMutability": "view",
      "type": "function"
    },
    {
      "inputs": [
        {
          "internalType": "bytes32",
          "name": "role",
          "type": "bytes32"
        },
        {
          "internalType": "address",
          "name": "account",
          "type": "address"
        }
      ],
      "name": "grantRole",
      "outputs": [],
      "stateMutability": "nonpayable",
      "type": "function"
    },
    {
      "inputs": [
        {
          "internalType": "bytes32",
          "name": "role",
          "type": "bytes32"
        },
        {
          "internalType": "address",
          "name": "account",
          "type": "address"
        }
      ],
      "name": "hasRole",
      "outputs": [
        {
          "internalType": "bool",
          "name": "",
          "type": "bool"
        }
      ],
      "stateMutability": "view",
      "type": "function"
    },
    {
      "inputs": [],
      "name": "idCounter",
      "outputs": [
        {
          "internalType": "uint256",
          "name": "",
          "type": "uint256"
        }
      ],
      "stateMutability": "view",
      "type": "function"
    },
    {
      "inputs": [
        {
          "internalType": "address",
          "name": "owner",
          "type": "address"
        },
        {
          "internalType": "address",
          "name": "operator",
          "type": "address"
        }
      ],
      "name": "isApprovedForAll",
      "outputs": [
        {
          "internalType": "bool",
          "name": "",
          "type": "bool"
        }
      ],
      "stateMutability": "view",
      "type": "function"
    },
    {
      "inputs": [
        {
          "internalType": "uint256",
          "name": "tokenId",
          "type": "uint256"
        }
      ],
      "name": "isAvailableActivity",
      "outputs": [
        {
          "internalType": "bool",
          "name": "",
          "type": "bool"
        }
      ],
      "stateMutability": "view",
      "type": "function"
    },
    {
      "inputs": [],
      "name": "lastMinted",
      "outputs": [
        {
          "internalType": "string",
          "name": "",
          "type": "string"
        }
      ],
      "stateMutability": "view",
      "type": "function"
    },
    {
      "inputs": [],
      "name": "name",
      "outputs": [
        {
          "internalType": "string",
          "name": "",
          "type": "string"
        }
      ],
      "stateMutability": "view",
      "type": "function"
    },
    {
      "inputs": [
        {
          "internalType": "address",
          "name": "",
          "type": "address"
        },
        {
          "internalType": "address",
          "name": "",
          "type": "address"
        },
        {
          "internalType": "uint256",
          "name": "",
          "type": "uint256"
        },
        {
          "internalType": "bytes",
          "name": "",
          "type": "bytes"
        }
      ],
      "name": "onERC721Received",
      "outputs": [
        {
          "internalType": "bytes4",
          "name": "",
          "type": "bytes4"
        }
      ],
      "stateMutability": "pure",
      "type": "function"
    },
    {
      "inputs": [],
      "name": "owner",
      "outputs": [
        {
          "internalType": "address",
          "name": "",
          "type": "address"
        }
      ],
      "stateMutability": "view",
      "type": "function"
    },
    {
      "inputs": [
        {
          "internalType": "uint256",
          "name": "tokenId",
          "type": "uint256"
        }
      ],
      "name": "ownerOf",
      "outputs": [
        {
          "internalType": "address",
          "name": "",
          "type": "address"
        }
      ],
      "stateMutability": "view",
      "type": "function"
    },
    {
      "inputs": [
        {
          "internalType": "bytes32",
          "name": "role",
          "type": "bytes32"
        },
        {
          "internalType": "address",
          "name": "account",
          "type": "address"
        }
      ],
      "name": "renounceRole",
      "outputs": [],
      "stateMutability": "nonpayable",
      "type": "function"
    },
    {
      "inputs": [
        {
          "internalType": "bytes32",
          "name": "role",
          "type": "bytes32"
        },
        {
          "internalType": "address",
          "name": "account",
          "type": "address"
        }
      ],
      "name": "revokeRole",
      "outputs": [],
      "stateMutability": "nonpayable",
      "type": "function"
    },
    {
      "inputs": [
        {
          "internalType": "address",
          "name": "to",
          "type": "address"
        },
        {
          "internalType": "string",
          "name": "ipfsUri",
          "type": "string"
        }
      ],
      "name": "safeMint",
      "outputs": [],
      "stateMutability": "nonpayable",
      "type": "function"
    },
    {
      "inputs": [
        {
          "internalType": "address",
          "name": "from",
          "type": "address"
        },
        {
          "internalType": "address",
          "name": "to",
          "type": "address"
        },
        {
          "internalType": "uint256",
          "name": "tokenId",
          "type": "uint256"
        }
      ],
      "name": "safeTransferFrom",
      "outputs": [],
      "stateMutability": "nonpayable",
      "type": "function"
    },
    {
      "inputs": [
        {
          "internalType": "address",
          "name": "from",
          "type": "address"
        },
        {
          "internalType": "address",
          "name": "to",
          "type": "address"
        },
        {
          "internalType": "uint256",
          "name": "tokenId",
          "type": "uint256"
        },
        {
          "internalType": "bytes",
          "name": "data",
          "type": "bytes"
        }
      ],
      "name": "safeTransferFrom",
      "outputs": [],
      "stateMutability": "nonpayable",
      "type": "function"
    },
    {
      "inputs": [
        {
          "internalType": "uint256",
          "name": "tokenId",
          "type": "uint256"
        },
        {
          "internalType": "address",
          "name": "to",
          "type": "address"
        }
      ],
      "name": "setActivityOwner",
      "outputs": [],
      "stateMutability": "nonpayable",
      "type": "function"
    },
    {
      "inputs": [
        {
          "internalType": "address",
          "name": "operator",
          "type": "address"
        },
        {
          "internalType": "bool",
          "name": "approved",
          "type": "bool"
        }
      ],
      "name": "setApprovalForAll",
      "outputs": [],
      "stateMutability": "nonpayable",
      "type": "function"
    },
    {
      "inputs": [
        {
          "internalType": "bytes4",
          "name": "interfaceId",
          "type": "bytes4"
        }
      ],
      "name": "supportsInterface",
      "outputs": [
        {
          "internalType": "bool",
          "name": "",
          "type": "bool"
        }
      ],
      "stateMutability": "view",
      "type": "function"
    },
    {
      "inputs": [],
      "name": "symbol",
      "outputs": [
        {
          "internalType": "string",
          "name": "",
          "type": "string"
        }
      ],
      "stateMutability": "view",
      "type": "function"
    },
    {
      "inputs": [],
      "name": "tokenIdCounter",
      "outputs": [
        {
          "internalType": "uint256",
          "name": "_value",
          "type": "uint256"
        }
      ],
      "stateMutability": "view",
      "type": "function"
    },
    {
      "inputs": [
        {
          "internalType": "uint256",
          "name": "tokenId",
          "type": "uint256"
        }
      ],
      "name": "tokenURI",
      "outputs": [
        {
          "internalType": "string",
          "name": "",
          "type": "string"
        }
      ],
      "stateMutability": "view",
      "type": "function"
    },
    {
      "inputs": [
        {
          "internalType": "address",
          "name": "from",
          "type": "address"
        },
        {
          "internalType": "address",
          "name": "to",
          "type": "address"
        },
        {
          "internalType": "uint256",
          "name": "tokenId",
          "type": "uint256"
        }
      ],
      "name": "transferFrom",
      "outputs": [],
      "stateMutability": "nonpayable",
      "type": "function"
    }
  ],
  "bytecode": "0x60806040526040516200458438038062004584833981810160405281019062000029919062000491565b818181600090805190602001906200004392919062000244565b5080600190805190602001906200005c92919062000244565b50505033600960006101000a81548173ffffffffffffffffffffffffffffffffffffffff021916908373ffffffffffffffffffffffffffffffffffffffff160217905550620000d76000801b600960009054906101000a900473ffffffffffffffffffffffffffffffffffffffff16620000df60201b60201c565b50506200057b565b620000f18282620001d160201b60201c565b620001cd5760016007600084815260200190815260200160002060000160008373ffffffffffffffffffffffffffffffffffffffff1673ffffffffffffffffffffffffffffffffffffffff16815260200190815260200160002060006101000a81548160ff021916908315150217905550620001726200023c60201b60201c565b73ffffffffffffffffffffffffffffffffffffffff168173ffffffffffffffffffffffffffffffffffffffff16837f2f8788117e7eff1d82e926ec794901d17c78024a50270940304540a733656f0d60405160405180910390a45b5050565b60006007600084815260200190815260200160002060000160008373ffffffffffffffffffffffffffffffffffffffff1673ffffffffffffffffffffffffffffffffffffffff16815260200190815260200160002060009054906101000a900460ff16905092915050565b600033905090565b828054620002529062000545565b90600052602060002090601f016020900481019282620002765760008555620002c2565b82601f106200029157805160ff1916838001178555620002c2565b82800160010185558215620002c2579182015b82811115620002c1578251825591602001919060010190620002a4565b5b509050620002d19190620002d5565b5090565b5b80821115620002f0576000816000905550600101620002d6565b5090565b6000604051905090565b600080fd5b600080fd5b600080fd5b600080fd5b6000601f19601f8301169050919050565b7f4e487b7100000000000000000000000000000000000000000000000000000000600052604160045260246000fd5b6200035d8262000312565b810181811067ffffffffffffffff821117156200037f576200037e62000323565b5b80604052505050565b600062000394620002f4565b9050620003a2828262000352565b919050565b600067ffffffffffffffff821115620003c557620003c462000323565b5b620003d08262000312565b9050602081019050919050565b60005b83811015620003fd578082015181840152602081019050620003e0565b838111156200040d576000848401525b50505050565b60006200042a6200042484620003a7565b62000388565b9050828152602081018484840111156200044957620004486200030d565b5b62000456848285620003dd565b509392505050565b600082601f83011262000476576200047562000308565b5b81516200048884826020860162000413565b91505092915050565b60008060408385031215620004ab57620004aa620002fe565b5b600083015167ffffffffffffffff811115620004cc57620004cb62000303565b5b620004da858286016200045e565b925050602083015167ffffffffffffffff811115620004fe57620004fd62000303565b5b6200050c858286016200045e565b9150509250929050565b7f4e487b7100000000000000000000000000000000000000000000000000000000600052602260045260246000fd5b600060028204905060018216806200055e57607f821691505b6020821081141562000575576200057462000516565b5b50919050565b613ff9806200058b6000396000f3fe608060405234801561001057600080fd5b50600436106101fb5760003560e01c806391d148541161011a578063b88d4fde116100ad578063d547741f1161007c578063d547741f14610610578063e035f4841461062c578063e34a9d4914610648578063e985e9c514610678578063eb08ab28146106a8576101fb565b8063b88d4fde1461058a578063bbc19ab0146105a6578063c87b56dd146105c4578063d204c45e146105f4576101fb565b8063a10f469e116100e9578063a10f469e14610514578063a217fddf14610532578063a22cb46514610550578063a2e4aff01461056c576101fb565b806391d1485414610478578063922635d8146104a857806395d89b41146104d857806398bdf6f5146104f6576101fb565b80632f2ff15d1161019257806363fe1f771161016157806363fe1f77146103ca57806370a08231146103fa5780638da5cb5b1461042a578063906322c914610448576101fb565b80632f2ff15d1461034657806336568abe1461036257806342842e0e1461037e5780636352211e1461039a576101fb565b8063150b7a02116101ce578063150b7a021461029a5780631d1b29bd146102ca57806323b872dd146102fa578063248a9ca314610316576101fb565b806301ffc9a71461020057806306fdde0314610230578063081812fc1461024e578063095ea7b31461027e575b600080fd5b61021a60048036038101906102159190612ac3565b6106c6565b6040516102279190612b0b565b60405180910390f35b6102386106d8565b6040516102459190612bbf565b60405180910390f35b61026860048036038101906102639190612c17565b61076a565b6040516102759190612c85565b60405180910390f35b61029860048036038101906102939190612ccc565b6107b0565b005b6102b460048036038101906102af9190612d71565b6108c8565b6040516102c19190612e08565b60405180910390f35b6102e460048036038101906102df9190612e23565b6108dd565b6040516102f19190612b0b565b60405180910390f35b610314600480360381019061030f9190612e50565b610910565b005b610330600480360381019061032b9190612ed9565b610971565b60405161033d9190612f15565b60405180910390f35b610360600480360381019061035b9190612f30565b610991565b005b61037c60048036038101906103779190612f30565b6109b5565b005b61039860048036038101906103939190612e50565b610a38565b005b6103b460048036038101906103af9190612c17565b610a58565b6040516103c19190612c85565b60405180910390f35b6103e460048036038101906103df9190612c17565b610adf565b6040516103f19190612b0b565b60405180910390f35b610414600480360381019061040f9190612e23565b610b09565b6040516104219190612f7f565b60405180910390f35b610432610bc1565b60405161043f9190612c85565b60405180910390f35b610462600480360381019061045d9190612e23565b610be7565b60405161046f9190612b0b565b60405180910390f35b610492600480360381019061048d9190612f30565b610c1a565b60405161049f9190612b0b565b60405180910390f35b6104c260048036038101906104bd9190612c17565b610c85565b6040516104cf919061304a565b60405180910390f35b6104e0610de0565b6040516104ed9190612bbf565b60405180910390f35b6104fe610e72565b60405161050b9190612f7f565b60405180910390f35b61051c610e7e565b6040516105299190612f15565b60405180910390f35b61053a610ea2565b6040516105479190612f15565b60405180910390f35b61056a60048036038101906105659190613098565b610ea9565b005b610574610ebf565b6040516105819190612f15565b60405180910390f35b6105a4600480360381019061059f9190613208565b610ee3565b005b6105ae610f45565b6040516105bb9190612bbf565b60405180910390f35b6105de60048036038101906105d99190612c17565b610fac565b6040516105eb9190612bbf565b60405180910390f35b61060e6004803603810190610609919061332c565b610fbe565b005b61062a60048036038101906106259190612f30565b611133565b005b61064660048036038101906106419190613388565b611154565b005b610662600480360381019061065d9190612c17565b61128d565b60405161066f9190612c85565b60405180910390f35b610692600480360381019061068d91906133c8565b6112cf565b60405161069f9190612b0b565b60405180910390f35b6106b0611363565b6040516106bd9190612f7f565b60405180910390f35b60006106d182611374565b9050919050565b6060600080546106e790613437565b80601f016020809104026020016040519081016040528092919081815260200182805461071390613437565b80156107605780601f1061073557610100808354040283529160200191610760565b820191906000526020600020905b81548152906001019060200180831161074357829003601f168201915b5050505050905090565b6000610775826113ee565b6004600083815260200190815260200160002060009054906101000a900473ffffffffffffffffffffffffffffffffffffffff169050919050565b60006107bb82610a58565b90508073ffffffffffffffffffffffffffffffffffffffff168373ffffffffffffffffffffffffffffffffffffffff16141561082c576040517f08c379a0000000000000000000000000000000000000000000000000000000008152600401610823906134db565b60405180910390fd5b8073ffffffffffffffffffffffffffffffffffffffff1661084b611439565b73ffffffffffffffffffffffffffffffffffffffff16148061087a575061087981610874611439565b6112cf565b5b6108b9576040517f08c379a00000000000000000000000000000000000000000000000000000000081526004016108b09061356d565b60405180910390fd5b6108c38383611441565b505050565b600063150b7a0260e01b905095945050505050565b60006109097fa870f1a91ab66a18174ae285449a007bea36a28441e5b44a847deb90f83e86eb83610c1a565b9050919050565b6000801b61091d816114fa565b610928836001610ea9565b61093384848461150e565b7ff6424459656d156a32411176601baac0d0f3e7ffa29398e7cbfbab916565f17260016040516109639190612b0b565b60405180910390a150505050565b600060076000838152602001908152602001600020600101549050919050565b61099d6000801b610971565b6109a6816114fa565b6109b08383611808565b505050565b6109bd611439565b73ffffffffffffffffffffffffffffffffffffffff168173ffffffffffffffffffffffffffffffffffffffff1614610a2a576040517f08c379a0000000000000000000000000000000000000000000000000000000008152600401610a21906135ff565b60405180910390fd5b610a3482826118e9565b5050565b610a5383838360405180602001604052806000815250610ee3565b505050565b600080610a64836119cb565b9050600073ffffffffffffffffffffffffffffffffffffffff168173ffffffffffffffffffffffffffffffffffffffff161415610ad6576040517f08c379a0000000000000000000000000000000000000000000000000000000008152600401610acd9061366b565b60405180910390fd5b80915050919050565b6000600b600083815260200190815260200160002060009054906101000a900460ff169050919050565b60008073ffffffffffffffffffffffffffffffffffffffff168273ffffffffffffffffffffffffffffffffffffffff161415610b7a576040517f08c379a0000000000000000000000000000000000000000000000000000000008152600401610b71906136fd565b60405180910390fd5b600360008373ffffffffffffffffffffffffffffffffffffffff1673ffffffffffffffffffffffffffffffffffffffff168152602001908152602001600020549050919050565b600960009054906101000a900473ffffffffffffffffffffffffffffffffffffffff1681565b6000610c137f829b824e2329e205435d941c9f13baf578548505283d29261236d8e6596d463683610c1a565b9050919050565b60006007600084815260200190815260200160002060000160008373ffffffffffffffffffffffffffffffffffffffff1673ffffffffffffffffffffffffffffffffffffffff16815260200190815260200160002060009054906101000a900460ff16905092915050565b610c8d612993565b600a600083815260200190815260200160002060405180606001604052908160008201548152602001600182018054610cc590613437565b80601f0160208091040260200160405190810160405280929190818152602001828054610cf190613437565b8015610d3e5780601f10610d1357610100808354040283529160200191610d3e565b820191906000526020600020905b815481529060010190602001808311610d2157829003601f168201915b50505050508152602001600282018054610d5790613437565b80601f0160208091040260200160405190810160405280929190818152602001828054610d8390613437565b8015610dd05780601f10610da557610100808354040283529160200191610dd0565b820191906000526020600020905b815481529060010190602001808311610db357829003601f168201915b5050505050815250509050919050565b606060018054610def90613437565b80601f0160208091040260200160405190810160405280929190818152602001828054610e1b90613437565b8015610e685780601f10610e3d57610100808354040283529160200191610e68565b820191906000526020600020905b815481529060010190602001808311610e4b57829003601f168201915b5050505050905090565b60088060000154905081565b7f829b824e2329e205435d941c9f13baf578548505283d29261236d8e6596d463681565b6000801b81565b610ebb610eb4611439565b8383611a08565b5050565b7fa870f1a91ab66a18174ae285449a007bea36a28441e5b44a847deb90f83e86eb81565b610ef4610eee611439565b83611b75565b610f33576040517f08c379a0000000000000000000000000000000000000000000000000000000008152600401610f2a9061378f565b60405180910390fd5b610f3f84848484611c0a565b50505050565b60606000610f536008611c66565b90506000811415610f765760405180602001604052806000815250915050610fa9565b6000811115610f9c57610f94600182610f8f91906137de565b610fac565b915050610fa9565b610fa581610fac565b9150505b90565b6060610fb782611c74565b9050919050565b7fa870f1a91ab66a18174ae285449a007bea36a28441e5b44a847deb90f83e86eb610fe8816114fa565b6000610ff46008611c66565b90506110006008611d87565b61100a8482611d9d565b6110148184611dbb565b61101c612993565b818160000181815250508381604001819052506040518060400160405280600981526020017f417661696c61626c65000000000000000000000000000000000000000000000081525081602001819052506001600b600084815260200190815260200160002060006101000a81548160ff02191690831515021790555080600a60008481526020019081526020016000206000820151816000015560208201518160010190805190602001906110d39291906129b4565b5060408201518160020190805190602001906110f09291906129b4565b509050507f20ca71800840a1730c265dcac5f68ec9daffe929561a6ed11f49ada5e4f7a31a60016040516111249190612b0b565b60405180910390a15050505050565b61113c82610971565b611145816114fa565b61114f83836118e9565b505050565b600b600083815260200190815260200160002060009054906101000a900460ff166111b4576040517f08c379a00000000000000000000000000000000000000000000000000000000081526004016111ab9061385e565b60405180910390fd5b6040518060400160405280600b81526020017f496e2050726f6772657373000000000000000000000000000000000000000000815250600a600084815260200190815260200160002060010190805190602001906112139291906129b4565b50600b600083815260200190815260200160002060006101000a81549060ff021916905580600c600084815260200190815260200160002060006101000a81548173ffffffffffffffffffffffffffffffffffffffff021916908373ffffffffffffffffffffffffffffffffffffffff1602179055505050565b600080600c600084815260200190815260200160002060009054906101000a900473ffffffffffffffffffffffffffffffffffffffff16905080915050919050565b6000600560008473ffffffffffffffffffffffffffffffffffffffff1673ffffffffffffffffffffffffffffffffffffffff16815260200190815260200160002060008373ffffffffffffffffffffffffffffffffffffffff1673ffffffffffffffffffffffffffffffffffffffff16815260200190815260200160002060009054906101000a900460ff16905092915050565b600061136f6008611c66565b905090565b60007f7965db0b000000000000000000000000000000000000000000000000000000007bffffffffffffffffffffffffffffffffffffffffffffffffffffffff1916827bffffffffffffffffffffffffffffffffffffffffffffffffffffffff191614806113e757506113e682611e2f565b5b9050919050565b6113f781611f11565b611436576040517f08c379a000000000000000000000000000000000000000000000000000000000815260040161142d9061366b565b60405180910390fd5b50565b600033905090565b816004600083815260200190815260200160002060006101000a81548173ffffffffffffffffffffffffffffffffffffffff021916908373ffffffffffffffffffffffffffffffffffffffff160217905550808273ffffffffffffffffffffffffffffffffffffffff166114b483610a58565b73ffffffffffffffffffffffffffffffffffffffff167f8c5be1e5ebec7d5bd14f71427d1e84f3dd0314c0f7b2291e5b200ac8c7c3b92560405160405180910390a45050565b61150b81611506611439565b611f52565b50565b8273ffffffffffffffffffffffffffffffffffffffff1661152e82610a58565b73ffffffffffffffffffffffffffffffffffffffff1614611584576040517f08c379a000000000000000000000000000000000000000000000000000000000815260040161157b906138f0565b60405180910390fd5b600073ffffffffffffffffffffffffffffffffffffffff168273ffffffffffffffffffffffffffffffffffffffff1614156115f4576040517f08c379a00000000000000000000000000000000000000000000000000000000081526004016115eb90613982565b60405180910390fd5b6116018383836001611fd7565b8273ffffffffffffffffffffffffffffffffffffffff1661162182610a58565b73ffffffffffffffffffffffffffffffffffffffff1614611677576040517f08c379a000000000000000000000000000000000000000000000000000000000815260040161166e906138f0565b60405180910390fd5b6004600082815260200190815260200160002060006101000a81549073ffffffffffffffffffffffffffffffffffffffff02191690556001600360008573ffffffffffffffffffffffffffffffffffffffff1673ffffffffffffffffffffffffffffffffffffffff168152602001908152602001600020600082825403925050819055506001600360008473ffffffffffffffffffffffffffffffffffffffff1673ffffffffffffffffffffffffffffffffffffffff16815260200190815260200160002060008282540192505081905550816002600083815260200190815260200160002060006101000a81548173ffffffffffffffffffffffffffffffffffffffff021916908373ffffffffffffffffffffffffffffffffffffffff160217905550808273ffffffffffffffffffffffffffffffffffffffff168473ffffffffffffffffffffffffffffffffffffffff167fddf252ad1be2c89b69c2b068fc378daa952ba7f163c4a11628f55a4df523b3ef60405160405180910390a46118038383836001611fdd565b505050565b6118128282610c1a565b6118e55760016007600084815260200190815260200160002060000160008373ffffffffffffffffffffffffffffffffffffffff1673ffffffffffffffffffffffffffffffffffffffff16815260200190815260200160002060006101000a81548160ff02191690831515021790555061188a611439565b73ffffffffffffffffffffffffffffffffffffffff168173ffffffffffffffffffffffffffffffffffffffff16837f2f8788117e7eff1d82e926ec794901d17c78024a50270940304540a733656f0d60405160405180910390a45b5050565b6118f38282610c1a565b156119c75760006007600084815260200190815260200160002060000160008373ffffffffffffffffffffffffffffffffffffffff1673ffffffffffffffffffffffffffffffffffffffff16815260200190815260200160002060006101000a81548160ff02191690831515021790555061196c611439565b73ffffffffffffffffffffffffffffffffffffffff168173ffffffffffffffffffffffffffffffffffffffff16837ff6391f5c32d9c69d2a47ea670b442974b53935d1edc7fd64eb21e047a839171b60405160405180910390a45b5050565b60006002600083815260200190815260200160002060009054906101000a900473ffffffffffffffffffffffffffffffffffffffff169050919050565b8173ffffffffffffffffffffffffffffffffffffffff168373ffffffffffffffffffffffffffffffffffffffff161415611a77576040517f08c379a0000000000000000000000000000000000000000000000000000000008152600401611a6e906139ee565b60405180910390fd5b80600560008573ffffffffffffffffffffffffffffffffffffffff1673ffffffffffffffffffffffffffffffffffffffff16815260200190815260200160002060008473ffffffffffffffffffffffffffffffffffffffff1673ffffffffffffffffffffffffffffffffffffffff16815260200190815260200160002060006101000a81548160ff0219169083151502179055508173ffffffffffffffffffffffffffffffffffffffff168373ffffffffffffffffffffffffffffffffffffffff167f17307eab39ab6107e8899845ad3d59bd9653f200f220920489ca2b5937696c3183604051611b689190612b0b565b60405180910390a3505050565b600080611b8183610a58565b90508073ffffffffffffffffffffffffffffffffffffffff168473ffffffffffffffffffffffffffffffffffffffff161480611bc35750611bc281856112cf565b5b80611c0157508373ffffffffffffffffffffffffffffffffffffffff16611be98461076a565b73ffffffffffffffffffffffffffffffffffffffff16145b91505092915050565b611c1584848461150e565b611c2184848484611fe3565b611c60576040517f08c379a0000000000000000000000000000000000000000000000000000000008152600401611c5790613a80565b60405180910390fd5b50505050565b600081600001549050919050565b6060611c7f826113ee565b6000600660008481526020019081526020016000208054611c9f90613437565b80601f0160208091040260200160405190810160405280929190818152602001828054611ccb90613437565b8015611d185780601f10611ced57610100808354040283529160200191611d18565b820191906000526020600020905b815481529060010190602001808311611cfb57829003601f168201915b505050505090506000611d2961217a565b9050600081511415611d3f578192505050611d82565b600082511115611d74578082604051602001611d5c929190613adc565b60405160208183030381529060405292505050611d82565b611d7d84612191565b925050505b919050565b6001816000016000828254019250508190555050565b611db78282604051806020016040528060008152506121f9565b5050565b611dc482611f11565b611e03576040517f08c379a0000000000000000000000000000000000000000000000000000000008152600401611dfa90613b72565b60405180910390fd5b80600660008481526020019081526020016000209080519060200190611e2a9291906129b4565b505050565b60007f80ac58cd000000000000000000000000000000000000000000000000000000007bffffffffffffffffffffffffffffffffffffffffffffffffffffffff1916827bffffffffffffffffffffffffffffffffffffffffffffffffffffffff19161480611efa57507f5b5e139f000000000000000000000000000000000000000000000000000000007bffffffffffffffffffffffffffffffffffffffffffffffffffffffff1916827bffffffffffffffffffffffffffffffffffffffffffffffffffffffff1916145b80611f0a5750611f0982612254565b5b9050919050565b60008073ffffffffffffffffffffffffffffffffffffffff16611f33836119cb565b73ffffffffffffffffffffffffffffffffffffffff1614159050919050565b611f5c8282610c1a565b611fd357611f69816122be565b611f778360001c60206122eb565b604051602001611f88929190613c2a565b6040516020818303038152906040526040517f08c379a0000000000000000000000000000000000000000000000000000000008152600401611fca9190612bbf565b60405180910390fd5b5050565b50505050565b50505050565b60006120048473ffffffffffffffffffffffffffffffffffffffff16612527565b1561216d578373ffffffffffffffffffffffffffffffffffffffff1663150b7a0261202d611439565b8786866040518563ffffffff1660e01b815260040161204f9493929190613cb9565b602060405180830381600087803b15801561206957600080fd5b505af192505050801561209a57506040513d601f19601f820116820180604052508101906120979190613d1a565b60015b61211d573d80600081146120ca576040519150601f19603f3d011682016040523d82523d6000602084013e6120cf565b606091505b50600081511415612115576040517f08c379a000000000000000000000000000000000000000000000000000000000815260040161210c90613a80565b60405180910390fd5b805181602001fd5b63150b7a0260e01b7bffffffffffffffffffffffffffffffffffffffffffffffffffffffff1916817bffffffffffffffffffffffffffffffffffffffffffffffffffffffff191614915050612172565b600190505b949350505050565b606060405180602001604052806000815250905090565b606061219c826113ee565b60006121a661217a565b905060008151116121c657604051806020016040528060008152506121f1565b806121d08461254a565b6040516020016121e1929190613adc565b6040516020818303038152906040525b915050919050565b6122038383612622565b6122106000848484611fe3565b61224f576040517f08c379a000000000000000000000000000000000000000000000000000000000815260040161224690613a80565b60405180910390fd5b505050565b60007f01ffc9a7000000000000000000000000000000000000000000000000000000007bffffffffffffffffffffffffffffffffffffffffffffffffffffffff1916827bffffffffffffffffffffffffffffffffffffffffffffffffffffffff1916149050919050565b60606122e48273ffffffffffffffffffffffffffffffffffffffff16601460ff166122eb565b9050919050565b6060600060028360026122fe9190613d47565b6123089190613da1565b67ffffffffffffffff811115612321576123206130dd565b5b6040519080825280601f01601f1916602001820160405280156123535781602001600182028036833780820191505090505b5090507f30000000000000000000000000000000000000000000000000000000000000008160008151811061238b5761238a613df7565b5b60200101907effffffffffffffffffffffffffffffffffffffffffffffffffffffffffffff1916908160001a9053507f7800000000000000000000000000000000000000000000000000000000000000816001815181106123ef576123ee613df7565b5b60200101907effffffffffffffffffffffffffffffffffffffffffffffffffffffffffffff1916908160001a9053506000600184600261242f9190613d47565b6124399190613da1565b90505b60018111156124d9577f3031323334353637383961626364656600000000000000000000000000000000600f86166010811061247b5761247a613df7565b5b1a60f81b82828151811061249257612491613df7565b5b60200101907effffffffffffffffffffffffffffffffffffffffffffffffffffffffffffff1916908160001a905350600485901c9450806124d290613e26565b905061243c565b506000841461251d576040517f08c379a000000000000000000000000000000000000000000000000000000000815260040161251490613e9c565b60405180910390fd5b8091505092915050565b6000808273ffffffffffffffffffffffffffffffffffffffff163b119050919050565b60606000600161255984612840565b01905060008167ffffffffffffffff811115612578576125776130dd565b5b6040519080825280601f01601f1916602001820160405280156125aa5781602001600182028036833780820191505090505b509050600082602001820190505b600115612617578080600190039150507f3031323334353637383961626364656600000000000000000000000000000000600a86061a8153600a858161260157612600613ebc565b5b049450600085141561261257612617565b6125b8565b819350505050919050565b600073ffffffffffffffffffffffffffffffffffffffff168273ffffffffffffffffffffffffffffffffffffffff161415612692576040517f08c379a000000000000000000000000000000000000000000000000000000000815260040161268990613f37565b60405180910390fd5b61269b81611f11565b156126db576040517f08c379a00000000000000000000000000000000000000000000000000000000081526004016126d290613fa3565b60405180910390fd5b6126e9600083836001611fd7565b6126f281611f11565b15612732576040517f08c379a000000000000000000000000000000000000000000000000000000000815260040161272990613fa3565b60405180910390fd5b6001600360008473ffffffffffffffffffffffffffffffffffffffff1673ffffffffffffffffffffffffffffffffffffffff16815260200190815260200160002060008282540192505081905550816002600083815260200190815260200160002060006101000a81548173ffffffffffffffffffffffffffffffffffffffff021916908373ffffffffffffffffffffffffffffffffffffffff160217905550808273ffffffffffffffffffffffffffffffffffffffff16600073ffffffffffffffffffffffffffffffffffffffff167fddf252ad1be2c89b69c2b068fc378daa952ba7f163c4a11628f55a4df523b3ef60405160405180910390a461283c600083836001611fdd565b5050565b600080600090507a184f03e93ff9f4daa797ed6e38ed64bf6a1f010000000000000000831061289e577a184f03e93ff9f4daa797ed6e38ed64bf6a1f010000000000000000838161289457612893613ebc565b5b0492506040810190505b6d04ee2d6d415b85acef810000000083106128db576d04ee2d6d415b85acef810000000083816128d1576128d0613ebc565b5b0492506020810190505b662386f26fc10000831061290a57662386f26fc100008381612900576128ff613ebc565b5b0492506010810190505b6305f5e1008310612933576305f5e100838161292957612928613ebc565b5b0492506008810190505b612710831061295857612710838161294e5761294d613ebc565b5b0492506004810190505b6064831061297b576064838161297157612970613ebc565b5b0492506002810190505b600a831061298a576001810190505b80915050919050565b60405180606001604052806000815260200160608152602001606081525090565b8280546129c090613437565b90600052602060002090601f0160209004810192826129e25760008555612a29565b82601f106129fb57805160ff1916838001178555612a29565b82800160010185558215612a29579182015b82811115612a28578251825591602001919060010190612a0d565b5b509050612a369190612a3a565b5090565b5b80821115612a53576000816000905550600101612a3b565b5090565b6000604051905090565b600080fd5b600080fd5b60007fffffffff0000000000000000000000000000000000000000000000000000000082169050919050565b612aa081612a6b565b8114612aab57600080fd5b50565b600081359050612abd81612a97565b92915050565b600060208284031215612ad957612ad8612a61565b5b6000612ae784828501612aae565b91505092915050565b60008115159050919050565b612b0581612af0565b82525050565b6000602082019050612b206000830184612afc565b92915050565b600081519050919050565b600082825260208201905092915050565b60005b83811015612b60578082015181840152602081019050612b45565b83811115612b6f576000848401525b50505050565b6000601f19601f8301169050919050565b6000612b9182612b26565b612b9b8185612b31565b9350612bab818560208601612b42565b612bb481612b75565b840191505092915050565b60006020820190508181036000830152612bd98184612b86565b905092915050565b6000819050919050565b612bf481612be1565b8114612bff57600080fd5b50565b600081359050612c1181612beb565b92915050565b600060208284031215612c2d57612c2c612a61565b5b6000612c3b84828501612c02565b91505092915050565b600073ffffffffffffffffffffffffffffffffffffffff82169050919050565b6000612c6f82612c44565b9050919050565b612c7f81612c64565b82525050565b6000602082019050612c9a6000830184612c76565b92915050565b612ca981612c64565b8114612cb457600080fd5b50565b600081359050612cc681612ca0565b92915050565b60008060408385031215612ce357612ce2612a61565b5b6000612cf185828601612cb7565b9250506020612d0285828601612c02565b9150509250929050565b600080fd5b600080fd5b600080fd5b60008083601f840112612d3157612d30612d0c565b5b8235905067ffffffffffffffff811115612d4e57612d4d612d11565b5b602083019150836001820283011115612d6a57612d69612d16565b5b9250929050565b600080600080600060808688031215612d8d57612d8c612a61565b5b6000612d9b88828901612cb7565b9550506020612dac88828901612cb7565b9450506040612dbd88828901612c02565b935050606086013567ffffffffffffffff811115612dde57612ddd612a66565b5b612dea88828901612d1b565b92509250509295509295909350565b612e0281612a6b565b82525050565b6000602082019050612e1d6000830184612df9565b92915050565b600060208284031215612e3957612e38612a61565b5b6000612e4784828501612cb7565b91505092915050565b600080600060608486031215612e6957612e68612a61565b5b6000612e7786828701612cb7565b9350506020612e8886828701612cb7565b9250506040612e9986828701612c02565b9150509250925092565b6000819050919050565b612eb681612ea3565b8114612ec157600080fd5b50565b600081359050612ed381612ead565b92915050565b600060208284031215612eef57612eee612a61565b5b6000612efd84828501612ec4565b91505092915050565b612f0f81612ea3565b82525050565b6000602082019050612f2a6000830184612f06565b92915050565b60008060408385031215612f4757612f46612a61565b5b6000612f5585828601612ec4565b9250506020612f6685828601612cb7565b9150509250929050565b612f7981612be1565b82525050565b6000602082019050612f946000830184612f70565b92915050565b612fa381612be1565b82525050565b600082825260208201905092915050565b6000612fc582612b26565b612fcf8185612fa9565b9350612fdf818560208601612b42565b612fe881612b75565b840191505092915050565b600060608301600083015161300b6000860182612f9a565b50602083015184820360208601526130238282612fba565b9150506040830151848203604086015261303d8282612fba565b9150508091505092915050565b600060208201905081810360008301526130648184612ff3565b905092915050565b61307581612af0565b811461308057600080fd5b50565b6000813590506130928161306c565b92915050565b600080604083850312156130af576130ae612a61565b5b60006130bd85828601612cb7565b92505060206130ce85828601613083565b9150509250929050565b600080fd5b7f4e487b7100000000000000000000000000000000000000000000000000000000600052604160045260246000fd5b61311582612b75565b810181811067ffffffffffffffff82111715613134576131336130dd565b5b80604052505050565b6000613147612a57565b9050613153828261310c565b919050565b600067ffffffffffffffff821115613173576131726130dd565b5b61317c82612b75565b9050602081019050919050565b82818337600083830152505050565b60006131ab6131a684613158565b61313d565b9050828152602081018484840111156131c7576131c66130d8565b5b6131d2848285613189565b509392505050565b600082601f8301126131ef576131ee612d0c565b5b81356131ff848260208601613198565b91505092915050565b6000806000806080858703121561322257613221612a61565b5b600061323087828801612cb7565b945050602061324187828801612cb7565b935050604061325287828801612c02565b925050606085013567ffffffffffffffff81111561327357613272612a66565b5b61327f878288016131da565b91505092959194509250565b600067ffffffffffffffff8211156132a6576132a56130dd565b5b6132af82612b75565b9050602081019050919050565b60006132cf6132ca8461328b565b61313d565b9050828152602081018484840111156132eb576132ea6130d8565b5b6132f6848285613189565b509392505050565b600082601f83011261331357613312612d0c565b5b81356133238482602086016132bc565b91505092915050565b6000806040838503121561334357613342612a61565b5b600061335185828601612cb7565b925050602083013567ffffffffffffffff81111561337257613371612a66565b5b61337e858286016132fe565b9150509250929050565b6000806040838503121561339f5761339e612a61565b5b60006133ad85828601612c02565b92505060206133be85828601612cb7565b9150509250929050565b600080604083850312156133df576133de612a61565b5b60006133ed85828601612cb7565b92505060206133fe85828601612cb7565b9150509250929050565b7f4e487b7100000000000000000000000000000000000000000000000000000000600052602260045260246000fd5b6000600282049050600182168061344f57607f821691505b6020821081141561346357613462613408565b5b50919050565b7f4552433732313a20617070726f76616c20746f2063757272656e74206f776e6560008201527f7200000000000000000000000000000000000000000000000000000000000000602082015250565b60006134c5602183612b31565b91506134d082613469565b604082019050919050565b600060208201905081810360008301526134f4816134b8565b9050919050565b7f4552433732313a20617070726f76652063616c6c6572206973206e6f7420746f60008201527f6b656e206f776e6572206f7220617070726f76656420666f7220616c6c000000602082015250565b6000613557603d83612b31565b9150613562826134fb565b604082019050919050565b600060208201905081810360008301526135868161354a565b9050919050565b7f416363657373436f6e74726f6c3a2063616e206f6e6c792072656e6f756e636560008201527f20726f6c657320666f722073656c660000000000000000000000000000000000602082015250565b60006135e9602f83612b31565b91506135f48261358d565b604082019050919050565b60006020820190508181036000830152613618816135dc565b9050919050565b7f4552433732313a20696e76616c696420746f6b656e2049440000000000000000600082015250565b6000613655601883612b31565b91506136608261361f565b602082019050919050565b6000602082019050818103600083015261368481613648565b9050919050565b7f4552433732313a2061646472657373207a65726f206973206e6f74206120766160008201527f6c6964206f776e65720000000000000000000000000000000000000000000000602082015250565b60006136e7602983612b31565b91506136f28261368b565b604082019050919050565b60006020820190508181036000830152613716816136da565b9050919050565b7f4552433732313a2063616c6c6572206973206e6f7420746f6b656e206f776e6560008201527f72206f7220617070726f76656400000000000000000000000000000000000000602082015250565b6000613779602d83612b31565b91506137848261371d565b604082019050919050565b600060208201905081810360008301526137a88161376c565b9050919050565b7f4e487b7100000000000000000000000000000000000000000000000000000000600052601160045260246000fd5b60006137e982612be1565b91506137f483612be1565b925082821015613807576138066137af565b5b828203905092915050565b7f4163746976697479206e6f7420617661696c61626c6521000000000000000000600082015250565b6000613848601783612b31565b915061385382613812565b602082019050919050565b600060208201905081810360008301526138778161383b565b9050919050565b7f4552433732313a207472616e736665722066726f6d20696e636f72726563742060008201527f6f776e6572000000000000000000000000000000000000000000000000000000602082015250565b60006138da602583612b31565b91506138e58261387e565b604082019050919050565b60006020820190508181036000830152613909816138cd565b9050919050565b7f4552433732313a207472616e7366657220746f20746865207a65726f2061646460008201527f7265737300000000000000000000000000000000000000000000000000000000602082015250565b600061396c602483612b31565b915061397782613910565b604082019050919050565b6000602082019050818103600083015261399b8161395f565b9050919050565b7f4552433732313a20617070726f766520746f2063616c6c657200000000000000600082015250565b60006139d8601983612b31565b91506139e3826139a2565b602082019050919050565b60006020820190508181036000830152613a07816139cb565b9050919050565b7f4552433732313a207472616e7366657220746f206e6f6e20455243373231526560008201527f63656976657220696d706c656d656e7465720000000000000000000000000000602082015250565b6000613a6a603283612b31565b9150613a7582613a0e565b604082019050919050565b60006020820190508181036000830152613a9981613a5d565b9050919050565b600081905092915050565b6000613ab682612b26565b613ac08185613aa0565b9350613ad0818560208601612b42565b80840191505092915050565b6000613ae88285613aab565b9150613af48284613aab565b91508190509392505050565b7f45524337323155524953746f726167653a2055524920736574206f66206e6f6e60008201527f6578697374656e7420746f6b656e000000000000000000000000000000000000602082015250565b6000613b5c602e83612b31565b9150613b6782613b00565b604082019050919050565b60006020820190508181036000830152613b8b81613b4f565b9050919050565b7f416363657373436f6e74726f6c3a206163636f756e7420000000000000000000600082015250565b6000613bc8601783613aa0565b9150613bd382613b92565b601782019050919050565b7f206973206d697373696e6720726f6c6520000000000000000000000000000000600082015250565b6000613c14601183613aa0565b9150613c1f82613bde565b601182019050919050565b6000613c3582613bbb565b9150613c418285613aab565b9150613c4c82613c07565b9150613c588284613aab565b91508190509392505050565b600081519050919050565b600082825260208201905092915050565b6000613c8b82613c64565b613c958185613c6f565b9350613ca5818560208601612b42565b613cae81612b75565b840191505092915050565b6000608082019050613cce6000830187612c76565b613cdb6020830186612c76565b613ce86040830185612f70565b8181036060830152613cfa8184613c80565b905095945050505050565b600081519050613d1481612a97565b92915050565b600060208284031215613d3057613d2f612a61565b5b6000613d3e84828501613d05565b91505092915050565b6000613d5282612be1565b9150613d5d83612be1565b9250817fffffffffffffffffffffffffffffffffffffffffffffffffffffffffffffffff0483118215151615613d9657613d956137af565b5b828202905092915050565b6000613dac82612be1565b9150613db783612be1565b9250827fffffffffffffffffffffffffffffffffffffffffffffffffffffffffffffffff03821115613dec57613deb6137af565b5b828201905092915050565b7f4e487b7100000000000000000000000000000000000000000000000000000000600052603260045260246000fd5b6000613e3182612be1565b91506000821415613e4557613e446137af565b5b600182039050919050565b7f537472696e67733a20686578206c656e67746820696e73756666696369656e74600082015250565b6000613e86602083612b31565b9150613e9182613e50565b602082019050919050565b60006020820190508181036000830152613eb581613e79565b9050919050565b7f4e487b7100000000000000000000000000000000000000000000000000000000600052601260045260246000fd5b7f4552433732313a206d696e7420746f20746865207a65726f2061646472657373600082015250565b6000613f21602083612b31565b9150613f2c82613eeb565b602082019050919050565b60006020820190508181036000830152613f5081613f14565b9050919050565b7f4552433732313a20746f6b656e20616c7265616479206d696e74656400000000600082015250565b6000613f8d601c83612b31565b9150613f9882613f57565b602082019050919050565b60006020820190508181036000830152613fbc81613f80565b905091905056fea26469706673582212202780d54b8048fe43adc0f00dcee799637610aacabe579e6593adb7fa6649587d64736f6c63430008090033",
  "linkReferences": {},
  "deployedLinkReferences": {}
}