{
  "_format": "hh-sol-artifact-1",
  "contractName": "NftERC721",
  "sourceName": "contracts/NftERC721.sol",
  "abi": [
    {
      "inputs": [
        {
          "internalType": "string",
          "name": "_collectionName",
          "type": "string"
        },
        {
          "internalType": "string",
          "name": "_token",
          "type": "string"
        }
      ],
      "stateMutability": "payable",
      "type": "constructor"
    },
    {
      "anonymous": false,
      "inputs": [
        {
          "indexed": true,
          "internalType": "address",
          "name": "owner",
          "type": "address"
        },
        {
          "indexed": true,
          "internalType": "address",
          "name": "approved",
          "type": "address"
        },
        {
          "indexed": true,
          "internalType": "uint256",
          "name": "tokenId",
          "type": "uint256"
        }
      ],
      "name": "Approval",
      "type": "event"
    },
    {
      "anonymous": false,
      "inputs": [
        {
          "indexed": true,
          "internalType": "address",
          "name": "owner",
          "type": "address"
        },
        {
          "indexed": true,
          "internalType": "address",
          "name": "operator",
          "type": "address"
        },
        {
          "indexed": false,
          "internalType": "bool",
          "name": "approved",
          "type": "bool"
        }
      ],
      "name": "ApprovalForAll",
      "type": "event"
    },
    {
      "anonymous": false,
      "inputs": [
        {
          "indexed": false,
          "internalType": "bool",
          "name": "isMinted",
          "type": "bool"
        }
      ],
      "name": "NftMinted",
      "type": "event"
    },
    {
      "anonymous": false,
      "inputs": [
        {
          "indexed": true,
          "internalType": "address",
          "name": "from",
          "type": "address"
        },
        {
          "indexed": true,
          "internalType": "address",
          "name": "to",
          "type": "address"
        },
        {
          "indexed": true,
          "internalType": "uint256",
          "name": "tokenId",
          "type": "uint256"
        }
      ],
      "name": "Transfer",
      "type": "event"
    },
    {
      "inputs": [
        {
          "internalType": "address",
          "name": "to",
          "type": "address"
        },
        {
          "internalType": "uint256",
          "name": "tokenId",
          "type": "uint256"
        }
      ],
      "name": "approve",
      "outputs": [],
      "stateMutability": "nonpayable",
      "type": "function"
    },
    {
      "inputs": [
        {
          "internalType": "address",
          "name": "owner",
          "type": "address"
        }
      ],
      "name": "balanceOf",
      "outputs": [
        {
          "internalType": "uint256",
          "name": "",
          "type": "uint256"
        }
      ],
      "stateMutability": "view",
      "type": "function"
    },
    {
      "inputs": [
        {
          "internalType": "string",
          "name": "a",
          "type": "string"
        },
        {
          "internalType": "string",
          "name": "b",
          "type": "string"
        }
      ],
      "name": "compareStrings",
      "outputs": [
        {
          "internalType": "bool",
          "name": "",
          "type": "bool"
        }
      ],
      "stateMutability": "pure",
      "type": "function"
    },
    {
      "inputs": [
        {
          "internalType": "uint256",
          "name": "tokenId",
          "type": "uint256"
        }
      ],
      "name": "getApproved",
      "outputs": [
        {
          "internalType": "address",
          "name": "",
          "type": "address"
        }
      ],
      "stateMutability": "view",
      "type": "function"
    },
    {
      "inputs": [],
      "name": "idCounter",
      "outputs": [
        {
          "internalType": "uint256",
          "name": "",
          "type": "uint256"
        }
      ],
      "stateMutability": "view",
      "type": "function"
    },
    {
      "inputs": [
        {
          "internalType": "address",
          "name": "owner",
          "type": "address"
        },
        {
          "internalType": "address",
          "name": "operator",
          "type": "address"
        }
      ],
      "name": "isApprovedForAll",
      "outputs": [
        {
          "internalType": "bool",
          "name": "",
          "type": "bool"
        }
      ],
      "stateMutability": "view",
      "type": "function"
    },
    {
      "inputs": [],
      "name": "lastMinted",
      "outputs": [
        {
          "internalType": "string",
          "name": "",
          "type": "string"
        }
      ],
      "stateMutability": "view",
      "type": "function"
    },
    {
      "inputs": [
        {
          "internalType": "uint256",
          "name": "",
          "type": "uint256"
        }
      ],
      "name": "lastsMintsTokenUri",
      "outputs": [
        {
          "internalType": "string",
          "name": "",
          "type": "string"
        }
      ],
      "stateMutability": "view",
      "type": "function"
    },
    {
      "inputs": [],
      "name": "name",
      "outputs": [
        {
          "internalType": "string",
          "name": "",
          "type": "string"
        }
      ],
      "stateMutability": "view",
      "type": "function"
    },
    {
      "inputs": [],
      "name": "owner",
      "outputs": [
        {
          "internalType": "address",
          "name": "",
          "type": "address"
        }
      ],
      "stateMutability": "view",
      "type": "function"
    },
    {
      "inputs": [
        {
          "internalType": "uint256",
          "name": "tokenId",
          "type": "uint256"
        }
      ],
      "name": "ownerOf",
      "outputs": [
        {
          "internalType": "address",
          "name": "",
          "type": "address"
        }
      ],
      "stateMutability": "view",
      "type": "function"
    },
    {
      "inputs": [
        {
          "internalType": "address",
          "name": "to",
          "type": "address"
        },
        {
          "internalType": "string",
          "name": "ipfsUri",
          "type": "string"
        }
      ],
      "name": "safeMint",
      "outputs": [],
      "stateMutability": "nonpayable",
      "type": "function"
    },
    {
      "inputs": [
        {
          "internalType": "address",
          "name": "from",
          "type": "address"
        },
        {
          "internalType": "address",
          "name": "to",
          "type": "address"
        },
        {
          "internalType": "uint256",
          "name": "tokenId",
          "type": "uint256"
        }
      ],
      "name": "safeTransferFrom",
      "outputs": [],
      "stateMutability": "nonpayable",
      "type": "function"
    },
    {
      "inputs": [
        {
          "internalType": "address",
          "name": "from",
          "type": "address"
        },
        {
          "internalType": "address",
          "name": "to",
          "type": "address"
        },
        {
          "internalType": "uint256",
          "name": "tokenId",
          "type": "uint256"
        },
        {
          "internalType": "bytes",
          "name": "data",
          "type": "bytes"
        }
      ],
      "name": "safeTransferFrom",
      "outputs": [],
      "stateMutability": "nonpayable",
      "type": "function"
    },
    {
      "inputs": [
        {
          "internalType": "address",
          "name": "operator",
          "type": "address"
        },
        {
          "internalType": "bool",
          "name": "approved",
          "type": "bool"
        }
      ],
      "name": "setApprovalForAll",
      "outputs": [],
      "stateMutability": "nonpayable",
      "type": "function"
    },
    {
      "inputs": [
        {
          "internalType": "bytes4",
          "name": "interfaceId",
          "type": "bytes4"
        }
      ],
      "name": "supportsInterface",
      "outputs": [
        {
          "internalType": "bool",
          "name": "",
          "type": "bool"
        }
      ],
      "stateMutability": "view",
      "type": "function"
    },
    {
      "inputs": [],
      "name": "symbol",
      "outputs": [
        {
          "internalType": "string",
          "name": "",
          "type": "string"
        }
      ],
      "stateMutability": "view",
      "type": "function"
    },
    {
      "inputs": [],
      "name": "tokenIdCounter",
      "outputs": [
        {
          "internalType": "uint256",
          "name": "_value",
          "type": "uint256"
        }
      ],
      "stateMutability": "view",
      "type": "function"
    },
    {
      "inputs": [
        {
          "internalType": "uint256",
          "name": "tokenId",
          "type": "uint256"
        }
      ],
      "name": "tokenURI",
      "outputs": [
        {
          "internalType": "string",
          "name": "",
          "type": "string"
        }
      ],
      "stateMutability": "view",
      "type": "function"
    },
    {
      "inputs": [
        {
          "internalType": "address",
          "name": "from",
          "type": "address"
        },
        {
          "internalType": "address",
          "name": "to",
          "type": "address"
        },
        {
          "internalType": "uint256",
          "name": "tokenId",
          "type": "uint256"
        }
      ],
      "name": "transferFrom",
      "outputs": [],
      "stateMutability": "nonpayable",
      "type": "function"
    },
    {
      "inputs": [
        {
          "internalType": "address",
          "name": "",
          "type": "address"
        }
      ],
      "name": "whiteList",
      "outputs": [
        {
          "internalType": "bool",
          "name": "",
          "type": "bool"
        }
      ],
      "stateMutability": "view",
      "type": "function"
    }
  ],
  "bytecode": "0x6080604052604051620030ff380380620030ff8339818101604052810190620000299190620002b4565b818181600090805190602001906200004392919062000067565b5080600190805190602001906200005c92919062000067565b50505050506200039e565b828054620000759062000368565b90600052602060002090601f016020900481019282620000995760008555620000e5565b82601f10620000b457805160ff1916838001178555620000e5565b82800160010185558215620000e5579182015b82811115620000e4578251825591602001919060010190620000c7565b5b509050620000f49190620000f8565b5090565b5b8082111562000113576000816000905550600101620000f9565b5090565b6000604051905090565b600080fd5b600080fd5b600080fd5b600080fd5b6000601f19601f8301169050919050565b7f4e487b7100000000000000000000000000000000000000000000000000000000600052604160045260246000fd5b620001808262000135565b810181811067ffffffffffffffff82111715620001a257620001a162000146565b5b80604052505050565b6000620001b762000117565b9050620001c5828262000175565b919050565b600067ffffffffffffffff821115620001e857620001e762000146565b5b620001f38262000135565b9050602081019050919050565b60005b838110156200022057808201518184015260208101905062000203565b8381111562000230576000848401525b50505050565b60006200024d6200024784620001ca565b620001ab565b9050828152602081018484840111156200026c576200026b62000130565b5b6200027984828562000200565b509392505050565b600082601f8301126200029957620002986200012b565b5b8151620002ab84826020860162000236565b91505092915050565b60008060408385031215620002ce57620002cd62000121565b5b600083015167ffffffffffffffff811115620002ef57620002ee62000126565b5b620002fd8582860162000281565b925050602083015167ffffffffffffffff81111562000321576200032062000126565b5b6200032f8582860162000281565b9150509250929050565b7f4e487b7100000000000000000000000000000000000000000000000000000000600052602260045260246000fd5b600060028204905060018216806200038157607f821691505b6020821081141562000398576200039762000339565b5b50919050565b612d5180620003ae6000396000f3fe608060405234801561001057600080fd5b50600436106101375760003560e01c806395d89b41116100b8578063bed34bba1161007c578063bed34bba1461034e578063c25610941461037e578063c87b56dd146103ae578063d204c45e146103de578063e985e9c5146103fa578063eb08ab281461042a57610137565b806395d89b41146102bc57806398bdf6f5146102da578063a22cb465146102f8578063b88d4fde14610314578063bbc19ab01461033057610137565b8063372c12b1116100ff578063372c12b1146101f257806342842e0e146102225780636352211e1461023e57806370a082311461026e5780638da5cb5b1461029e57610137565b806301ffc9a71461013c57806306fdde031461016c578063081812fc1461018a578063095ea7b3146101ba57806323b872dd146101d6575b600080fd5b61015660048036038101906101519190611dc2565b610448565b6040516101639190611e0a565b60405180910390f35b61017461052a565b6040516101819190611ebe565b60405180910390f35b6101a4600480360381019061019f9190611f16565b6105bc565b6040516101b19190611f84565b60405180910390f35b6101d460048036038101906101cf9190611fcb565b610602565b005b6101f060048036038101906101eb919061200b565b61071a565b005b61020c6004803603810190610207919061205e565b61077a565b6040516102199190611e0a565b60405180910390f35b61023c6004803603810190610237919061200b565b61079a565b005b61025860048036038101906102539190611f16565b6107ba565b6040516102659190611f84565b60405180910390f35b6102886004803603810190610283919061205e565b610841565b604051610295919061209a565b60405180910390f35b6102a66108f9565b6040516102b39190611f84565b60405180910390f35b6102c461091f565b6040516102d19190611ebe565b60405180910390f35b6102e26109b1565b6040516102ef919061209a565b60405180910390f35b610312600480360381019061030d91906120e1565b6109bd565b005b61032e60048036038101906103299190612256565b6109d3565b005b610338610a35565b6040516103459190611ebe565b60405180910390f35b6103686004803603810190610363919061237a565b610a9c565b6040516103759190611e0a565b60405180910390f35b61039860048036038101906103939190611f16565b610af5565b6040516103a59190611ebe565b60405180910390f35b6103c860048036038101906103c39190611f16565b610b95565b6040516103d59190611ebe565b60405180910390f35b6103f860048036038101906103f391906123f2565b610ba7565b005b610414600480360381019061040f919061244e565b610c10565b6040516104219190611e0a565b60405180910390f35b610432610ca4565b60405161043f919061209a565b60405180910390f35b60007f80ac58cd000000000000000000000000000000000000000000000000000000007bffffffffffffffffffffffffffffffffffffffffffffffffffffffff1916827bffffffffffffffffffffffffffffffffffffffffffffffffffffffff1916148061051357507f5b5e139f000000000000000000000000000000000000000000000000000000007bffffffffffffffffffffffffffffffffffffffffffffffffffffffff1916827bffffffffffffffffffffffffffffffffffffffffffffffffffffffff1916145b80610523575061052282610cb5565b5b9050919050565b606060008054610539906124bd565b80601f0160208091040260200160405190810160405280929190818152602001828054610565906124bd565b80156105b25780601f10610587576101008083540402835291602001916105b2565b820191906000526020600020905b81548152906001019060200180831161059557829003601f168201915b5050505050905090565b60006105c782610d1f565b6004600083815260200190815260200160002060009054906101000a900473ffffffffffffffffffffffffffffffffffffffff169050919050565b600061060d826107ba565b90508073ffffffffffffffffffffffffffffffffffffffff168373ffffffffffffffffffffffffffffffffffffffff16141561067e576040517f08c379a000000000000000000000000000000000000000000000000000000000815260040161067590612561565b60405180910390fd5b8073ffffffffffffffffffffffffffffffffffffffff1661069d610d6a565b73ffffffffffffffffffffffffffffffffffffffff1614806106cc57506106cb816106c6610d6a565b610c10565b5b61070b576040517f08c379a0000000000000000000000000000000000000000000000000000000008152600401610702906125f3565b60405180910390fd5b6107158383610d72565b505050565b61072b610725610d6a565b82610e2b565b61076a576040517f08c379a000000000000000000000000000000000000000000000000000000000815260040161076190612685565b60405180910390fd5b610775838383610ec0565b505050565b60096020528060005260406000206000915054906101000a900460ff1681565b6107b5838383604051806020016040528060008152506109d3565b505050565b6000806107c6836111ba565b9050600073ffffffffffffffffffffffffffffffffffffffff168173ffffffffffffffffffffffffffffffffffffffff161415610838576040517f08c379a000000000000000000000000000000000000000000000000000000000815260040161082f906126f1565b60405180910390fd5b80915050919050565b60008073ffffffffffffffffffffffffffffffffffffffff168273ffffffffffffffffffffffffffffffffffffffff1614156108b2576040517f08c379a00000000000000000000000000000000000000000000000000000000081526004016108a990612783565b60405180910390fd5b600360008373ffffffffffffffffffffffffffffffffffffffff1673ffffffffffffffffffffffffffffffffffffffff168152602001908152602001600020549050919050565b600860009054906101000a900473ffffffffffffffffffffffffffffffffffffffff1681565b60606001805461092e906124bd565b80601f016020809104026020016040519081016040528092919081815260200182805461095a906124bd565b80156109a75780601f1061097c576101008083540402835291602001916109a7565b820191906000526020600020905b81548152906001019060200180831161098a57829003601f168201915b5050505050905090565b60078060000154905081565b6109cf6109c8610d6a565b83836111f7565b5050565b6109e46109de610d6a565b83610e2b565b610a23576040517f08c379a0000000000000000000000000000000000000000000000000000000008152600401610a1a90612685565b60405180910390fd5b610a2f84848484611364565b50505050565b60606000610a4360076113c0565b90506000811415610a665760405180602001604052806000815250915050610a99565b6000811115610a8c57610a84600182610a7f91906127d2565b610b95565b915050610a99565b610a9581610b95565b9150505b90565b600081604051602001610aaf9190612842565b6040516020818303038152906040528051906020012083604051602001610ad69190612842565b6040516020818303038152906040528051906020012014905092915050565b600a6020528060005260406000206000915090508054610b14906124bd565b80601f0160208091040260200160405190810160405280929190818152602001828054610b40906124bd565b8015610b8d5780601f10610b6257610100808354040283529160200191610b8d565b820191906000526020600020905b815481529060010190602001808311610b7057829003601f168201915b505050505081565b6060610ba0826113ce565b9050919050565b6000610bb360076113c0565b9050610bbf60076114e1565b610bc983826114f7565b610bd38183611515565b7f20ca71800840a1730c265dcac5f68ec9daffe929561a6ed11f49ada5e4f7a31a6001604051610c039190611e0a565b60405180910390a1505050565b6000600560008473ffffffffffffffffffffffffffffffffffffffff1673ffffffffffffffffffffffffffffffffffffffff16815260200190815260200160002060008373ffffffffffffffffffffffffffffffffffffffff1673ffffffffffffffffffffffffffffffffffffffff16815260200190815260200160002060009054906101000a900460ff16905092915050565b6000610cb060076113c0565b905090565b60007f01ffc9a7000000000000000000000000000000000000000000000000000000007bffffffffffffffffffffffffffffffffffffffffffffffffffffffff1916827bffffffffffffffffffffffffffffffffffffffffffffffffffffffff1916149050919050565b610d2881611589565b610d67576040517f08c379a0000000000000000000000000000000000000000000000000000000008152600401610d5e906126f1565b60405180910390fd5b50565b600033905090565b816004600083815260200190815260200160002060006101000a81548173ffffffffffffffffffffffffffffffffffffffff021916908373ffffffffffffffffffffffffffffffffffffffff160217905550808273ffffffffffffffffffffffffffffffffffffffff16610de5836107ba565b73ffffffffffffffffffffffffffffffffffffffff167f8c5be1e5ebec7d5bd14f71427d1e84f3dd0314c0f7b2291e5b200ac8c7c3b92560405160405180910390a45050565b600080610e37836107ba565b90508073ffffffffffffffffffffffffffffffffffffffff168473ffffffffffffffffffffffffffffffffffffffff161480610e795750610e788185610c10565b5b80610eb757508373ffffffffffffffffffffffffffffffffffffffff16610e9f846105bc565b73ffffffffffffffffffffffffffffffffffffffff16145b91505092915050565b8273ffffffffffffffffffffffffffffffffffffffff16610ee0826107ba565b73ffffffffffffffffffffffffffffffffffffffff1614610f36576040517f08c379a0000000000000000000000000000000000000000000000000000000008152600401610f2d906128cb565b60405180910390fd5b600073ffffffffffffffffffffffffffffffffffffffff168273ffffffffffffffffffffffffffffffffffffffff161415610fa6576040517f08c379a0000000000000000000000000000000000000000000000000000000008152600401610f9d9061295d565b60405180910390fd5b610fb383838360016115ca565b8273ffffffffffffffffffffffffffffffffffffffff16610fd3826107ba565b73ffffffffffffffffffffffffffffffffffffffff1614611029576040517f08c379a0000000000000000000000000000000000000000000000000000000008152600401611020906128cb565b60405180910390fd5b6004600082815260200190815260200160002060006101000a81549073ffffffffffffffffffffffffffffffffffffffff02191690556001600360008573ffffffffffffffffffffffffffffffffffffffff1673ffffffffffffffffffffffffffffffffffffffff168152602001908152602001600020600082825403925050819055506001600360008473ffffffffffffffffffffffffffffffffffffffff1673ffffffffffffffffffffffffffffffffffffffff16815260200190815260200160002060008282540192505081905550816002600083815260200190815260200160002060006101000a81548173ffffffffffffffffffffffffffffffffffffffff021916908373ffffffffffffffffffffffffffffffffffffffff160217905550808273ffffffffffffffffffffffffffffffffffffffff168473ffffffffffffffffffffffffffffffffffffffff167fddf252ad1be2c89b69c2b068fc378daa952ba7f163c4a11628f55a4df523b3ef60405160405180910390a46111b583838360016115d0565b505050565b60006002600083815260200190815260200160002060009054906101000a900473ffffffffffffffffffffffffffffffffffffffff169050919050565b8173ffffffffffffffffffffffffffffffffffffffff168373ffffffffffffffffffffffffffffffffffffffff161415611266576040517f08c379a000000000000000000000000000000000000000000000000000000000815260040161125d906129c9565b60405180910390fd5b80600560008573ffffffffffffffffffffffffffffffffffffffff1673ffffffffffffffffffffffffffffffffffffffff16815260200190815260200160002060008473ffffffffffffffffffffffffffffffffffffffff1673ffffffffffffffffffffffffffffffffffffffff16815260200190815260200160002060006101000a81548160ff0219169083151502179055508173ffffffffffffffffffffffffffffffffffffffff168373ffffffffffffffffffffffffffffffffffffffff167f17307eab39ab6107e8899845ad3d59bd9653f200f220920489ca2b5937696c31836040516113579190611e0a565b60405180910390a3505050565b61136f848484610ec0565b61137b848484846115d6565b6113ba576040517f08c379a00000000000000000000000000000000000000000000000000000000081526004016113b190612a5b565b60405180910390fd5b50505050565b600081600001549050919050565b60606113d982610d1f565b60006006600084815260200190815260200160002080546113f9906124bd565b80601f0160208091040260200160405190810160405280929190818152602001828054611425906124bd565b80156114725780601f1061144757610100808354040283529160200191611472565b820191906000526020600020905b81548152906001019060200180831161145557829003601f168201915b50505050509050600061148361176d565b90506000815114156114995781925050506114dc565b6000825111156114ce5780826040516020016114b6929190612a7b565b604051602081830303815290604052925050506114dc565b6114d784611784565b925050505b919050565b6001816000016000828254019250508190555050565b6115118282604051806020016040528060008152506117ec565b5050565b61151e82611589565b61155d576040517f08c379a000000000000000000000000000000000000000000000000000000000815260040161155490612b11565b60405180910390fd5b80600660008481526020019081526020016000209080519060200190611584929190611cb3565b505050565b60008073ffffffffffffffffffffffffffffffffffffffff166115ab836111ba565b73ffffffffffffffffffffffffffffffffffffffff1614159050919050565b50505050565b50505050565b60006115f78473ffffffffffffffffffffffffffffffffffffffff16611847565b15611760578373ffffffffffffffffffffffffffffffffffffffff1663150b7a02611620610d6a565b8786866040518563ffffffff1660e01b81526004016116429493929190612b86565b602060405180830381600087803b15801561165c57600080fd5b505af192505050801561168d57506040513d601f19601f8201168201806040525081019061168a9190612be7565b60015b611710573d80600081146116bd576040519150601f19603f3d011682016040523d82523d6000602084013e6116c2565b606091505b50600081511415611708576040517f08c379a00000000000000000000000000000000000000000000000000000000081526004016116ff90612a5b565b60405180910390fd5b805181602001fd5b63150b7a0260e01b7bffffffffffffffffffffffffffffffffffffffffffffffffffffffff1916817bffffffffffffffffffffffffffffffffffffffffffffffffffffffff191614915050611765565b600190505b949350505050565b606060405180602001604052806000815250905090565b606061178f82610d1f565b600061179961176d565b905060008151116117b957604051806020016040528060008152506117e4565b806117c38461186a565b6040516020016117d4929190612a7b565b6040516020818303038152906040525b915050919050565b6117f68383611942565b61180360008484846115d6565b611842576040517f08c379a000000000000000000000000000000000000000000000000000000000815260040161183990612a5b565b60405180910390fd5b505050565b6000808273ffffffffffffffffffffffffffffffffffffffff163b119050919050565b60606000600161187984611b60565b01905060008167ffffffffffffffff8111156118985761189761212b565b5b6040519080825280601f01601f1916602001820160405280156118ca5781602001600182028036833780820191505090505b509050600082602001820190505b600115611937578080600190039150507f3031323334353637383961626364656600000000000000000000000000000000600a86061a8153600a858161192157611920612c14565b5b049450600085141561193257611937565b6118d8565b819350505050919050565b600073ffffffffffffffffffffffffffffffffffffffff168273ffffffffffffffffffffffffffffffffffffffff1614156119b2576040517f08c379a00000000000000000000000000000000000000000000000000000000081526004016119a990612c8f565b60405180910390fd5b6119bb81611589565b156119fb576040517f08c379a00000000000000000000000000000000000000000000000000000000081526004016119f290612cfb565b60405180910390fd5b611a096000838360016115ca565b611a1281611589565b15611a52576040517f08c379a0000000000000000000000000000000000000000000000000000000008152600401611a4990612cfb565b60405180910390fd5b6001600360008473ffffffffffffffffffffffffffffffffffffffff1673ffffffffffffffffffffffffffffffffffffffff16815260200190815260200160002060008282540192505081905550816002600083815260200190815260200160002060006101000a81548173ffffffffffffffffffffffffffffffffffffffff021916908373ffffffffffffffffffffffffffffffffffffffff160217905550808273ffffffffffffffffffffffffffffffffffffffff16600073ffffffffffffffffffffffffffffffffffffffff167fddf252ad1be2c89b69c2b068fc378daa952ba7f163c4a11628f55a4df523b3ef60405160405180910390a4611b5c6000838360016115d0565b5050565b600080600090507a184f03e93ff9f4daa797ed6e38ed64bf6a1f0100000000000000008310611bbe577a184f03e93ff9f4daa797ed6e38ed64bf6a1f0100000000000000008381611bb457611bb3612c14565b5b0492506040810190505b6d04ee2d6d415b85acef81000000008310611bfb576d04ee2d6d415b85acef81000000008381611bf157611bf0612c14565b5b0492506020810190505b662386f26fc100008310611c2a57662386f26fc100008381611c2057611c1f612c14565b5b0492506010810190505b6305f5e1008310611c53576305f5e1008381611c4957611c48612c14565b5b0492506008810190505b6127108310611c78576127108381611c6e57611c6d612c14565b5b0492506004810190505b60648310611c9b5760648381611c9157611c90612c14565b5b0492506002810190505b600a8310611caa576001810190505b80915050919050565b828054611cbf906124bd565b90600052602060002090601f016020900481019282611ce15760008555611d28565b82601f10611cfa57805160ff1916838001178555611d28565b82800160010185558215611d28579182015b82811115611d27578251825591602001919060010190611d0c565b5b509050611d359190611d39565b5090565b5b80821115611d52576000816000905550600101611d3a565b5090565b6000604051905090565b600080fd5b600080fd5b60007fffffffff0000000000000000000000000000000000000000000000000000000082169050919050565b611d9f81611d6a565b8114611daa57600080fd5b50565b600081359050611dbc81611d96565b92915050565b600060208284031215611dd857611dd7611d60565b5b6000611de684828501611dad565b91505092915050565b60008115159050919050565b611e0481611def565b82525050565b6000602082019050611e1f6000830184611dfb565b92915050565b600081519050919050565b600082825260208201905092915050565b60005b83811015611e5f578082015181840152602081019050611e44565b83811115611e6e576000848401525b50505050565b6000601f19601f8301169050919050565b6000611e9082611e25565b611e9a8185611e30565b9350611eaa818560208601611e41565b611eb381611e74565b840191505092915050565b60006020820190508181036000830152611ed88184611e85565b905092915050565b6000819050919050565b611ef381611ee0565b8114611efe57600080fd5b50565b600081359050611f1081611eea565b92915050565b600060208284031215611f2c57611f2b611d60565b5b6000611f3a84828501611f01565b91505092915050565b600073ffffffffffffffffffffffffffffffffffffffff82169050919050565b6000611f6e82611f43565b9050919050565b611f7e81611f63565b82525050565b6000602082019050611f996000830184611f75565b92915050565b611fa881611f63565b8114611fb357600080fd5b50565b600081359050611fc581611f9f565b92915050565b60008060408385031215611fe257611fe1611d60565b5b6000611ff085828601611fb6565b925050602061200185828601611f01565b9150509250929050565b60008060006060848603121561202457612023611d60565b5b600061203286828701611fb6565b935050602061204386828701611fb6565b925050604061205486828701611f01565b9150509250925092565b60006020828403121561207457612073611d60565b5b600061208284828501611fb6565b91505092915050565b61209481611ee0565b82525050565b60006020820190506120af600083018461208b565b92915050565b6120be81611def565b81146120c957600080fd5b50565b6000813590506120db816120b5565b92915050565b600080604083850312156120f8576120f7611d60565b5b600061210685828601611fb6565b9250506020612117858286016120cc565b9150509250929050565b600080fd5b600080fd5b7f4e487b7100000000000000000000000000000000000000000000000000000000600052604160045260246000fd5b61216382611e74565b810181811067ffffffffffffffff821117156121825761218161212b565b5b80604052505050565b6000612195611d56565b90506121a1828261215a565b919050565b600067ffffffffffffffff8211156121c1576121c061212b565b5b6121ca82611e74565b9050602081019050919050565b82818337600083830152505050565b60006121f96121f4846121a6565b61218b565b90508281526020810184848401111561221557612214612126565b5b6122208482856121d7565b509392505050565b600082601f83011261223d5761223c612121565b5b813561224d8482602086016121e6565b91505092915050565b600080600080608085870312156122705761226f611d60565b5b600061227e87828801611fb6565b945050602061228f87828801611fb6565b93505060406122a087828801611f01565b925050606085013567ffffffffffffffff8111156122c1576122c0611d65565b5b6122cd87828801612228565b91505092959194509250565b600067ffffffffffffffff8211156122f4576122f361212b565b5b6122fd82611e74565b9050602081019050919050565b600061231d612318846122d9565b61218b565b90508281526020810184848401111561233957612338612126565b5b6123448482856121d7565b509392505050565b600082601f83011261236157612360612121565b5b813561237184826020860161230a565b91505092915050565b6000806040838503121561239157612390611d60565b5b600083013567ffffffffffffffff8111156123af576123ae611d65565b5b6123bb8582860161234c565b925050602083013567ffffffffffffffff8111156123dc576123db611d65565b5b6123e88582860161234c565b9150509250929050565b6000806040838503121561240957612408611d60565b5b600061241785828601611fb6565b925050602083013567ffffffffffffffff81111561243857612437611d65565b5b6124448582860161234c565b9150509250929050565b6000806040838503121561246557612464611d60565b5b600061247385828601611fb6565b925050602061248485828601611fb6565b9150509250929050565b7f4e487b7100000000000000000000000000000000000000000000000000000000600052602260045260246000fd5b600060028204905060018216806124d557607f821691505b602082108114156124e9576124e861248e565b5b50919050565b7f4552433732313a20617070726f76616c20746f2063757272656e74206f776e6560008201527f7200000000000000000000000000000000000000000000000000000000000000602082015250565b600061254b602183611e30565b9150612556826124ef565b604082019050919050565b6000602082019050818103600083015261257a8161253e565b9050919050565b7f4552433732313a20617070726f76652063616c6c6572206973206e6f7420746f60008201527f6b656e206f776e6572206f7220617070726f76656420666f7220616c6c000000602082015250565b60006125dd603d83611e30565b91506125e882612581565b604082019050919050565b6000602082019050818103600083015261260c816125d0565b9050919050565b7f4552433732313a2063616c6c6572206973206e6f7420746f6b656e206f776e6560008201527f72206f7220617070726f76656400000000000000000000000000000000000000602082015250565b600061266f602d83611e30565b915061267a82612613565b604082019050919050565b6000602082019050818103600083015261269e81612662565b9050919050565b7f4552433732313a20696e76616c696420746f6b656e2049440000000000000000600082015250565b60006126db601883611e30565b91506126e6826126a5565b602082019050919050565b6000602082019050818103600083015261270a816126ce565b9050919050565b7f4552433732313a2061646472657373207a65726f206973206e6f74206120766160008201527f6c6964206f776e65720000000000000000000000000000000000000000000000602082015250565b600061276d602983611e30565b915061277882612711565b604082019050919050565b6000602082019050818103600083015261279c81612760565b9050919050565b7f4e487b7100000000000000000000000000000000000000000000000000000000600052601160045260246000fd5b60006127dd82611ee0565b91506127e883611ee0565b9250828210156127fb576127fa6127a3565b5b828203905092915050565b600081905092915050565b600061281c82611e25565b6128268185612806565b9350612836818560208601611e41565b80840191505092915050565b600061284e8284612811565b915081905092915050565b7f4552433732313a207472616e736665722066726f6d20696e636f72726563742060008201527f6f776e6572000000000000000000000000000000000000000000000000000000602082015250565b60006128b5602583611e30565b91506128c082612859565b604082019050919050565b600060208201905081810360008301526128e4816128a8565b9050919050565b7f4552433732313a207472616e7366657220746f20746865207a65726f2061646460008201527f7265737300000000000000000000000000000000000000000000000000000000602082015250565b6000612947602483611e30565b9150612952826128eb565b604082019050919050565b600060208201905081810360008301526129768161293a565b9050919050565b7f4552433732313a20617070726f766520746f2063616c6c657200000000000000600082015250565b60006129b3601983611e30565b91506129be8261297d565b602082019050919050565b600060208201905081810360008301526129e2816129a6565b9050919050565b7f4552433732313a207472616e7366657220746f206e6f6e20455243373231526560008201527f63656976657220696d706c656d656e7465720000000000000000000000000000602082015250565b6000612a45603283611e30565b9150612a50826129e9565b604082019050919050565b60006020820190508181036000830152612a7481612a38565b9050919050565b6000612a878285612811565b9150612a938284612811565b91508190509392505050565b7f45524337323155524953746f726167653a2055524920736574206f66206e6f6e60008201527f6578697374656e7420746f6b656e000000000000000000000000000000000000602082015250565b6000612afb602e83611e30565b9150612b0682612a9f565b604082019050919050565b60006020820190508181036000830152612b2a81612aee565b9050919050565b600081519050919050565b600082825260208201905092915050565b6000612b5882612b31565b612b628185612b3c565b9350612b72818560208601611e41565b612b7b81611e74565b840191505092915050565b6000608082019050612b9b6000830187611f75565b612ba86020830186611f75565b612bb5604083018561208b565b8181036060830152612bc78184612b4d565b905095945050505050565b600081519050612be181611d96565b92915050565b600060208284031215612bfd57612bfc611d60565b5b6000612c0b84828501612bd2565b91505092915050565b7f4e487b7100000000000000000000000000000000000000000000000000000000600052601260045260246000fd5b7f4552433732313a206d696e7420746f20746865207a65726f2061646472657373600082015250565b6000612c79602083611e30565b9150612c8482612c43565b602082019050919050565b60006020820190508181036000830152612ca881612c6c565b9050919050565b7f4552433732313a20746f6b656e20616c7265616479206d696e74656400000000600082015250565b6000612ce5601c83611e30565b9150612cf082612caf565b602082019050919050565b60006020820190508181036000830152612d1481612cd8565b905091905056fea26469706673582212207193677437e116a837b5e79fb63c2283e439248829220992bc983ac5e393679564736f6c63430008090033",
  "linkReferences": {},
  "deployedLinkReferences": {}
}