{
  "_format": "hh-sol-artifact-1",
  "contractName": "NftERC721",
  "sourceName": "contracts/NftERC721.sol",
  "abi": [
    {
      "inputs": [
        {
          "internalType": "string",
          "name": "_collectionName",
          "type": "string"
        },
        {
          "internalType": "string",
          "name": "_token",
          "type": "string"
        }
      ],
      "stateMutability": "payable",
      "type": "constructor"
    },
    {
      "anonymous": false,
      "inputs": [
        {
          "indexed": true,
          "internalType": "address",
          "name": "owner",
          "type": "address"
        },
        {
          "indexed": true,
          "internalType": "address",
          "name": "approved",
          "type": "address"
        },
        {
          "indexed": true,
          "internalType": "uint256",
          "name": "tokenId",
          "type": "uint256"
        }
      ],
      "name": "Approval",
      "type": "event"
    },
    {
      "anonymous": false,
      "inputs": [
        {
          "indexed": true,
          "internalType": "address",
          "name": "owner",
          "type": "address"
        },
        {
          "indexed": true,
          "internalType": "address",
          "name": "operator",
          "type": "address"
        },
        {
          "indexed": false,
          "internalType": "bool",
          "name": "approved",
          "type": "bool"
        }
      ],
      "name": "ApprovalForAll",
      "type": "event"
    },
    {
      "anonymous": false,
      "inputs": [
        {
          "indexed": false,
          "internalType": "bool",
          "name": "isMinted",
          "type": "bool"
        }
      ],
      "name": "NftMinted",
      "type": "event"
    },
    {
      "anonymous": false,
      "inputs": [
        {
          "indexed": false,
          "internalType": "bool",
          "name": "isMinted",
          "type": "bool"
        }
      ],
      "name": "NftTransferred",
      "type": "event"
    },
    {
      "anonymous": false,
      "inputs": [
        {
          "indexed": true,
          "internalType": "bytes32",
          "name": "role",
          "type": "bytes32"
        },
        {
          "indexed": true,
          "internalType": "bytes32",
          "name": "previousAdminRole",
          "type": "bytes32"
        },
        {
          "indexed": true,
          "internalType": "bytes32",
          "name": "newAdminRole",
          "type": "bytes32"
        }
      ],
      "name": "RoleAdminChanged",
      "type": "event"
    },
    {
      "anonymous": false,
      "inputs": [
        {
          "indexed": true,
          "internalType": "bytes32",
          "name": "role",
          "type": "bytes32"
        },
        {
          "indexed": true,
          "internalType": "address",
          "name": "account",
          "type": "address"
        },
        {
          "indexed": true,
          "internalType": "address",
          "name": "sender",
          "type": "address"
        }
      ],
      "name": "RoleGranted",
      "type": "event"
    },
    {
      "anonymous": false,
      "inputs": [
        {
          "indexed": true,
          "internalType": "bytes32",
          "name": "role",
          "type": "bytes32"
        },
        {
          "indexed": true,
          "internalType": "address",
          "name": "account",
          "type": "address"
        },
        {
          "indexed": true,
          "internalType": "address",
          "name": "sender",
          "type": "address"
        }
      ],
      "name": "RoleRevoked",
      "type": "event"
    },
    {
      "anonymous": false,
      "inputs": [
        {
          "indexed": true,
          "internalType": "address",
          "name": "from",
          "type": "address"
        },
        {
          "indexed": true,
          "internalType": "address",
          "name": "to",
          "type": "address"
        },
        {
          "indexed": true,
          "internalType": "uint256",
          "name": "tokenId",
          "type": "uint256"
        }
      ],
      "name": "Transfer",
      "type": "event"
    },
    {
      "inputs": [],
      "name": "DEFAULT_ADMIN_ROLE",
      "outputs": [
        {
          "internalType": "bytes32",
          "name": "",
          "type": "bytes32"
        }
      ],
      "stateMutability": "view",
      "type": "function"
    },
    {
      "inputs": [],
      "name": "LEADER_ROLE",
      "outputs": [
        {
          "internalType": "bytes32",
          "name": "",
          "type": "bytes32"
        }
      ],
      "stateMutability": "view",
      "type": "function"
    },
    {
      "inputs": [],
      "name": "MEMBER_ROLE",
      "outputs": [
        {
          "internalType": "bytes32",
          "name": "",
          "type": "bytes32"
        }
      ],
      "stateMutability": "view",
      "type": "function"
    },
    {
      "inputs": [
        {
          "internalType": "address",
          "name": "to",
          "type": "address"
        },
        {
          "internalType": "uint256",
          "name": "tokenId",
          "type": "uint256"
        }
      ],
      "name": "approve",
      "outputs": [],
      "stateMutability": "nonpayable",
      "type": "function"
    },
    {
      "inputs": [
        {
          "internalType": "address",
          "name": "owner",
          "type": "address"
        }
      ],
      "name": "balanceOf",
      "outputs": [
        {
          "internalType": "uint256",
          "name": "",
          "type": "uint256"
        }
      ],
      "stateMutability": "view",
      "type": "function"
    },
    {
      "inputs": [
        {
          "internalType": "address",
          "name": "account",
          "type": "address"
        }
      ],
      "name": "checkAddressLeader",
      "outputs": [
        {
          "internalType": "bool",
          "name": "",
          "type": "bool"
        }
      ],
      "stateMutability": "view",
      "type": "function"
    },
    {
      "inputs": [
        {
          "internalType": "address",
          "name": "account",
          "type": "address"
        }
      ],
      "name": "checkAddressMember",
      "outputs": [
        {
          "internalType": "bool",
          "name": "",
          "type": "bool"
        }
      ],
      "stateMutability": "view",
      "type": "function"
    },
    {
      "inputs": [],
      "name": "getActivity",
      "outputs": [],
      "stateMutability": "nonpayable",
      "type": "function"
    },
    {
      "inputs": [
        {
          "internalType": "uint256",
          "name": "tokenId",
          "type": "uint256"
        }
      ],
      "name": "getApproved",
      "outputs": [
        {
          "internalType": "address",
          "name": "",
          "type": "address"
        }
      ],
      "stateMutability": "view",
      "type": "function"
    },
    {
      "inputs": [
        {
          "internalType": "bytes32",
          "name": "role",
          "type": "bytes32"
        }
      ],
      "name": "getRoleAdmin",
      "outputs": [
        {
          "internalType": "bytes32",
          "name": "",
          "type": "bytes32"
        }
      ],
      "stateMutability": "view",
      "type": "function"
    },
    {
      "inputs": [
        {
          "internalType": "bytes32",
          "name": "role",
          "type": "bytes32"
        },
        {
          "internalType": "address",
          "name": "account",
          "type": "address"
        }
      ],
      "name": "grantRole",
      "outputs": [],
      "stateMutability": "nonpayable",
      "type": "function"
    },
    {
      "inputs": [
        {
          "internalType": "bytes32",
          "name": "role",
          "type": "bytes32"
        },
        {
          "internalType": "address",
          "name": "account",
          "type": "address"
        }
      ],
      "name": "hasRole",
      "outputs": [
        {
          "internalType": "bool",
          "name": "",
          "type": "bool"
        }
      ],
      "stateMutability": "view",
      "type": "function"
    },
    {
      "inputs": [],
      "name": "idCounter",
      "outputs": [
        {
          "internalType": "uint256",
          "name": "",
          "type": "uint256"
        }
      ],
      "stateMutability": "view",
      "type": "function"
    },
    {
      "inputs": [
        {
          "internalType": "address",
          "name": "owner",
          "type": "address"
        },
        {
          "internalType": "address",
          "name": "operator",
          "type": "address"
        }
      ],
      "name": "isApprovedForAll",
      "outputs": [
        {
          "internalType": "bool",
          "name": "",
          "type": "bool"
        }
      ],
      "stateMutability": "view",
      "type": "function"
    },
    {
      "inputs": [],
      "name": "lastMinted",
      "outputs": [
        {
          "internalType": "string",
          "name": "",
          "type": "string"
        }
      ],
      "stateMutability": "view",
      "type": "function"
    },
    {
      "inputs": [],
      "name": "name",
      "outputs": [
        {
          "internalType": "string",
          "name": "",
          "type": "string"
        }
      ],
      "stateMutability": "view",
      "type": "function"
    },
    {
      "inputs": [
        {
          "internalType": "address",
          "name": "",
          "type": "address"
        },
        {
          "internalType": "address",
          "name": "",
          "type": "address"
        },
        {
          "internalType": "uint256",
          "name": "",
          "type": "uint256"
        },
        {
          "internalType": "bytes",
          "name": "",
          "type": "bytes"
        }
      ],
      "name": "onERC721Received",
      "outputs": [
        {
          "internalType": "bytes4",
          "name": "",
          "type": "bytes4"
        }
      ],
      "stateMutability": "pure",
      "type": "function"
    },
    {
      "inputs": [],
      "name": "owner",
      "outputs": [
        {
          "internalType": "address",
          "name": "",
          "type": "address"
        }
      ],
      "stateMutability": "view",
      "type": "function"
    },
    {
      "inputs": [
        {
          "internalType": "uint256",
          "name": "tokenId",
          "type": "uint256"
        }
      ],
      "name": "ownerOf",
      "outputs": [
        {
          "internalType": "address",
          "name": "",
          "type": "address"
        }
      ],
      "stateMutability": "view",
      "type": "function"
    },
    {
      "inputs": [
        {
          "internalType": "bytes32",
          "name": "role",
          "type": "bytes32"
        },
        {
          "internalType": "address",
          "name": "account",
          "type": "address"
        }
      ],
      "name": "renounceRole",
      "outputs": [],
      "stateMutability": "nonpayable",
      "type": "function"
    },
    {
      "inputs": [
        {
          "internalType": "bytes32",
          "name": "role",
          "type": "bytes32"
        },
        {
          "internalType": "address",
          "name": "account",
          "type": "address"
        }
      ],
      "name": "revokeRole",
      "outputs": [],
      "stateMutability": "nonpayable",
      "type": "function"
    },
    {
      "inputs": [
        {
          "internalType": "address",
          "name": "to",
          "type": "address"
        },
        {
          "internalType": "string",
          "name": "ipfsUri",
          "type": "string"
        }
      ],
      "name": "safeMint",
      "outputs": [],
      "stateMutability": "nonpayable",
      "type": "function"
    },
    {
      "inputs": [
        {
          "internalType": "address",
          "name": "from",
          "type": "address"
        },
        {
          "internalType": "address",
          "name": "to",
          "type": "address"
        },
        {
          "internalType": "uint256",
          "name": "tokenId",
          "type": "uint256"
        }
      ],
      "name": "safeTransferFrom",
      "outputs": [],
      "stateMutability": "nonpayable",
      "type": "function"
    },
    {
      "inputs": [
        {
          "internalType": "address",
          "name": "from",
          "type": "address"
        },
        {
          "internalType": "address",
          "name": "to",
          "type": "address"
        },
        {
          "internalType": "uint256",
          "name": "tokenId",
          "type": "uint256"
        },
        {
          "internalType": "bytes",
          "name": "data",
          "type": "bytes"
        }
      ],
      "name": "safeTransferFrom",
      "outputs": [],
      "stateMutability": "nonpayable",
      "type": "function"
    },
    {
      "inputs": [
        {
          "internalType": "address",
          "name": "operator",
          "type": "address"
        },
        {
          "internalType": "bool",
          "name": "approved",
          "type": "bool"
        }
      ],
      "name": "setApprovalForAll",
      "outputs": [],
      "stateMutability": "nonpayable",
      "type": "function"
    },
    {
      "inputs": [
        {
          "internalType": "bytes4",
          "name": "interfaceId",
          "type": "bytes4"
        }
      ],
      "name": "supportsInterface",
      "outputs": [
        {
          "internalType": "bool",
          "name": "",
          "type": "bool"
        }
      ],
      "stateMutability": "view",
      "type": "function"
    },
    {
      "inputs": [],
      "name": "symbol",
      "outputs": [
        {
          "internalType": "string",
          "name": "",
          "type": "string"
        }
      ],
      "stateMutability": "view",
      "type": "function"
    },
    {
      "inputs": [],
      "name": "tokenIdCounter",
      "outputs": [
        {
          "internalType": "uint256",
          "name": "_value",
          "type": "uint256"
        }
      ],
      "stateMutability": "view",
      "type": "function"
    },
    {
      "inputs": [
        {
          "internalType": "uint256",
          "name": "tokenId",
          "type": "uint256"
        }
      ],
      "name": "tokenURI",
      "outputs": [
        {
          "internalType": "string",
          "name": "",
          "type": "string"
        }
      ],
      "stateMutability": "view",
      "type": "function"
    },
    {
      "inputs": [
        {
          "internalType": "address",
          "name": "from",
          "type": "address"
        },
        {
          "internalType": "address",
          "name": "to",
          "type": "address"
        },
        {
          "internalType": "uint256",
          "name": "tokenId",
          "type": "uint256"
        }
      ],
      "name": "transferFrom",
      "outputs": [],
      "stateMutability": "nonpayable",
      "type": "function"
    }
  ],
  "bytecode": "0x608060405260405162003f8b38038062003f8b833981810160405281019062000029919062000491565b818181600090805190602001906200004392919062000244565b5080600190805190602001906200005c92919062000244565b50505033600960006101000a81548173ffffffffffffffffffffffffffffffffffffffff021916908373ffffffffffffffffffffffffffffffffffffffff160217905550620000d76000801b600960009054906101000a900473ffffffffffffffffffffffffffffffffffffffff16620000df60201b60201c565b50506200057b565b620000f18282620001d160201b60201c565b620001cd5760016007600084815260200190815260200160002060000160008373ffffffffffffffffffffffffffffffffffffffff1673ffffffffffffffffffffffffffffffffffffffff16815260200190815260200160002060006101000a81548160ff021916908315150217905550620001726200023c60201b60201c565b73ffffffffffffffffffffffffffffffffffffffff168173ffffffffffffffffffffffffffffffffffffffff16837f2f8788117e7eff1d82e926ec794901d17c78024a50270940304540a733656f0d60405160405180910390a45b5050565b60006007600084815260200190815260200160002060000160008373ffffffffffffffffffffffffffffffffffffffff1673ffffffffffffffffffffffffffffffffffffffff16815260200190815260200160002060009054906101000a900460ff16905092915050565b600033905090565b828054620002529062000545565b90600052602060002090601f016020900481019282620002765760008555620002c2565b82601f106200029157805160ff1916838001178555620002c2565b82800160010185558215620002c2579182015b82811115620002c1578251825591602001919060010190620002a4565b5b509050620002d19190620002d5565b5090565b5b80821115620002f0576000816000905550600101620002d6565b5090565b6000604051905090565b600080fd5b600080fd5b600080fd5b600080fd5b6000601f19601f8301169050919050565b7f4e487b7100000000000000000000000000000000000000000000000000000000600052604160045260246000fd5b6200035d8262000312565b810181811067ffffffffffffffff821117156200037f576200037e62000323565b5b80604052505050565b600062000394620002f4565b9050620003a2828262000352565b919050565b600067ffffffffffffffff821115620003c557620003c462000323565b5b620003d08262000312565b9050602081019050919050565b60005b83811015620003fd578082015181840152602081019050620003e0565b838111156200040d576000848401525b50505050565b60006200042a6200042484620003a7565b62000388565b9050828152602081018484840111156200044957620004486200030d565b5b62000456848285620003dd565b509392505050565b600082601f83011262000476576200047562000308565b5b81516200048884826020860162000413565b91505092915050565b60008060408385031215620004ab57620004aa620002fe565b5b600083015167ffffffffffffffff811115620004cc57620004cb62000303565b5b620004da858286016200045e565b925050602083015167ffffffffffffffff811115620004fe57620004fd62000303565b5b6200050c858286016200045e565b9150509250929050565b7f4e487b7100000000000000000000000000000000000000000000000000000000600052602260045260246000fd5b600060028204905060018216806200055e57607f821691505b6020821081141562000575576200057462000516565b5b50919050565b613a00806200058b6000396000f3fe608060405234801561001057600080fd5b50600436106101da5760003560e01c806391d1485411610104578063b88d4fde116100a2578063d204c45e11610071578063d204c45e1461057d578063d547741f14610599578063e985e9c5146105b5578063eb08ab28146105e5576101da565b8063b88d4fde14610509578063bbc19ab014610525578063c87b56dd14610543578063caf51bda14610573576101da565b8063a10f469e116100de578063a10f469e14610493578063a217fddf146104b1578063a22cb465146104cf578063a2e4aff0146104eb576101da565b806391d148541461042757806395d89b411461045757806398bdf6f514610475576101da565b8063248a9ca31161017c5780636352211e1161014b5780636352211e1461037957806370a08231146103a95780638da5cb5b146103d9578063906322c9146103f7576101da565b8063248a9ca3146102f55780632f2ff15d1461032557806336568abe1461034157806342842e0e1461035d576101da565b8063095ea7b3116101b8578063095ea7b31461025d578063150b7a02146102795780631d1b29bd146102a957806323b872dd146102d9576101da565b806301ffc9a7146101df57806306fdde031461020f578063081812fc1461022d575b600080fd5b6101f960048036038101906101f49190612648565b610603565b6040516102069190612690565b60405180910390f35b610217610615565b6040516102249190612744565b60405180910390f35b6102476004803603810190610242919061279c565b6106a7565b604051610254919061280a565b60405180910390f35b61027760048036038101906102729190612851565b6106ed565b005b610293600480360381019061028e91906128f6565b610805565b6040516102a0919061298d565b60405180910390f35b6102c360048036038101906102be91906129a8565b61081a565b6040516102d09190612690565b60405180910390f35b6102f360048036038101906102ee91906129d5565b61084d565b005b61030f600480360381019061030a9190612a5e565b6108cb565b60405161031c9190612a9a565b60405180910390f35b61033f600480360381019061033a9190612ab5565b6108eb565b005b61035b60048036038101906103569190612ab5565b61090f565b005b610377600480360381019061037291906129d5565b610992565b005b610393600480360381019061038e919061279c565b6109b2565b6040516103a0919061280a565b60405180910390f35b6103c360048036038101906103be91906129a8565b610a39565b6040516103d09190612b04565b60405180910390f35b6103e1610af1565b6040516103ee919061280a565b60405180910390f35b610411600480360381019061040c91906129a8565b610b17565b60405161041e9190612690565b60405180910390f35b610441600480360381019061043c9190612ab5565b610b4a565b60405161044e9190612690565b60405180910390f35b61045f610bb5565b60405161046c9190612744565b60405180910390f35b61047d610c47565b60405161048a9190612b04565b60405180910390f35b61049b610c53565b6040516104a89190612a9a565b60405180910390f35b6104b9610c77565b6040516104c69190612a9a565b60405180910390f35b6104e960048036038101906104e49190612b4b565b610c7e565b005b6104f3610c94565b6040516105009190612a9a565b60405180910390f35b610523600480360381019061051e9190612cbb565b610cb8565b005b61052d610d1a565b60405161053a9190612744565b60405180910390f35b61055d6004803603810190610558919061279c565b610d81565b60405161056a9190612744565b60405180910390f35b61057b610d93565b005b61059760048036038101906105929190612ddf565b610dc0565b005b6105b360048036038101906105ae9190612ab5565b610e54565b005b6105cf60048036038101906105ca9190612e3b565b610e75565b6040516105dc9190612690565b60405180910390f35b6105ed610f09565b6040516105fa9190612b04565b60405180910390f35b600061060e82610f1a565b9050919050565b60606000805461062490612eaa565b80601f016020809104026020016040519081016040528092919081815260200182805461065090612eaa565b801561069d5780601f106106725761010080835404028352916020019161069d565b820191906000526020600020905b81548152906001019060200180831161068057829003601f168201915b5050505050905090565b60006106b282610f94565b6004600083815260200190815260200160002060009054906101000a900473ffffffffffffffffffffffffffffffffffffffff169050919050565b60006106f8826109b2565b90508073ffffffffffffffffffffffffffffffffffffffff168373ffffffffffffffffffffffffffffffffffffffff161415610769576040517f08c379a000000000000000000000000000000000000000000000000000000000815260040161076090612f4e565b60405180910390fd5b8073ffffffffffffffffffffffffffffffffffffffff16610788610fdf565b73ffffffffffffffffffffffffffffffffffffffff1614806107b757506107b6816107b1610fdf565b610e75565b5b6107f6576040517f08c379a00000000000000000000000000000000000000000000000000000000081526004016107ed90612fe0565b60405180910390fd5b6108008383610fe7565b505050565b600063150b7a0260e01b905095945050505050565b60006108467fa870f1a91ab66a18174ae285449a007bea36a28441e5b44a847deb90f83e86eb83610b4a565b9050919050565b7fa870f1a91ab66a18174ae285449a007bea36a28441e5b44a847deb90f83e86eb610877816110a0565b610882836001610c7e565b61088d8484846110b4565b7ff6424459656d156a32411176601baac0d0f3e7ffa29398e7cbfbab916565f17260016040516108bd9190612690565b60405180910390a150505050565b600060076000838152602001908152602001600020600101549050919050565b6108f76000801b6108cb565b610900816110a0565b61090a83836113ae565b505050565b610917610fdf565b73ffffffffffffffffffffffffffffffffffffffff168173ffffffffffffffffffffffffffffffffffffffff1614610984576040517f08c379a000000000000000000000000000000000000000000000000000000000815260040161097b90613072565b60405180910390fd5b61098e828261148f565b5050565b6109ad83838360405180602001604052806000815250610cb8565b505050565b6000806109be83611571565b9050600073ffffffffffffffffffffffffffffffffffffffff168173ffffffffffffffffffffffffffffffffffffffff161415610a30576040517f08c379a0000000000000000000000000000000000000000000000000000000008152600401610a27906130de565b60405180910390fd5b80915050919050565b60008073ffffffffffffffffffffffffffffffffffffffff168273ffffffffffffffffffffffffffffffffffffffff161415610aaa576040517f08c379a0000000000000000000000000000000000000000000000000000000008152600401610aa190613170565b60405180910390fd5b600360008373ffffffffffffffffffffffffffffffffffffffff1673ffffffffffffffffffffffffffffffffffffffff168152602001908152602001600020549050919050565b600960009054906101000a900473ffffffffffffffffffffffffffffffffffffffff1681565b6000610b437f829b824e2329e205435d941c9f13baf578548505283d29261236d8e6596d463683610b4a565b9050919050565b60006007600084815260200190815260200160002060000160008373ffffffffffffffffffffffffffffffffffffffff1673ffffffffffffffffffffffffffffffffffffffff16815260200190815260200160002060009054906101000a900460ff16905092915050565b606060018054610bc490612eaa565b80601f0160208091040260200160405190810160405280929190818152602001828054610bf090612eaa565b8015610c3d5780601f10610c1257610100808354040283529160200191610c3d565b820191906000526020600020905b815481529060010190602001808311610c2057829003601f168201915b5050505050905090565b60088060000154905081565b7f829b824e2329e205435d941c9f13baf578548505283d29261236d8e6596d463681565b6000801b81565b610c90610c89610fdf565b83836115ae565b5050565b7fa870f1a91ab66a18174ae285449a007bea36a28441e5b44a847deb90f83e86eb81565b610cc9610cc3610fdf565b8361171b565b610d08576040517f08c379a0000000000000000000000000000000000000000000000000000000008152600401610cff90613202565b60405180910390fd5b610d14848484846117b0565b50505050565b60606000610d28600861180c565b90506000811415610d4b5760405180602001604052806000815250915050610d7e565b6000811115610d7157610d69600182610d649190613251565b610d81565b915050610d7e565b610d7a81610d81565b9150505b90565b6060610d8c8261181a565b9050919050565b7f829b824e2329e205435d941c9f13baf578548505283d29261236d8e6596d4636610dbd816110a0565b50565b7fa870f1a91ab66a18174ae285449a007bea36a28441e5b44a847deb90f83e86eb610dea816110a0565b6000610df6600861180c565b9050610e02600861192d565b610e0c8482611943565b610e168184611961565b7f20ca71800840a1730c265dcac5f68ec9daffe929561a6ed11f49ada5e4f7a31a6001604051610e469190612690565b60405180910390a150505050565b610e5d826108cb565b610e66816110a0565b610e70838361148f565b505050565b6000600560008473ffffffffffffffffffffffffffffffffffffffff1673ffffffffffffffffffffffffffffffffffffffff16815260200190815260200160002060008373ffffffffffffffffffffffffffffffffffffffff1673ffffffffffffffffffffffffffffffffffffffff16815260200190815260200160002060009054906101000a900460ff16905092915050565b6000610f15600861180c565b905090565b60007f7965db0b000000000000000000000000000000000000000000000000000000007bffffffffffffffffffffffffffffffffffffffffffffffffffffffff1916827bffffffffffffffffffffffffffffffffffffffffffffffffffffffff19161480610f8d5750610f8c826119d5565b5b9050919050565b610f9d81611ab7565b610fdc576040517f08c379a0000000000000000000000000000000000000000000000000000000008152600401610fd3906130de565b60405180910390fd5b50565b600033905090565b816004600083815260200190815260200160002060006101000a81548173ffffffffffffffffffffffffffffffffffffffff021916908373ffffffffffffffffffffffffffffffffffffffff160217905550808273ffffffffffffffffffffffffffffffffffffffff1661105a836109b2565b73ffffffffffffffffffffffffffffffffffffffff167f8c5be1e5ebec7d5bd14f71427d1e84f3dd0314c0f7b2291e5b200ac8c7c3b92560405160405180910390a45050565b6110b1816110ac610fdf565b611af8565b50565b8273ffffffffffffffffffffffffffffffffffffffff166110d4826109b2565b73ffffffffffffffffffffffffffffffffffffffff161461112a576040517f08c379a0000000000000000000000000000000000000000000000000000000008152600401611121906132f7565b60405180910390fd5b600073ffffffffffffffffffffffffffffffffffffffff168273ffffffffffffffffffffffffffffffffffffffff16141561119a576040517f08c379a000000000000000000000000000000000000000000000000000000000815260040161119190613389565b60405180910390fd5b6111a78383836001611b7d565b8273ffffffffffffffffffffffffffffffffffffffff166111c7826109b2565b73ffffffffffffffffffffffffffffffffffffffff161461121d576040517f08c379a0000000000000000000000000000000000000000000000000000000008152600401611214906132f7565b60405180910390fd5b6004600082815260200190815260200160002060006101000a81549073ffffffffffffffffffffffffffffffffffffffff02191690556001600360008573ffffffffffffffffffffffffffffffffffffffff1673ffffffffffffffffffffffffffffffffffffffff168152602001908152602001600020600082825403925050819055506001600360008473ffffffffffffffffffffffffffffffffffffffff1673ffffffffffffffffffffffffffffffffffffffff16815260200190815260200160002060008282540192505081905550816002600083815260200190815260200160002060006101000a81548173ffffffffffffffffffffffffffffffffffffffff021916908373ffffffffffffffffffffffffffffffffffffffff160217905550808273ffffffffffffffffffffffffffffffffffffffff168473ffffffffffffffffffffffffffffffffffffffff167fddf252ad1be2c89b69c2b068fc378daa952ba7f163c4a11628f55a4df523b3ef60405160405180910390a46113a98383836001611b83565b505050565b6113b88282610b4a565b61148b5760016007600084815260200190815260200160002060000160008373ffffffffffffffffffffffffffffffffffffffff1673ffffffffffffffffffffffffffffffffffffffff16815260200190815260200160002060006101000a81548160ff021916908315150217905550611430610fdf565b73ffffffffffffffffffffffffffffffffffffffff168173ffffffffffffffffffffffffffffffffffffffff16837f2f8788117e7eff1d82e926ec794901d17c78024a50270940304540a733656f0d60405160405180910390a45b5050565b6114998282610b4a565b1561156d5760006007600084815260200190815260200160002060000160008373ffffffffffffffffffffffffffffffffffffffff1673ffffffffffffffffffffffffffffffffffffffff16815260200190815260200160002060006101000a81548160ff021916908315150217905550611512610fdf565b73ffffffffffffffffffffffffffffffffffffffff168173ffffffffffffffffffffffffffffffffffffffff16837ff6391f5c32d9c69d2a47ea670b442974b53935d1edc7fd64eb21e047a839171b60405160405180910390a45b5050565b60006002600083815260200190815260200160002060009054906101000a900473ffffffffffffffffffffffffffffffffffffffff169050919050565b8173ffffffffffffffffffffffffffffffffffffffff168373ffffffffffffffffffffffffffffffffffffffff16141561161d576040517f08c379a0000000000000000000000000000000000000000000000000000000008152600401611614906133f5565b60405180910390fd5b80600560008573ffffffffffffffffffffffffffffffffffffffff1673ffffffffffffffffffffffffffffffffffffffff16815260200190815260200160002060008473ffffffffffffffffffffffffffffffffffffffff1673ffffffffffffffffffffffffffffffffffffffff16815260200190815260200160002060006101000a81548160ff0219169083151502179055508173ffffffffffffffffffffffffffffffffffffffff168373ffffffffffffffffffffffffffffffffffffffff167f17307eab39ab6107e8899845ad3d59bd9653f200f220920489ca2b5937696c318360405161170e9190612690565b60405180910390a3505050565b600080611727836109b2565b90508073ffffffffffffffffffffffffffffffffffffffff168473ffffffffffffffffffffffffffffffffffffffff16148061176957506117688185610e75565b5b806117a757508373ffffffffffffffffffffffffffffffffffffffff1661178f846106a7565b73ffffffffffffffffffffffffffffffffffffffff16145b91505092915050565b6117bb8484846110b4565b6117c784848484611b89565b611806576040517f08c379a00000000000000000000000000000000000000000000000000000000081526004016117fd90613487565b60405180910390fd5b50505050565b600081600001549050919050565b606061182582610f94565b600060066000848152602001908152602001600020805461184590612eaa565b80601f016020809104026020016040519081016040528092919081815260200182805461187190612eaa565b80156118be5780601f10611893576101008083540402835291602001916118be565b820191906000526020600020905b8154815290600101906020018083116118a157829003601f168201915b5050505050905060006118cf611d20565b90506000815114156118e5578192505050611928565b60008251111561191a5780826040516020016119029291906134e3565b60405160208183030381529060405292505050611928565b61192384611d37565b925050505b919050565b6001816000016000828254019250508190555050565b61195d828260405180602001604052806000815250611d9f565b5050565b61196a82611ab7565b6119a9576040517f08c379a00000000000000000000000000000000000000000000000000000000081526004016119a090613579565b60405180910390fd5b806006600084815260200190815260200160002090805190602001906119d0929190612539565b505050565b60007f80ac58cd000000000000000000000000000000000000000000000000000000007bffffffffffffffffffffffffffffffffffffffffffffffffffffffff1916827bffffffffffffffffffffffffffffffffffffffffffffffffffffffff19161480611aa057507f5b5e139f000000000000000000000000000000000000000000000000000000007bffffffffffffffffffffffffffffffffffffffffffffffffffffffff1916827bffffffffffffffffffffffffffffffffffffffffffffffffffffffff1916145b80611ab05750611aaf82611dfa565b5b9050919050565b60008073ffffffffffffffffffffffffffffffffffffffff16611ad983611571565b73ffffffffffffffffffffffffffffffffffffffff1614159050919050565b611b028282610b4a565b611b7957611b0f81611e64565b611b1d8360001c6020611e91565b604051602001611b2e929190613631565b6040516020818303038152906040526040517f08c379a0000000000000000000000000000000000000000000000000000000008152600401611b709190612744565b60405180910390fd5b5050565b50505050565b50505050565b6000611baa8473ffffffffffffffffffffffffffffffffffffffff166120cd565b15611d13578373ffffffffffffffffffffffffffffffffffffffff1663150b7a02611bd3610fdf565b8786866040518563ffffffff1660e01b8152600401611bf594939291906136c0565b602060405180830381600087803b158015611c0f57600080fd5b505af1925050508015611c4057506040513d601f19601f82011682018060405250810190611c3d9190613721565b60015b611cc3573d8060008114611c70576040519150601f19603f3d011682016040523d82523d6000602084013e611c75565b606091505b50600081511415611cbb576040517f08c379a0000000000000000000000000000000000000000000000000000000008152600401611cb290613487565b60405180910390fd5b805181602001fd5b63150b7a0260e01b7bffffffffffffffffffffffffffffffffffffffffffffffffffffffff1916817bffffffffffffffffffffffffffffffffffffffffffffffffffffffff191614915050611d18565b600190505b949350505050565b606060405180602001604052806000815250905090565b6060611d4282610f94565b6000611d4c611d20565b90506000815111611d6c5760405180602001604052806000815250611d97565b80611d76846120f0565b604051602001611d879291906134e3565b6040516020818303038152906040525b915050919050565b611da983836121c8565b611db66000848484611b89565b611df5576040517f08c379a0000000000000000000000000000000000000000000000000000000008152600401611dec90613487565b60405180910390fd5b505050565b60007f01ffc9a7000000000000000000000000000000000000000000000000000000007bffffffffffffffffffffffffffffffffffffffffffffffffffffffff1916827bffffffffffffffffffffffffffffffffffffffffffffffffffffffff1916149050919050565b6060611e8a8273ffffffffffffffffffffffffffffffffffffffff16601460ff16611e91565b9050919050565b606060006002836002611ea4919061374e565b611eae91906137a8565b67ffffffffffffffff811115611ec757611ec6612b90565b5b6040519080825280601f01601f191660200182016040528015611ef95781602001600182028036833780820191505090505b5090507f300000000000000000000000000000000000000000000000000000000000000081600081518110611f3157611f306137fe565b5b60200101907effffffffffffffffffffffffffffffffffffffffffffffffffffffffffffff1916908160001a9053507f780000000000000000000000000000000000000000000000000000000000000081600181518110611f9557611f946137fe565b5b60200101907effffffffffffffffffffffffffffffffffffffffffffffffffffffffffffff1916908160001a90535060006001846002611fd5919061374e565b611fdf91906137a8565b90505b600181111561207f577f3031323334353637383961626364656600000000000000000000000000000000600f861660108110612021576120206137fe565b5b1a60f81b828281518110612038576120376137fe565b5b60200101907effffffffffffffffffffffffffffffffffffffffffffffffffffffffffffff1916908160001a905350600485901c9450806120789061382d565b9050611fe2565b50600084146120c3576040517f08c379a00000000000000000000000000000000000000000000000000000000081526004016120ba906138a3565b60405180910390fd5b8091505092915050565b6000808273ffffffffffffffffffffffffffffffffffffffff163b119050919050565b6060600060016120ff846123e6565b01905060008167ffffffffffffffff81111561211e5761211d612b90565b5b6040519080825280601f01601f1916602001820160405280156121505781602001600182028036833780820191505090505b509050600082602001820190505b6001156121bd578080600190039150507f3031323334353637383961626364656600000000000000000000000000000000600a86061a8153600a85816121a7576121a66138c3565b5b04945060008514156121b8576121bd565b61215e565b819350505050919050565b600073ffffffffffffffffffffffffffffffffffffffff168273ffffffffffffffffffffffffffffffffffffffff161415612238576040517f08c379a000000000000000000000000000000000000000000000000000000000815260040161222f9061393e565b60405180910390fd5b61224181611ab7565b15612281576040517f08c379a0000000000000000000000000000000000000000000000000000000008152600401612278906139aa565b60405180910390fd5b61228f600083836001611b7d565b61229881611ab7565b156122d8576040517f08c379a00000000000000000000000000000000000000000000000000000000081526004016122cf906139aa565b60405180910390fd5b6001600360008473ffffffffffffffffffffffffffffffffffffffff1673ffffffffffffffffffffffffffffffffffffffff16815260200190815260200160002060008282540192505081905550816002600083815260200190815260200160002060006101000a81548173ffffffffffffffffffffffffffffffffffffffff021916908373ffffffffffffffffffffffffffffffffffffffff160217905550808273ffffffffffffffffffffffffffffffffffffffff16600073ffffffffffffffffffffffffffffffffffffffff167fddf252ad1be2c89b69c2b068fc378daa952ba7f163c4a11628f55a4df523b3ef60405160405180910390a46123e2600083836001611b83565b5050565b600080600090507a184f03e93ff9f4daa797ed6e38ed64bf6a1f0100000000000000008310612444577a184f03e93ff9f4daa797ed6e38ed64bf6a1f010000000000000000838161243a576124396138c3565b5b0492506040810190505b6d04ee2d6d415b85acef81000000008310612481576d04ee2d6d415b85acef81000000008381612477576124766138c3565b5b0492506020810190505b662386f26fc1000083106124b057662386f26fc1000083816124a6576124a56138c3565b5b0492506010810190505b6305f5e10083106124d9576305f5e10083816124cf576124ce6138c3565b5b0492506008810190505b61271083106124fe5761271083816124f4576124f36138c3565b5b0492506004810190505b606483106125215760648381612517576125166138c3565b5b0492506002810190505b600a8310612530576001810190505b80915050919050565b82805461254590612eaa565b90600052602060002090601f01602090048101928261256757600085556125ae565b82601f1061258057805160ff19168380011785556125ae565b828001600101855582156125ae579182015b828111156125ad578251825591602001919060010190612592565b5b5090506125bb91906125bf565b5090565b5b808211156125d85760008160009055506001016125c0565b5090565b6000604051905090565b600080fd5b600080fd5b60007fffffffff0000000000000000000000000000000000000000000000000000000082169050919050565b612625816125f0565b811461263057600080fd5b50565b6000813590506126428161261c565b92915050565b60006020828403121561265e5761265d6125e6565b5b600061266c84828501612633565b91505092915050565b60008115159050919050565b61268a81612675565b82525050565b60006020820190506126a56000830184612681565b92915050565b600081519050919050565b600082825260208201905092915050565b60005b838110156126e55780820151818401526020810190506126ca565b838111156126f4576000848401525b50505050565b6000601f19601f8301169050919050565b6000612716826126ab565b61272081856126b6565b93506127308185602086016126c7565b612739816126fa565b840191505092915050565b6000602082019050818103600083015261275e818461270b565b905092915050565b6000819050919050565b61277981612766565b811461278457600080fd5b50565b60008135905061279681612770565b92915050565b6000602082840312156127b2576127b16125e6565b5b60006127c084828501612787565b91505092915050565b600073ffffffffffffffffffffffffffffffffffffffff82169050919050565b60006127f4826127c9565b9050919050565b612804816127e9565b82525050565b600060208201905061281f60008301846127fb565b92915050565b61282e816127e9565b811461283957600080fd5b50565b60008135905061284b81612825565b92915050565b60008060408385031215612868576128676125e6565b5b60006128768582860161283c565b925050602061288785828601612787565b9150509250929050565b600080fd5b600080fd5b600080fd5b60008083601f8401126128b6576128b5612891565b5b8235905067ffffffffffffffff8111156128d3576128d2612896565b5b6020830191508360018202830111156128ef576128ee61289b565b5b9250929050565b600080600080600060808688031215612912576129116125e6565b5b60006129208882890161283c565b95505060206129318882890161283c565b945050604061294288828901612787565b935050606086013567ffffffffffffffff811115612963576129626125eb565b5b61296f888289016128a0565b92509250509295509295909350565b612987816125f0565b82525050565b60006020820190506129a2600083018461297e565b92915050565b6000602082840312156129be576129bd6125e6565b5b60006129cc8482850161283c565b91505092915050565b6000806000606084860312156129ee576129ed6125e6565b5b60006129fc8682870161283c565b9350506020612a0d8682870161283c565b9250506040612a1e86828701612787565b9150509250925092565b6000819050919050565b612a3b81612a28565b8114612a4657600080fd5b50565b600081359050612a5881612a32565b92915050565b600060208284031215612a7457612a736125e6565b5b6000612a8284828501612a49565b91505092915050565b612a9481612a28565b82525050565b6000602082019050612aaf6000830184612a8b565b92915050565b60008060408385031215612acc57612acb6125e6565b5b6000612ada85828601612a49565b9250506020612aeb8582860161283c565b9150509250929050565b612afe81612766565b82525050565b6000602082019050612b196000830184612af5565b92915050565b612b2881612675565b8114612b3357600080fd5b50565b600081359050612b4581612b1f565b92915050565b60008060408385031215612b6257612b616125e6565b5b6000612b708582860161283c565b9250506020612b8185828601612b36565b9150509250929050565b600080fd5b7f4e487b7100000000000000000000000000000000000000000000000000000000600052604160045260246000fd5b612bc8826126fa565b810181811067ffffffffffffffff82111715612be757612be6612b90565b5b80604052505050565b6000612bfa6125dc565b9050612c068282612bbf565b919050565b600067ffffffffffffffff821115612c2657612c25612b90565b5b612c2f826126fa565b9050602081019050919050565b82818337600083830152505050565b6000612c5e612c5984612c0b565b612bf0565b905082815260208101848484011115612c7a57612c79612b8b565b5b612c85848285612c3c565b509392505050565b600082601f830112612ca257612ca1612891565b5b8135612cb2848260208601612c4b565b91505092915050565b60008060008060808587031215612cd557612cd46125e6565b5b6000612ce38782880161283c565b9450506020612cf48782880161283c565b9350506040612d0587828801612787565b925050606085013567ffffffffffffffff811115612d2657612d256125eb565b5b612d3287828801612c8d565b91505092959194509250565b600067ffffffffffffffff821115612d5957612d58612b90565b5b612d62826126fa565b9050602081019050919050565b6000612d82612d7d84612d3e565b612bf0565b905082815260208101848484011115612d9e57612d9d612b8b565b5b612da9848285612c3c565b509392505050565b600082601f830112612dc657612dc5612891565b5b8135612dd6848260208601612d6f565b91505092915050565b60008060408385031215612df657612df56125e6565b5b6000612e048582860161283c565b925050602083013567ffffffffffffffff811115612e2557612e246125eb565b5b612e3185828601612db1565b9150509250929050565b60008060408385031215612e5257612e516125e6565b5b6000612e608582860161283c565b9250506020612e718582860161283c565b9150509250929050565b7f4e487b7100000000000000000000000000000000000000000000000000000000600052602260045260246000fd5b60006002820490506001821680612ec257607f821691505b60208210811415612ed657612ed5612e7b565b5b50919050565b7f4552433732313a20617070726f76616c20746f2063757272656e74206f776e6560008201527f7200000000000000000000000000000000000000000000000000000000000000602082015250565b6000612f386021836126b6565b9150612f4382612edc565b604082019050919050565b60006020820190508181036000830152612f6781612f2b565b9050919050565b7f4552433732313a20617070726f76652063616c6c6572206973206e6f7420746f60008201527f6b656e206f776e6572206f7220617070726f76656420666f7220616c6c000000602082015250565b6000612fca603d836126b6565b9150612fd582612f6e565b604082019050919050565b60006020820190508181036000830152612ff981612fbd565b9050919050565b7f416363657373436f6e74726f6c3a2063616e206f6e6c792072656e6f756e636560008201527f20726f6c657320666f722073656c660000000000000000000000000000000000602082015250565b600061305c602f836126b6565b915061306782613000565b604082019050919050565b6000602082019050818103600083015261308b8161304f565b9050919050565b7f4552433732313a20696e76616c696420746f6b656e2049440000000000000000600082015250565b60006130c86018836126b6565b91506130d382613092565b602082019050919050565b600060208201905081810360008301526130f7816130bb565b9050919050565b7f4552433732313a2061646472657373207a65726f206973206e6f74206120766160008201527f6c6964206f776e65720000000000000000000000000000000000000000000000602082015250565b600061315a6029836126b6565b9150613165826130fe565b604082019050919050565b600060208201905081810360008301526131898161314d565b9050919050565b7f4552433732313a2063616c6c6572206973206e6f7420746f6b656e206f776e6560008201527f72206f7220617070726f76656400000000000000000000000000000000000000602082015250565b60006131ec602d836126b6565b91506131f782613190565b604082019050919050565b6000602082019050818103600083015261321b816131df565b9050919050565b7f4e487b7100000000000000000000000000000000000000000000000000000000600052601160045260246000fd5b600061325c82612766565b915061326783612766565b92508282101561327a57613279613222565b5b828203905092915050565b7f4552433732313a207472616e736665722066726f6d20696e636f72726563742060008201527f6f776e6572000000000000000000000000000000000000000000000000000000602082015250565b60006132e16025836126b6565b91506132ec82613285565b604082019050919050565b60006020820190508181036000830152613310816132d4565b9050919050565b7f4552433732313a207472616e7366657220746f20746865207a65726f2061646460008201527f7265737300000000000000000000000000000000000000000000000000000000602082015250565b60006133736024836126b6565b915061337e82613317565b604082019050919050565b600060208201905081810360008301526133a281613366565b9050919050565b7f4552433732313a20617070726f766520746f2063616c6c657200000000000000600082015250565b60006133df6019836126b6565b91506133ea826133a9565b602082019050919050565b6000602082019050818103600083015261340e816133d2565b9050919050565b7f4552433732313a207472616e7366657220746f206e6f6e20455243373231526560008201527f63656976657220696d706c656d656e7465720000000000000000000000000000602082015250565b60006134716032836126b6565b915061347c82613415565b604082019050919050565b600060208201905081810360008301526134a081613464565b9050919050565b600081905092915050565b60006134bd826126ab565b6134c781856134a7565b93506134d78185602086016126c7565b80840191505092915050565b60006134ef82856134b2565b91506134fb82846134b2565b91508190509392505050565b7f45524337323155524953746f726167653a2055524920736574206f66206e6f6e60008201527f6578697374656e7420746f6b656e000000000000000000000000000000000000602082015250565b6000613563602e836126b6565b915061356e82613507565b604082019050919050565b6000602082019050818103600083015261359281613556565b9050919050565b7f416363657373436f6e74726f6c3a206163636f756e7420000000000000000000600082015250565b60006135cf6017836134a7565b91506135da82613599565b601782019050919050565b7f206973206d697373696e6720726f6c6520000000000000000000000000000000600082015250565b600061361b6011836134a7565b9150613626826135e5565b601182019050919050565b600061363c826135c2565b915061364882856134b2565b91506136538261360e565b915061365f82846134b2565b91508190509392505050565b600081519050919050565b600082825260208201905092915050565b60006136928261366b565b61369c8185613676565b93506136ac8185602086016126c7565b6136b5816126fa565b840191505092915050565b60006080820190506136d560008301876127fb565b6136e260208301866127fb565b6136ef6040830185612af5565b81810360608301526137018184613687565b905095945050505050565b60008151905061371b8161261c565b92915050565b600060208284031215613737576137366125e6565b5b60006137458482850161370c565b91505092915050565b600061375982612766565b915061376483612766565b9250817fffffffffffffffffffffffffffffffffffffffffffffffffffffffffffffffff048311821515161561379d5761379c613222565b5b828202905092915050565b60006137b382612766565b91506137be83612766565b9250827fffffffffffffffffffffffffffffffffffffffffffffffffffffffffffffffff038211156137f3576137f2613222565b5b828201905092915050565b7f4e487b7100000000000000000000000000000000000000000000000000000000600052603260045260246000fd5b600061383882612766565b9150600082141561384c5761384b613222565b5b600182039050919050565b7f537472696e67733a20686578206c656e67746820696e73756666696369656e74600082015250565b600061388d6020836126b6565b915061389882613857565b602082019050919050565b600060208201905081810360008301526138bc81613880565b9050919050565b7f4e487b7100000000000000000000000000000000000000000000000000000000600052601260045260246000fd5b7f4552433732313a206d696e7420746f20746865207a65726f2061646472657373600082015250565b60006139286020836126b6565b9150613933826138f2565b602082019050919050565b600060208201905081810360008301526139578161391b565b9050919050565b7f4552433732313a20746f6b656e20616c7265616479206d696e74656400000000600082015250565b6000613994601c836126b6565b915061399f8261395e565b602082019050919050565b600060208201905081810360008301526139c381613987565b905091905056fea264697066735822122077f3c555f66520ceb051191262b65fae8accd2c8a3e0ef15c2220271836b101764736f6c63430008090033",
  "linkReferences": {},
  "deployedLinkReferences": {}
}