{
  "_format": "hh-sol-artifact-1",
  "contractName": "NftERC721",
  "sourceName": "contracts/NftERC721.sol",
  "abi": [
    {
      "inputs": [
        {
          "internalType": "string",
          "name": "_collectionName",
          "type": "string"
        },
        {
          "internalType": "string",
          "name": "_token",
          "type": "string"
        }
      ],
      "stateMutability": "payable",
      "type": "constructor"
    },
    {
      "anonymous": false,
      "inputs": [
        {
          "indexed": true,
          "internalType": "address",
          "name": "owner",
          "type": "address"
        },
        {
          "indexed": true,
          "internalType": "address",
          "name": "approved",
          "type": "address"
        },
        {
          "indexed": true,
          "internalType": "uint256",
          "name": "tokenId",
          "type": "uint256"
        }
      ],
      "name": "Approval",
      "type": "event"
    },
    {
      "anonymous": false,
      "inputs": [
        {
          "indexed": true,
          "internalType": "address",
          "name": "owner",
          "type": "address"
        },
        {
          "indexed": true,
          "internalType": "address",
          "name": "operator",
          "type": "address"
        },
        {
          "indexed": false,
          "internalType": "bool",
          "name": "approved",
          "type": "bool"
        }
      ],
      "name": "ApprovalForAll",
      "type": "event"
    },
    {
      "anonymous": false,
      "inputs": [
        {
          "indexed": false,
          "internalType": "bool",
          "name": "isMinted",
          "type": "bool"
        }
      ],
      "name": "NftMinted",
      "type": "event"
    },
    {
      "anonymous": false,
      "inputs": [
        {
          "indexed": false,
          "internalType": "bool",
          "name": "isMinted",
          "type": "bool"
        }
      ],
      "name": "NftTransferred",
      "type": "event"
    },
    {
      "anonymous": false,
      "inputs": [
        {
          "indexed": true,
          "internalType": "bytes32",
          "name": "role",
          "type": "bytes32"
        },
        {
          "indexed": true,
          "internalType": "bytes32",
          "name": "previousAdminRole",
          "type": "bytes32"
        },
        {
          "indexed": true,
          "internalType": "bytes32",
          "name": "newAdminRole",
          "type": "bytes32"
        }
      ],
      "name": "RoleAdminChanged",
      "type": "event"
    },
    {
      "anonymous": false,
      "inputs": [
        {
          "indexed": true,
          "internalType": "bytes32",
          "name": "role",
          "type": "bytes32"
        },
        {
          "indexed": true,
          "internalType": "address",
          "name": "account",
          "type": "address"
        },
        {
          "indexed": true,
          "internalType": "address",
          "name": "sender",
          "type": "address"
        }
      ],
      "name": "RoleGranted",
      "type": "event"
    },
    {
      "anonymous": false,
      "inputs": [
        {
          "indexed": true,
          "internalType": "bytes32",
          "name": "role",
          "type": "bytes32"
        },
        {
          "indexed": true,
          "internalType": "address",
          "name": "account",
          "type": "address"
        },
        {
          "indexed": true,
          "internalType": "address",
          "name": "sender",
          "type": "address"
        }
      ],
      "name": "RoleRevoked",
      "type": "event"
    },
    {
      "anonymous": false,
      "inputs": [
        {
          "indexed": true,
          "internalType": "address",
          "name": "from",
          "type": "address"
        },
        {
          "indexed": true,
          "internalType": "address",
          "name": "to",
          "type": "address"
        },
        {
          "indexed": true,
          "internalType": "uint256",
          "name": "tokenId",
          "type": "uint256"
        }
      ],
      "name": "Transfer",
      "type": "event"
    },
    {
      "inputs": [],
      "name": "DEFAULT_ADMIN_ROLE",
      "outputs": [
        {
          "internalType": "bytes32",
          "name": "",
          "type": "bytes32"
        }
      ],
      "stateMutability": "view",
      "type": "function"
    },
    {
      "inputs": [],
      "name": "LEADER_ROLE",
      "outputs": [
        {
          "internalType": "bytes32",
          "name": "",
          "type": "bytes32"
        }
      ],
      "stateMutability": "view",
      "type": "function"
    },
    {
      "inputs": [],
      "name": "MEMBER_ROLE",
      "outputs": [
        {
          "internalType": "bytes32",
          "name": "",
          "type": "bytes32"
        }
      ],
      "stateMutability": "view",
      "type": "function"
    },
    {
      "inputs": [
        {
          "internalType": "uint256",
          "name": "tokenId",
          "type": "uint256"
        }
      ],
      "name": "activityOwnerOf",
      "outputs": [
        {
          "internalType": "address",
          "name": "",
          "type": "address"
        }
      ],
      "stateMutability": "view",
      "type": "function"
    },
    {
      "inputs": [
        {
          "internalType": "address",
          "name": "to",
          "type": "address"
        },
        {
          "internalType": "uint256",
          "name": "tokenId",
          "type": "uint256"
        }
      ],
      "name": "approve",
      "outputs": [],
      "stateMutability": "nonpayable",
      "type": "function"
    },
    {
      "inputs": [
        {
          "internalType": "address",
          "name": "owner",
          "type": "address"
        }
      ],
      "name": "balanceOf",
      "outputs": [
        {
          "internalType": "uint256",
          "name": "",
          "type": "uint256"
        }
      ],
      "stateMutability": "view",
      "type": "function"
    },
    {
      "inputs": [
        {
          "internalType": "address",
          "name": "account",
          "type": "address"
        }
      ],
      "name": "checkAddressLeader",
      "outputs": [
        {
          "internalType": "bool",
          "name": "",
          "type": "bool"
        }
      ],
      "stateMutability": "view",
      "type": "function"
    },
    {
      "inputs": [
        {
          "internalType": "address",
          "name": "account",
          "type": "address"
        }
      ],
      "name": "checkAddressMember",
      "outputs": [
        {
          "internalType": "bool",
          "name": "",
          "type": "bool"
        }
      ],
      "stateMutability": "view",
      "type": "function"
    },
    {
      "inputs": [
        {
          "internalType": "uint256",
          "name": "tokenId",
          "type": "uint256"
        }
      ],
      "name": "getActivity",
      "outputs": [
        {
          "components": [
            {
              "internalType": "uint256",
              "name": "tokenId",
              "type": "uint256"
            },
            {
              "internalType": "string",
              "name": "status",
              "type": "string"
            },
            {
              "internalType": "string",
              "name": "tokenUri",
              "type": "string"
            }
          ],
          "internalType": "struct NftERC721.Activity",
          "name": "",
          "type": "tuple"
        }
      ],
      "stateMutability": "view",
      "type": "function"
    },
    {
      "inputs": [
        {
          "internalType": "uint256",
          "name": "tokenId",
          "type": "uint256"
        }
      ],
      "name": "getApproved",
      "outputs": [
        {
          "internalType": "address",
          "name": "",
          "type": "address"
        }
      ],
      "stateMutability": "view",
      "type": "function"
    },
    {
      "inputs": [
        {
          "internalType": "bytes32",
          "name": "role",
          "type": "bytes32"
        }
      ],
      "name": "getRoleAdmin",
      "outputs": [
        {
          "internalType": "bytes32",
          "name": "",
          "type": "bytes32"
        }
      ],
      "stateMutability": "view",
      "type": "function"
    },
    {
      "inputs": [
        {
          "internalType": "bytes32",
          "name": "role",
          "type": "bytes32"
        },
        {
          "internalType": "address",
          "name": "account",
          "type": "address"
        }
      ],
      "name": "grantRole",
      "outputs": [],
      "stateMutability": "nonpayable",
      "type": "function"
    },
    {
      "inputs": [
        {
          "internalType": "bytes32",
          "name": "role",
          "type": "bytes32"
        },
        {
          "internalType": "address",
          "name": "account",
          "type": "address"
        }
      ],
      "name": "hasRole",
      "outputs": [
        {
          "internalType": "bool",
          "name": "",
          "type": "bool"
        }
      ],
      "stateMutability": "view",
      "type": "function"
    },
    {
      "inputs": [],
      "name": "idCounter",
      "outputs": [
        {
          "internalType": "uint256",
          "name": "",
          "type": "uint256"
        }
      ],
      "stateMutability": "view",
      "type": "function"
    },
    {
      "inputs": [
        {
          "internalType": "address",
          "name": "owner",
          "type": "address"
        },
        {
          "internalType": "address",
          "name": "operator",
          "type": "address"
        }
      ],
      "name": "isApprovedForAll",
      "outputs": [
        {
          "internalType": "bool",
          "name": "",
          "type": "bool"
        }
      ],
      "stateMutability": "view",
      "type": "function"
    },
    {
      "inputs": [
        {
          "internalType": "uint256",
          "name": "tokenId",
          "type": "uint256"
        }
      ],
      "name": "isAvailableActivity",
      "outputs": [
        {
          "internalType": "bool",
          "name": "",
          "type": "bool"
        }
      ],
      "stateMutability": "view",
      "type": "function"
    },
    {
      "inputs": [],
      "name": "lastMinted",
      "outputs": [
        {
          "internalType": "string",
          "name": "",
          "type": "string"
        }
      ],
      "stateMutability": "view",
      "type": "function"
    },
    {
      "inputs": [],
      "name": "name",
      "outputs": [
        {
          "internalType": "string",
          "name": "",
          "type": "string"
        }
      ],
      "stateMutability": "view",
      "type": "function"
    },
    {
      "inputs": [
        {
          "internalType": "address",
          "name": "",
          "type": "address"
        },
        {
          "internalType": "address",
          "name": "",
          "type": "address"
        },
        {
          "internalType": "uint256",
          "name": "",
          "type": "uint256"
        },
        {
          "internalType": "bytes",
          "name": "",
          "type": "bytes"
        }
      ],
      "name": "onERC721Received",
      "outputs": [
        {
          "internalType": "bytes4",
          "name": "",
          "type": "bytes4"
        }
      ],
      "stateMutability": "pure",
      "type": "function"
    },
    {
      "inputs": [],
      "name": "owner",
      "outputs": [
        {
          "internalType": "address",
          "name": "",
          "type": "address"
        }
      ],
      "stateMutability": "view",
      "type": "function"
    },
    {
      "inputs": [
        {
          "internalType": "uint256",
          "name": "tokenId",
          "type": "uint256"
        }
      ],
      "name": "ownerOf",
      "outputs": [
        {
          "internalType": "address",
          "name": "",
          "type": "address"
        }
      ],
      "stateMutability": "view",
      "type": "function"
    },
    {
      "inputs": [
        {
          "internalType": "bytes32",
          "name": "role",
          "type": "bytes32"
        },
        {
          "internalType": "address",
          "name": "account",
          "type": "address"
        }
      ],
      "name": "renounceRole",
      "outputs": [],
      "stateMutability": "nonpayable",
      "type": "function"
    },
    {
      "inputs": [
        {
          "internalType": "bytes32",
          "name": "role",
          "type": "bytes32"
        },
        {
          "internalType": "address",
          "name": "account",
          "type": "address"
        }
      ],
      "name": "revokeRole",
      "outputs": [],
      "stateMutability": "nonpayable",
      "type": "function"
    },
    {
      "inputs": [
        {
          "internalType": "address",
          "name": "to",
          "type": "address"
        },
        {
          "internalType": "string",
          "name": "ipfsUri",
          "type": "string"
        }
      ],
      "name": "safeMint",
      "outputs": [],
      "stateMutability": "nonpayable",
      "type": "function"
    },
    {
      "inputs": [
        {
          "internalType": "address",
          "name": "from",
          "type": "address"
        },
        {
          "internalType": "address",
          "name": "to",
          "type": "address"
        },
        {
          "internalType": "uint256",
          "name": "tokenId",
          "type": "uint256"
        }
      ],
      "name": "safeTransferFrom",
      "outputs": [],
      "stateMutability": "nonpayable",
      "type": "function"
    },
    {
      "inputs": [
        {
          "internalType": "address",
          "name": "from",
          "type": "address"
        },
        {
          "internalType": "address",
          "name": "to",
          "type": "address"
        },
        {
          "internalType": "uint256",
          "name": "tokenId",
          "type": "uint256"
        },
        {
          "internalType": "bytes",
          "name": "data",
          "type": "bytes"
        }
      ],
      "name": "safeTransferFrom",
      "outputs": [],
      "stateMutability": "nonpayable",
      "type": "function"
    },
    {
      "inputs": [
        {
          "internalType": "uint256",
          "name": "tokenId",
          "type": "uint256"
        },
        {
          "internalType": "address",
          "name": "to",
          "type": "address"
        }
      ],
      "name": "setActivityOwner",
      "outputs": [],
      "stateMutability": "nonpayable",
      "type": "function"
    },
    {
      "inputs": [
        {
          "internalType": "address",
          "name": "operator",
          "type": "address"
        },
        {
          "internalType": "bool",
          "name": "approved",
          "type": "bool"
        }
      ],
      "name": "setApprovalForAll",
      "outputs": [],
      "stateMutability": "nonpayable",
      "type": "function"
    },
    {
      "inputs": [
        {
          "internalType": "bytes4",
          "name": "interfaceId",
          "type": "bytes4"
        }
      ],
      "name": "supportsInterface",
      "outputs": [
        {
          "internalType": "bool",
          "name": "",
          "type": "bool"
        }
      ],
      "stateMutability": "view",
      "type": "function"
    },
    {
      "inputs": [],
      "name": "symbol",
      "outputs": [
        {
          "internalType": "string",
          "name": "",
          "type": "string"
        }
      ],
      "stateMutability": "view",
      "type": "function"
    },
    {
      "inputs": [],
      "name": "tokenIdCounter",
      "outputs": [
        {
          "internalType": "uint256",
          "name": "_value",
          "type": "uint256"
        }
      ],
      "stateMutability": "view",
      "type": "function"
    },
    {
      "inputs": [
        {
          "internalType": "uint256",
          "name": "tokenId",
          "type": "uint256"
        }
      ],
      "name": "tokenURI",
      "outputs": [
        {
          "internalType": "string",
          "name": "",
          "type": "string"
        }
      ],
      "stateMutability": "view",
      "type": "function"
    },
    {
      "inputs": [
        {
          "internalType": "address",
          "name": "from",
          "type": "address"
        },
        {
          "internalType": "address",
          "name": "to",
          "type": "address"
        },
        {
          "internalType": "uint256",
          "name": "tokenId",
          "type": "uint256"
        }
      ],
      "name": "transferFrom",
      "outputs": [],
      "stateMutability": "nonpayable",
      "type": "function"
    }
  ],
  "bytecode": "0x6080604052604051620045af380380620045af833981810160405281019062000029919062000491565b818181600090805190602001906200004392919062000244565b5080600190805190602001906200005c92919062000244565b50505033600960006101000a81548173ffffffffffffffffffffffffffffffffffffffff021916908373ffffffffffffffffffffffffffffffffffffffff160217905550620000d76000801b600960009054906101000a900473ffffffffffffffffffffffffffffffffffffffff16620000df60201b60201c565b50506200057b565b620000f18282620001d160201b60201c565b620001cd5760016007600084815260200190815260200160002060000160008373ffffffffffffffffffffffffffffffffffffffff1673ffffffffffffffffffffffffffffffffffffffff16815260200190815260200160002060006101000a81548160ff021916908315150217905550620001726200023c60201b60201c565b73ffffffffffffffffffffffffffffffffffffffff168173ffffffffffffffffffffffffffffffffffffffff16837f2f8788117e7eff1d82e926ec794901d17c78024a50270940304540a733656f0d60405160405180910390a45b5050565b60006007600084815260200190815260200160002060000160008373ffffffffffffffffffffffffffffffffffffffff1673ffffffffffffffffffffffffffffffffffffffff16815260200190815260200160002060009054906101000a900460ff16905092915050565b600033905090565b828054620002529062000545565b90600052602060002090601f016020900481019282620002765760008555620002c2565b82601f106200029157805160ff1916838001178555620002c2565b82800160010185558215620002c2579182015b82811115620002c1578251825591602001919060010190620002a4565b5b509050620002d19190620002d5565b5090565b5b80821115620002f0576000816000905550600101620002d6565b5090565b6000604051905090565b600080fd5b600080fd5b600080fd5b600080fd5b6000601f19601f8301169050919050565b7f4e487b7100000000000000000000000000000000000000000000000000000000600052604160045260246000fd5b6200035d8262000312565b810181811067ffffffffffffffff821117156200037f576200037e62000323565b5b80604052505050565b600062000394620002f4565b9050620003a2828262000352565b919050565b600067ffffffffffffffff821115620003c557620003c462000323565b5b620003d08262000312565b9050602081019050919050565b60005b83811015620003fd578082015181840152602081019050620003e0565b838111156200040d576000848401525b50505050565b60006200042a6200042484620003a7565b62000388565b9050828152602081018484840111156200044957620004486200030d565b5b62000456848285620003dd565b509392505050565b600082601f83011262000476576200047562000308565b5b81516200048884826020860162000413565b91505092915050565b60008060408385031215620004ab57620004aa620002fe565b5b600083015167ffffffffffffffff811115620004cc57620004cb62000303565b5b620004da858286016200045e565b925050602083015167ffffffffffffffff811115620004fe57620004fd62000303565b5b6200050c858286016200045e565b9150509250929050565b7f4e487b7100000000000000000000000000000000000000000000000000000000600052602260045260246000fd5b600060028204905060018216806200055e57607f821691505b6020821081141562000575576200057462000516565b5b50919050565b614024806200058b6000396000f3fe608060405234801561001057600080fd5b50600436106101fb5760003560e01c806391d148541161011a578063b88d4fde116100ad578063d547741f1161007c578063d547741f14610610578063e035f4841461062c578063e34a9d4914610648578063e985e9c514610678578063eb08ab28146106a8576101fb565b8063b88d4fde1461058a578063bbc19ab0146105a6578063c87b56dd146105c4578063d204c45e146105f4576101fb565b8063a10f469e116100e9578063a10f469e14610514578063a217fddf14610532578063a22cb46514610550578063a2e4aff01461056c576101fb565b806391d1485414610478578063922635d8146104a857806395d89b41146104d857806398bdf6f5146104f6576101fb565b80632f2ff15d1161019257806363fe1f771161016157806363fe1f77146103ca57806370a08231146103fa5780638da5cb5b1461042a578063906322c914610448576101fb565b80632f2ff15d1461034657806336568abe1461036257806342842e0e1461037e5780636352211e1461039a576101fb565b8063150b7a02116101ce578063150b7a021461029a5780631d1b29bd146102ca57806323b872dd146102fa578063248a9ca314610316576101fb565b806301ffc9a71461020057806306fdde0314610230578063081812fc1461024e578063095ea7b31461027e575b600080fd5b61021a60048036038101906102159190612aee565b6106c6565b6040516102279190612b36565b60405180910390f35b6102386106d8565b6040516102459190612bea565b60405180910390f35b61026860048036038101906102639190612c42565b61076a565b6040516102759190612cb0565b60405180910390f35b61029860048036038101906102939190612cf7565b6107b0565b005b6102b460048036038101906102af9190612d9c565b6108c8565b6040516102c19190612e33565b60405180910390f35b6102e460048036038101906102df9190612e4e565b6108dd565b6040516102f19190612b36565b60405180910390f35b610314600480360381019061030f9190612e7b565b610910565b005b610330600480360381019061032b9190612f04565b610971565b60405161033d9190612f40565b60405180910390f35b610360600480360381019061035b9190612f5b565b610991565b005b61037c60048036038101906103779190612f5b565b6109b5565b005b61039860048036038101906103939190612e7b565b610a38565b005b6103b460048036038101906103af9190612c42565b610a58565b6040516103c19190612cb0565b60405180910390f35b6103e460048036038101906103df9190612c42565b610adf565b6040516103f19190612b36565b60405180910390f35b610414600480360381019061040f9190612e4e565b610b09565b6040516104219190612faa565b60405180910390f35b610432610bc1565b60405161043f9190612cb0565b60405180910390f35b610462600480360381019061045d9190612e4e565b610be7565b60405161046f9190612b36565b60405180910390f35b610492600480360381019061048d9190612f5b565b610c1a565b60405161049f9190612b36565b60405180910390f35b6104c260048036038101906104bd9190612c42565b610c85565b6040516104cf9190613075565b60405180910390f35b6104e0610de0565b6040516104ed9190612bea565b60405180910390f35b6104fe610e72565b60405161050b9190612faa565b60405180910390f35b61051c610e7e565b6040516105299190612f40565b60405180910390f35b61053a610ea2565b6040516105479190612f40565b60405180910390f35b61056a600480360381019061056591906130c3565b610ea9565b005b610574610ebf565b6040516105819190612f40565b60405180910390f35b6105a4600480360381019061059f9190613233565b610ee3565b005b6105ae610f45565b6040516105bb9190612bea565b60405180910390f35b6105de60048036038101906105d99190612c42565b610fac565b6040516105eb9190612bea565b60405180910390f35b61060e60048036038101906106099190613357565b610fbe565b005b61062a60048036038101906106259190612f5b565b611133565b005b610646600480360381019061064191906133b3565b611154565b005b610662600480360381019061065d9190612c42565b6112b8565b60405161066f9190612cb0565b60405180910390f35b610692600480360381019061068d91906133f3565b6112fa565b60405161069f9190612b36565b60405180910390f35b6106b061138e565b6040516106bd9190612faa565b60405180910390f35b60006106d18261139f565b9050919050565b6060600080546106e790613462565b80601f016020809104026020016040519081016040528092919081815260200182805461071390613462565b80156107605780601f1061073557610100808354040283529160200191610760565b820191906000526020600020905b81548152906001019060200180831161074357829003601f168201915b5050505050905090565b600061077582611419565b6004600083815260200190815260200160002060009054906101000a900473ffffffffffffffffffffffffffffffffffffffff169050919050565b60006107bb82610a58565b90508073ffffffffffffffffffffffffffffffffffffffff168373ffffffffffffffffffffffffffffffffffffffff16141561082c576040517f08c379a000000000000000000000000000000000000000000000000000000000815260040161082390613506565b60405180910390fd5b8073ffffffffffffffffffffffffffffffffffffffff1661084b611464565b73ffffffffffffffffffffffffffffffffffffffff16148061087a575061087981610874611464565b6112fa565b5b6108b9576040517f08c379a00000000000000000000000000000000000000000000000000000000081526004016108b090613598565b60405180910390fd5b6108c3838361146c565b505050565b600063150b7a0260e01b905095945050505050565b60006109097fa870f1a91ab66a18174ae285449a007bea36a28441e5b44a847deb90f83e86eb83610c1a565b9050919050565b6000801b61091d81611525565b610928836001610ea9565b610933848484611539565b7ff6424459656d156a32411176601baac0d0f3e7ffa29398e7cbfbab916565f17260016040516109639190612b36565b60405180910390a150505050565b600060076000838152602001908152602001600020600101549050919050565b61099d6000801b610971565b6109a681611525565b6109b08383611833565b505050565b6109bd611464565b73ffffffffffffffffffffffffffffffffffffffff168173ffffffffffffffffffffffffffffffffffffffff1614610a2a576040517f08c379a0000000000000000000000000000000000000000000000000000000008152600401610a219061362a565b60405180910390fd5b610a348282611914565b5050565b610a5383838360405180602001604052806000815250610ee3565b505050565b600080610a64836119f6565b9050600073ffffffffffffffffffffffffffffffffffffffff168173ffffffffffffffffffffffffffffffffffffffff161415610ad6576040517f08c379a0000000000000000000000000000000000000000000000000000000008152600401610acd90613696565b60405180910390fd5b80915050919050565b6000600b600083815260200190815260200160002060009054906101000a900460ff169050919050565b60008073ffffffffffffffffffffffffffffffffffffffff168273ffffffffffffffffffffffffffffffffffffffff161415610b7a576040517f08c379a0000000000000000000000000000000000000000000000000000000008152600401610b7190613728565b60405180910390fd5b600360008373ffffffffffffffffffffffffffffffffffffffff1673ffffffffffffffffffffffffffffffffffffffff168152602001908152602001600020549050919050565b600960009054906101000a900473ffffffffffffffffffffffffffffffffffffffff1681565b6000610c137f829b824e2329e205435d941c9f13baf578548505283d29261236d8e6596d463683610c1a565b9050919050565b60006007600084815260200190815260200160002060000160008373ffffffffffffffffffffffffffffffffffffffff1673ffffffffffffffffffffffffffffffffffffffff16815260200190815260200160002060009054906101000a900460ff16905092915050565b610c8d6129be565b600a600083815260200190815260200160002060405180606001604052908160008201548152602001600182018054610cc590613462565b80601f0160208091040260200160405190810160405280929190818152602001828054610cf190613462565b8015610d3e5780601f10610d1357610100808354040283529160200191610d3e565b820191906000526020600020905b815481529060010190602001808311610d2157829003601f168201915b50505050508152602001600282018054610d5790613462565b80601f0160208091040260200160405190810160405280929190818152602001828054610d8390613462565b8015610dd05780601f10610da557610100808354040283529160200191610dd0565b820191906000526020600020905b815481529060010190602001808311610db357829003601f168201915b5050505050815250509050919050565b606060018054610def90613462565b80601f0160208091040260200160405190810160405280929190818152602001828054610e1b90613462565b8015610e685780601f10610e3d57610100808354040283529160200191610e68565b820191906000526020600020905b815481529060010190602001808311610e4b57829003601f168201915b5050505050905090565b60088060000154905081565b7f829b824e2329e205435d941c9f13baf578548505283d29261236d8e6596d463681565b6000801b81565b610ebb610eb4611464565b8383611a33565b5050565b7fa870f1a91ab66a18174ae285449a007bea36a28441e5b44a847deb90f83e86eb81565b610ef4610eee611464565b83611ba0565b610f33576040517f08c379a0000000000000000000000000000000000000000000000000000000008152600401610f2a906137ba565b60405180910390fd5b610f3f84848484611c35565b50505050565b60606000610f536008611c91565b90506000811415610f765760405180602001604052806000815250915050610fa9565b6000811115610f9c57610f94600182610f8f9190613809565b610fac565b915050610fa9565b610fa581610fac565b9150505b90565b6060610fb782611c9f565b9050919050565b7fa870f1a91ab66a18174ae285449a007bea36a28441e5b44a847deb90f83e86eb610fe881611525565b6000610ff46008611c91565b90506110006008611db2565b61100a8482611dc8565b6110148184611de6565b61101c6129be565b818160000181815250508381604001819052506040518060400160405280600981526020017f417661696c61626c65000000000000000000000000000000000000000000000081525081602001819052506001600b600084815260200190815260200160002060006101000a81548160ff02191690831515021790555080600a60008481526020019081526020016000206000820151816000015560208201518160010190805190602001906110d39291906129df565b5060408201518160020190805190602001906110f09291906129df565b509050507f20ca71800840a1730c265dcac5f68ec9daffe929561a6ed11f49ada5e4f7a31a60016040516111249190612b36565b60405180910390a15050505050565b61113c82610971565b61114581611525565b61114f8383611914565b505050565b7f829b824e2329e205435d941c9f13baf578548505283d29261236d8e6596d463661117e81611525565b600b600084815260200190815260200160002060009054906101000a900460ff166111de576040517f08c379a00000000000000000000000000000000000000000000000000000000081526004016111d590613889565b60405180910390fd5b6040518060400160405280600b81526020017f496e2050726f6772657373000000000000000000000000000000000000000000815250600a6000858152602001908152602001600020600101908051906020019061123d9291906129df565b50600b600084815260200190815260200160002060006101000a81549060ff021916905581600c600085815260200190815260200160002060006101000a81548173ffffffffffffffffffffffffffffffffffffffff021916908373ffffffffffffffffffffffffffffffffffffffff160217905550505050565b600080600c600084815260200190815260200160002060009054906101000a900473ffffffffffffffffffffffffffffffffffffffff16905080915050919050565b6000600560008473ffffffffffffffffffffffffffffffffffffffff1673ffffffffffffffffffffffffffffffffffffffff16815260200190815260200160002060008373ffffffffffffffffffffffffffffffffffffffff1673ffffffffffffffffffffffffffffffffffffffff16815260200190815260200160002060009054906101000a900460ff16905092915050565b600061139a6008611c91565b905090565b60007f7965db0b000000000000000000000000000000000000000000000000000000007bffffffffffffffffffffffffffffffffffffffffffffffffffffffff1916827bffffffffffffffffffffffffffffffffffffffffffffffffffffffff19161480611412575061141182611e5a565b5b9050919050565b61142281611f3c565b611461576040517f08c379a000000000000000000000000000000000000000000000000000000000815260040161145890613696565b60405180910390fd5b50565b600033905090565b816004600083815260200190815260200160002060006101000a81548173ffffffffffffffffffffffffffffffffffffffff021916908373ffffffffffffffffffffffffffffffffffffffff160217905550808273ffffffffffffffffffffffffffffffffffffffff166114df83610a58565b73ffffffffffffffffffffffffffffffffffffffff167f8c5be1e5ebec7d5bd14f71427d1e84f3dd0314c0f7b2291e5b200ac8c7c3b92560405160405180910390a45050565b61153681611531611464565b611f7d565b50565b8273ffffffffffffffffffffffffffffffffffffffff1661155982610a58565b73ffffffffffffffffffffffffffffffffffffffff16146115af576040517f08c379a00000000000000000000000000000000000000000000000000000000081526004016115a69061391b565b60405180910390fd5b600073ffffffffffffffffffffffffffffffffffffffff168273ffffffffffffffffffffffffffffffffffffffff16141561161f576040517f08c379a0000000000000000000000000000000000000000000000000000000008152600401611616906139ad565b60405180910390fd5b61162c8383836001612002565b8273ffffffffffffffffffffffffffffffffffffffff1661164c82610a58565b73ffffffffffffffffffffffffffffffffffffffff16146116a2576040517f08c379a00000000000000000000000000000000000000000000000000000000081526004016116999061391b565b60405180910390fd5b6004600082815260200190815260200160002060006101000a81549073ffffffffffffffffffffffffffffffffffffffff02191690556001600360008573ffffffffffffffffffffffffffffffffffffffff1673ffffffffffffffffffffffffffffffffffffffff168152602001908152602001600020600082825403925050819055506001600360008473ffffffffffffffffffffffffffffffffffffffff1673ffffffffffffffffffffffffffffffffffffffff16815260200190815260200160002060008282540192505081905550816002600083815260200190815260200160002060006101000a81548173ffffffffffffffffffffffffffffffffffffffff021916908373ffffffffffffffffffffffffffffffffffffffff160217905550808273ffffffffffffffffffffffffffffffffffffffff168473ffffffffffffffffffffffffffffffffffffffff167fddf252ad1be2c89b69c2b068fc378daa952ba7f163c4a11628f55a4df523b3ef60405160405180910390a461182e8383836001612008565b505050565b61183d8282610c1a565b6119105760016007600084815260200190815260200160002060000160008373ffffffffffffffffffffffffffffffffffffffff1673ffffffffffffffffffffffffffffffffffffffff16815260200190815260200160002060006101000a81548160ff0219169083151502179055506118b5611464565b73ffffffffffffffffffffffffffffffffffffffff168173ffffffffffffffffffffffffffffffffffffffff16837f2f8788117e7eff1d82e926ec794901d17c78024a50270940304540a733656f0d60405160405180910390a45b5050565b61191e8282610c1a565b156119f25760006007600084815260200190815260200160002060000160008373ffffffffffffffffffffffffffffffffffffffff1673ffffffffffffffffffffffffffffffffffffffff16815260200190815260200160002060006101000a81548160ff021916908315150217905550611997611464565b73ffffffffffffffffffffffffffffffffffffffff168173ffffffffffffffffffffffffffffffffffffffff16837ff6391f5c32d9c69d2a47ea670b442974b53935d1edc7fd64eb21e047a839171b60405160405180910390a45b5050565b60006002600083815260200190815260200160002060009054906101000a900473ffffffffffffffffffffffffffffffffffffffff169050919050565b8173ffffffffffffffffffffffffffffffffffffffff168373ffffffffffffffffffffffffffffffffffffffff161415611aa2576040517f08c379a0000000000000000000000000000000000000000000000000000000008152600401611a9990613a19565b60405180910390fd5b80600560008573ffffffffffffffffffffffffffffffffffffffff1673ffffffffffffffffffffffffffffffffffffffff16815260200190815260200160002060008473ffffffffffffffffffffffffffffffffffffffff1673ffffffffffffffffffffffffffffffffffffffff16815260200190815260200160002060006101000a81548160ff0219169083151502179055508173ffffffffffffffffffffffffffffffffffffffff168373ffffffffffffffffffffffffffffffffffffffff167f17307eab39ab6107e8899845ad3d59bd9653f200f220920489ca2b5937696c3183604051611b939190612b36565b60405180910390a3505050565b600080611bac83610a58565b90508073ffffffffffffffffffffffffffffffffffffffff168473ffffffffffffffffffffffffffffffffffffffff161480611bee5750611bed81856112fa565b5b80611c2c57508373ffffffffffffffffffffffffffffffffffffffff16611c148461076a565b73ffffffffffffffffffffffffffffffffffffffff16145b91505092915050565b611c40848484611539565b611c4c8484848461200e565b611c8b576040517f08c379a0000000000000000000000000000000000000000000000000000000008152600401611c8290613aab565b60405180910390fd5b50505050565b600081600001549050919050565b6060611caa82611419565b6000600660008481526020019081526020016000208054611cca90613462565b80601f0160208091040260200160405190810160405280929190818152602001828054611cf690613462565b8015611d435780601f10611d1857610100808354040283529160200191611d43565b820191906000526020600020905b815481529060010190602001808311611d2657829003601f168201915b505050505090506000611d546121a5565b9050600081511415611d6a578192505050611dad565b600082511115611d9f578082604051602001611d87929190613b07565b60405160208183030381529060405292505050611dad565b611da8846121bc565b925050505b919050565b6001816000016000828254019250508190555050565b611de2828260405180602001604052806000815250612224565b5050565b611def82611f3c565b611e2e576040517f08c379a0000000000000000000000000000000000000000000000000000000008152600401611e2590613b9d565b60405180910390fd5b80600660008481526020019081526020016000209080519060200190611e559291906129df565b505050565b60007f80ac58cd000000000000000000000000000000000000000000000000000000007bffffffffffffffffffffffffffffffffffffffffffffffffffffffff1916827bffffffffffffffffffffffffffffffffffffffffffffffffffffffff19161480611f2557507f5b5e139f000000000000000000000000000000000000000000000000000000007bffffffffffffffffffffffffffffffffffffffffffffffffffffffff1916827bffffffffffffffffffffffffffffffffffffffffffffffffffffffff1916145b80611f355750611f348261227f565b5b9050919050565b60008073ffffffffffffffffffffffffffffffffffffffff16611f5e836119f6565b73ffffffffffffffffffffffffffffffffffffffff1614159050919050565b611f878282610c1a565b611ffe57611f94816122e9565b611fa28360001c6020612316565b604051602001611fb3929190613c55565b6040516020818303038152906040526040517f08c379a0000000000000000000000000000000000000000000000000000000008152600401611ff59190612bea565b60405180910390fd5b5050565b50505050565b50505050565b600061202f8473ffffffffffffffffffffffffffffffffffffffff16612552565b15612198578373ffffffffffffffffffffffffffffffffffffffff1663150b7a02612058611464565b8786866040518563ffffffff1660e01b815260040161207a9493929190613ce4565b602060405180830381600087803b15801561209457600080fd5b505af19250505080156120c557506040513d601f19601f820116820180604052508101906120c29190613d45565b60015b612148573d80600081146120f5576040519150601f19603f3d011682016040523d82523d6000602084013e6120fa565b606091505b50600081511415612140576040517f08c379a000000000000000000000000000000000000000000000000000000000815260040161213790613aab565b60405180910390fd5b805181602001fd5b63150b7a0260e01b7bffffffffffffffffffffffffffffffffffffffffffffffffffffffff1916817bffffffffffffffffffffffffffffffffffffffffffffffffffffffff19161491505061219d565b600190505b949350505050565b606060405180602001604052806000815250905090565b60606121c782611419565b60006121d16121a5565b905060008151116121f1576040518060200160405280600081525061221c565b806121fb84612575565b60405160200161220c929190613b07565b6040516020818303038152906040525b915050919050565b61222e838361264d565b61223b600084848461200e565b61227a576040517f08c379a000000000000000000000000000000000000000000000000000000000815260040161227190613aab565b60405180910390fd5b505050565b60007f01ffc9a7000000000000000000000000000000000000000000000000000000007bffffffffffffffffffffffffffffffffffffffffffffffffffffffff1916827bffffffffffffffffffffffffffffffffffffffffffffffffffffffff1916149050919050565b606061230f8273ffffffffffffffffffffffffffffffffffffffff16601460ff16612316565b9050919050565b6060600060028360026123299190613d72565b6123339190613dcc565b67ffffffffffffffff81111561234c5761234b613108565b5b6040519080825280601f01601f19166020018201604052801561237e5781602001600182028036833780820191505090505b5090507f3000000000000000000000000000000000000000000000000000000000000000816000815181106123b6576123b5613e22565b5b60200101907effffffffffffffffffffffffffffffffffffffffffffffffffffffffffffff1916908160001a9053507f78000000000000000000000000000000000000000000000000000000000000008160018151811061241a57612419613e22565b5b60200101907effffffffffffffffffffffffffffffffffffffffffffffffffffffffffffff1916908160001a9053506000600184600261245a9190613d72565b6124649190613dcc565b90505b6001811115612504577f3031323334353637383961626364656600000000000000000000000000000000600f8616601081106124a6576124a5613e22565b5b1a60f81b8282815181106124bd576124bc613e22565b5b60200101907effffffffffffffffffffffffffffffffffffffffffffffffffffffffffffff1916908160001a905350600485901c9450806124fd90613e51565b9050612467565b5060008414612548576040517f08c379a000000000000000000000000000000000000000000000000000000000815260040161253f90613ec7565b60405180910390fd5b8091505092915050565b6000808273ffffffffffffffffffffffffffffffffffffffff163b119050919050565b6060600060016125848461286b565b01905060008167ffffffffffffffff8111156125a3576125a2613108565b5b6040519080825280601f01601f1916602001820160405280156125d55781602001600182028036833780820191505090505b509050600082602001820190505b600115612642578080600190039150507f3031323334353637383961626364656600000000000000000000000000000000600a86061a8153600a858161262c5761262b613ee7565b5b049450600085141561263d57612642565b6125e3565b819350505050919050565b600073ffffffffffffffffffffffffffffffffffffffff168273ffffffffffffffffffffffffffffffffffffffff1614156126bd576040517f08c379a00000000000000000000000000000000000000000000000000000000081526004016126b490613f62565b60405180910390fd5b6126c681611f3c565b15612706576040517f08c379a00000000000000000000000000000000000000000000000000000000081526004016126fd90613fce565b60405180910390fd5b612714600083836001612002565b61271d81611f3c565b1561275d576040517f08c379a000000000000000000000000000000000000000000000000000000000815260040161275490613fce565b60405180910390fd5b6001600360008473ffffffffffffffffffffffffffffffffffffffff1673ffffffffffffffffffffffffffffffffffffffff16815260200190815260200160002060008282540192505081905550816002600083815260200190815260200160002060006101000a81548173ffffffffffffffffffffffffffffffffffffffff021916908373ffffffffffffffffffffffffffffffffffffffff160217905550808273ffffffffffffffffffffffffffffffffffffffff16600073ffffffffffffffffffffffffffffffffffffffff167fddf252ad1be2c89b69c2b068fc378daa952ba7f163c4a11628f55a4df523b3ef60405160405180910390a4612867600083836001612008565b5050565b600080600090507a184f03e93ff9f4daa797ed6e38ed64bf6a1f01000000000000000083106128c9577a184f03e93ff9f4daa797ed6e38ed64bf6a1f01000000000000000083816128bf576128be613ee7565b5b0492506040810190505b6d04ee2d6d415b85acef81000000008310612906576d04ee2d6d415b85acef810000000083816128fc576128fb613ee7565b5b0492506020810190505b662386f26fc10000831061293557662386f26fc10000838161292b5761292a613ee7565b5b0492506010810190505b6305f5e100831061295e576305f5e100838161295457612953613ee7565b5b0492506008810190505b612710831061298357612710838161297957612978613ee7565b5b0492506004810190505b606483106129a6576064838161299c5761299b613ee7565b5b0492506002810190505b600a83106129b5576001810190505b80915050919050565b60405180606001604052806000815260200160608152602001606081525090565b8280546129eb90613462565b90600052602060002090601f016020900481019282612a0d5760008555612a54565b82601f10612a2657805160ff1916838001178555612a54565b82800160010185558215612a54579182015b82811115612a53578251825591602001919060010190612a38565b5b509050612a619190612a65565b5090565b5b80821115612a7e576000816000905550600101612a66565b5090565b6000604051905090565b600080fd5b600080fd5b60007fffffffff0000000000000000000000000000000000000000000000000000000082169050919050565b612acb81612a96565b8114612ad657600080fd5b50565b600081359050612ae881612ac2565b92915050565b600060208284031215612b0457612b03612a8c565b5b6000612b1284828501612ad9565b91505092915050565b60008115159050919050565b612b3081612b1b565b82525050565b6000602082019050612b4b6000830184612b27565b92915050565b600081519050919050565b600082825260208201905092915050565b60005b83811015612b8b578082015181840152602081019050612b70565b83811115612b9a576000848401525b50505050565b6000601f19601f8301169050919050565b6000612bbc82612b51565b612bc68185612b5c565b9350612bd6818560208601612b6d565b612bdf81612ba0565b840191505092915050565b60006020820190508181036000830152612c048184612bb1565b905092915050565b6000819050919050565b612c1f81612c0c565b8114612c2a57600080fd5b50565b600081359050612c3c81612c16565b92915050565b600060208284031215612c5857612c57612a8c565b5b6000612c6684828501612c2d565b91505092915050565b600073ffffffffffffffffffffffffffffffffffffffff82169050919050565b6000612c9a82612c6f565b9050919050565b612caa81612c8f565b82525050565b6000602082019050612cc56000830184612ca1565b92915050565b612cd481612c8f565b8114612cdf57600080fd5b50565b600081359050612cf181612ccb565b92915050565b60008060408385031215612d0e57612d0d612a8c565b5b6000612d1c85828601612ce2565b9250506020612d2d85828601612c2d565b9150509250929050565b600080fd5b600080fd5b600080fd5b60008083601f840112612d5c57612d5b612d37565b5b8235905067ffffffffffffffff811115612d7957612d78612d3c565b5b602083019150836001820283011115612d9557612d94612d41565b5b9250929050565b600080600080600060808688031215612db857612db7612a8c565b5b6000612dc688828901612ce2565b9550506020612dd788828901612ce2565b9450506040612de888828901612c2d565b935050606086013567ffffffffffffffff811115612e0957612e08612a91565b5b612e1588828901612d46565b92509250509295509295909350565b612e2d81612a96565b82525050565b6000602082019050612e486000830184612e24565b92915050565b600060208284031215612e6457612e63612a8c565b5b6000612e7284828501612ce2565b91505092915050565b600080600060608486031215612e9457612e93612a8c565b5b6000612ea286828701612ce2565b9350506020612eb386828701612ce2565b9250506040612ec486828701612c2d565b9150509250925092565b6000819050919050565b612ee181612ece565b8114612eec57600080fd5b50565b600081359050612efe81612ed8565b92915050565b600060208284031215612f1a57612f19612a8c565b5b6000612f2884828501612eef565b91505092915050565b612f3a81612ece565b82525050565b6000602082019050612f556000830184612f31565b92915050565b60008060408385031215612f7257612f71612a8c565b5b6000612f8085828601612eef565b9250506020612f9185828601612ce2565b9150509250929050565b612fa481612c0c565b82525050565b6000602082019050612fbf6000830184612f9b565b92915050565b612fce81612c0c565b82525050565b600082825260208201905092915050565b6000612ff082612b51565b612ffa8185612fd4565b935061300a818560208601612b6d565b61301381612ba0565b840191505092915050565b60006060830160008301516130366000860182612fc5565b506020830151848203602086015261304e8282612fe5565b915050604083015184820360408601526130688282612fe5565b9150508091505092915050565b6000602082019050818103600083015261308f818461301e565b905092915050565b6130a081612b1b565b81146130ab57600080fd5b50565b6000813590506130bd81613097565b92915050565b600080604083850312156130da576130d9612a8c565b5b60006130e885828601612ce2565b92505060206130f9858286016130ae565b9150509250929050565b600080fd5b7f4e487b7100000000000000000000000000000000000000000000000000000000600052604160045260246000fd5b61314082612ba0565b810181811067ffffffffffffffff8211171561315f5761315e613108565b5b80604052505050565b6000613172612a82565b905061317e8282613137565b919050565b600067ffffffffffffffff82111561319e5761319d613108565b5b6131a782612ba0565b9050602081019050919050565b82818337600083830152505050565b60006131d66131d184613183565b613168565b9050828152602081018484840111156131f2576131f1613103565b5b6131fd8482856131b4565b509392505050565b600082601f83011261321a57613219612d37565b5b813561322a8482602086016131c3565b91505092915050565b6000806000806080858703121561324d5761324c612a8c565b5b600061325b87828801612ce2565b945050602061326c87828801612ce2565b935050604061327d87828801612c2d565b925050606085013567ffffffffffffffff81111561329e5761329d612a91565b5b6132aa87828801613205565b91505092959194509250565b600067ffffffffffffffff8211156132d1576132d0613108565b5b6132da82612ba0565b9050602081019050919050565b60006132fa6132f5846132b6565b613168565b90508281526020810184848401111561331657613315613103565b5b6133218482856131b4565b509392505050565b600082601f83011261333e5761333d612d37565b5b813561334e8482602086016132e7565b91505092915050565b6000806040838503121561336e5761336d612a8c565b5b600061337c85828601612ce2565b925050602083013567ffffffffffffffff81111561339d5761339c612a91565b5b6133a985828601613329565b9150509250929050565b600080604083850312156133ca576133c9612a8c565b5b60006133d885828601612c2d565b92505060206133e985828601612ce2565b9150509250929050565b6000806040838503121561340a57613409612a8c565b5b600061341885828601612ce2565b925050602061342985828601612ce2565b9150509250929050565b7f4e487b7100000000000000000000000000000000000000000000000000000000600052602260045260246000fd5b6000600282049050600182168061347a57607f821691505b6020821081141561348e5761348d613433565b5b50919050565b7f4552433732313a20617070726f76616c20746f2063757272656e74206f776e6560008201527f7200000000000000000000000000000000000000000000000000000000000000602082015250565b60006134f0602183612b5c565b91506134fb82613494565b604082019050919050565b6000602082019050818103600083015261351f816134e3565b9050919050565b7f4552433732313a20617070726f76652063616c6c6572206973206e6f7420746f60008201527f6b656e206f776e6572206f7220617070726f76656420666f7220616c6c000000602082015250565b6000613582603d83612b5c565b915061358d82613526565b604082019050919050565b600060208201905081810360008301526135b181613575565b9050919050565b7f416363657373436f6e74726f6c3a2063616e206f6e6c792072656e6f756e636560008201527f20726f6c657320666f722073656c660000000000000000000000000000000000602082015250565b6000613614602f83612b5c565b915061361f826135b8565b604082019050919050565b6000602082019050818103600083015261364381613607565b9050919050565b7f4552433732313a20696e76616c696420746f6b656e2049440000000000000000600082015250565b6000613680601883612b5c565b915061368b8261364a565b602082019050919050565b600060208201905081810360008301526136af81613673565b9050919050565b7f4552433732313a2061646472657373207a65726f206973206e6f74206120766160008201527f6c6964206f776e65720000000000000000000000000000000000000000000000602082015250565b6000613712602983612b5c565b915061371d826136b6565b604082019050919050565b6000602082019050818103600083015261374181613705565b9050919050565b7f4552433732313a2063616c6c6572206973206e6f7420746f6b656e206f776e6560008201527f72206f7220617070726f76656400000000000000000000000000000000000000602082015250565b60006137a4602d83612b5c565b91506137af82613748565b604082019050919050565b600060208201905081810360008301526137d381613797565b9050919050565b7f4e487b7100000000000000000000000000000000000000000000000000000000600052601160045260246000fd5b600061381482612c0c565b915061381f83612c0c565b925082821015613832576138316137da565b5b828203905092915050565b7f4163746976697479206e6f7420617661696c61626c6521000000000000000000600082015250565b6000613873601783612b5c565b915061387e8261383d565b602082019050919050565b600060208201905081810360008301526138a281613866565b9050919050565b7f4552433732313a207472616e736665722066726f6d20696e636f72726563742060008201527f6f776e6572000000000000000000000000000000000000000000000000000000602082015250565b6000613905602583612b5c565b9150613910826138a9565b604082019050919050565b60006020820190508181036000830152613934816138f8565b9050919050565b7f4552433732313a207472616e7366657220746f20746865207a65726f2061646460008201527f7265737300000000000000000000000000000000000000000000000000000000602082015250565b6000613997602483612b5c565b91506139a28261393b565b604082019050919050565b600060208201905081810360008301526139c68161398a565b9050919050565b7f4552433732313a20617070726f766520746f2063616c6c657200000000000000600082015250565b6000613a03601983612b5c565b9150613a0e826139cd565b602082019050919050565b60006020820190508181036000830152613a32816139f6565b9050919050565b7f4552433732313a207472616e7366657220746f206e6f6e20455243373231526560008201527f63656976657220696d706c656d656e7465720000000000000000000000000000602082015250565b6000613a95603283612b5c565b9150613aa082613a39565b604082019050919050565b60006020820190508181036000830152613ac481613a88565b9050919050565b600081905092915050565b6000613ae182612b51565b613aeb8185613acb565b9350613afb818560208601612b6d565b80840191505092915050565b6000613b138285613ad6565b9150613b1f8284613ad6565b91508190509392505050565b7f45524337323155524953746f726167653a2055524920736574206f66206e6f6e60008201527f6578697374656e7420746f6b656e000000000000000000000000000000000000602082015250565b6000613b87602e83612b5c565b9150613b9282613b2b565b604082019050919050565b60006020820190508181036000830152613bb681613b7a565b9050919050565b7f416363657373436f6e74726f6c3a206163636f756e7420000000000000000000600082015250565b6000613bf3601783613acb565b9150613bfe82613bbd565b601782019050919050565b7f206973206d697373696e6720726f6c6520000000000000000000000000000000600082015250565b6000613c3f601183613acb565b9150613c4a82613c09565b601182019050919050565b6000613c6082613be6565b9150613c6c8285613ad6565b9150613c7782613c32565b9150613c838284613ad6565b91508190509392505050565b600081519050919050565b600082825260208201905092915050565b6000613cb682613c8f565b613cc08185613c9a565b9350613cd0818560208601612b6d565b613cd981612ba0565b840191505092915050565b6000608082019050613cf96000830187612ca1565b613d066020830186612ca1565b613d136040830185612f9b565b8181036060830152613d258184613cab565b905095945050505050565b600081519050613d3f81612ac2565b92915050565b600060208284031215613d5b57613d5a612a8c565b5b6000613d6984828501613d30565b91505092915050565b6000613d7d82612c0c565b9150613d8883612c0c565b9250817fffffffffffffffffffffffffffffffffffffffffffffffffffffffffffffffff0483118215151615613dc157613dc06137da565b5b828202905092915050565b6000613dd782612c0c565b9150613de283612c0c565b9250827fffffffffffffffffffffffffffffffffffffffffffffffffffffffffffffffff03821115613e1757613e166137da565b5b828201905092915050565b7f4e487b7100000000000000000000000000000000000000000000000000000000600052603260045260246000fd5b6000613e5c82612c0c565b91506000821415613e7057613e6f6137da565b5b600182039050919050565b7f537472696e67733a20686578206c656e67746820696e73756666696369656e74600082015250565b6000613eb1602083612b5c565b9150613ebc82613e7b565b602082019050919050565b60006020820190508181036000830152613ee081613ea4565b9050919050565b7f4e487b7100000000000000000000000000000000000000000000000000000000600052601260045260246000fd5b7f4552433732313a206d696e7420746f20746865207a65726f2061646472657373600082015250565b6000613f4c602083612b5c565b9150613f5782613f16565b602082019050919050565b60006020820190508181036000830152613f7b81613f3f565b9050919050565b7f4552433732313a20746f6b656e20616c7265616479206d696e74656400000000600082015250565b6000613fb8601c83612b5c565b9150613fc382613f82565b602082019050919050565b60006020820190508181036000830152613fe781613fab565b905091905056fea2646970667358221220a0450a96eabb7b6c891cea852c2cdeba540df32c1f2d9cc3d7cc380978410f1564736f6c63430008090033",
  "linkReferences": {},
  "deployedLinkReferences": {}
}