{
  "_format": "hh-sol-artifact-1",
  "contractName": "NftERC721",
  "sourceName": "contracts/NftERC721.sol",
  "abi": [
    {
      "inputs": [
        {
          "internalType": "string",
          "name": "_collectionName",
          "type": "string"
        },
        {
          "internalType": "string",
          "name": "_token",
          "type": "string"
        }
      ],
      "stateMutability": "payable",
      "type": "constructor"
    },
    {
      "anonymous": false,
      "inputs": [
        {
          "indexed": true,
          "internalType": "address",
          "name": "owner",
          "type": "address"
        },
        {
          "indexed": true,
          "internalType": "address",
          "name": "approved",
          "type": "address"
        },
        {
          "indexed": true,
          "internalType": "uint256",
          "name": "tokenId",
          "type": "uint256"
        }
      ],
      "name": "Approval",
      "type": "event"
    },
    {
      "anonymous": false,
      "inputs": [
        {
          "indexed": true,
          "internalType": "address",
          "name": "owner",
          "type": "address"
        },
        {
          "indexed": true,
          "internalType": "address",
          "name": "operator",
          "type": "address"
        },
        {
          "indexed": false,
          "internalType": "bool",
          "name": "approved",
          "type": "bool"
        }
      ],
      "name": "ApprovalForAll",
      "type": "event"
    },
    {
      "anonymous": false,
      "inputs": [
        {
          "indexed": false,
          "internalType": "address",
          "name": "member",
          "type": "address"
        },
        {
          "indexed": false,
          "internalType": "bytes32",
          "name": "roleId",
          "type": "bytes32"
        }
      ],
      "name": "MemberAdded",
      "type": "event"
    },
    {
      "anonymous": false,
      "inputs": [
        {
          "indexed": false,
          "internalType": "address",
          "name": "member",
          "type": "address"
        },
        {
          "indexed": false,
          "internalType": "bytes32",
          "name": "roleId",
          "type": "bytes32"
        }
      ],
      "name": "MemberRemoved",
      "type": "event"
    },
    {
      "anonymous": false,
      "inputs": [
        {
          "indexed": false,
          "internalType": "bool",
          "name": "isMinted",
          "type": "bool"
        }
      ],
      "name": "NftMinted",
      "type": "event"
    },
    {
      "anonymous": false,
      "inputs": [
        {
          "indexed": false,
          "internalType": "bytes32",
          "name": "roleId",
          "type": "bytes32"
        }
      ],
      "name": "RoleCreated",
      "type": "event"
    },
    {
      "anonymous": false,
      "inputs": [
        {
          "indexed": false,
          "internalType": "bytes32",
          "name": "roleId",
          "type": "bytes32"
        }
      ],
      "name": "RoleRemoved",
      "type": "event"
    },
    {
      "anonymous": false,
      "inputs": [
        {
          "indexed": true,
          "internalType": "address",
          "name": "from",
          "type": "address"
        },
        {
          "indexed": true,
          "internalType": "address",
          "name": "to",
          "type": "address"
        },
        {
          "indexed": true,
          "internalType": "uint256",
          "name": "tokenId",
          "type": "uint256"
        }
      ],
      "name": "Transfer",
      "type": "event"
    },
    {
      "inputs": [],
      "name": "ROOT_ROLE",
      "outputs": [
        {
          "internalType": "bytes32",
          "name": "",
          "type": "bytes32"
        }
      ],
      "stateMutability": "view",
      "type": "function"
    },
    {
      "inputs": [
        {
          "internalType": "address",
          "name": "_member",
          "type": "address"
        },
        {
          "internalType": "bytes32",
          "name": "_roleId",
          "type": "bytes32"
        }
      ],
      "name": "addMember",
      "outputs": [],
      "stateMutability": "nonpayable",
      "type": "function"
    },
    {
      "inputs": [
        {
          "internalType": "address",
          "name": "to",
          "type": "address"
        },
        {
          "internalType": "uint256",
          "name": "tokenId",
          "type": "uint256"
        }
      ],
      "name": "approve",
      "outputs": [],
      "stateMutability": "nonpayable",
      "type": "function"
    },
    {
      "inputs": [
        {
          "internalType": "address",
          "name": "owner",
          "type": "address"
        }
      ],
      "name": "balanceOf",
      "outputs": [
        {
          "internalType": "uint256",
          "name": "",
          "type": "uint256"
        }
      ],
      "stateMutability": "view",
      "type": "function"
    },
    {
      "inputs": [
        {
          "internalType": "string",
          "name": "a",
          "type": "string"
        },
        {
          "internalType": "string",
          "name": "b",
          "type": "string"
        }
      ],
      "name": "compareStrings",
      "outputs": [
        {
          "internalType": "bool",
          "name": "",
          "type": "bool"
        }
      ],
      "stateMutability": "pure",
      "type": "function"
    },
    {
      "inputs": [
        {
          "internalType": "uint256",
          "name": "tokenId",
          "type": "uint256"
        }
      ],
      "name": "getApproved",
      "outputs": [
        {
          "internalType": "address",
          "name": "",
          "type": "address"
        }
      ],
      "stateMutability": "view",
      "type": "function"
    },
    {
      "inputs": [
        {
          "internalType": "address",
          "name": "_member",
          "type": "address"
        },
        {
          "internalType": "bytes32",
          "name": "_roleId",
          "type": "bytes32"
        }
      ],
      "name": "hasRole",
      "outputs": [
        {
          "internalType": "bool",
          "name": "",
          "type": "bool"
        }
      ],
      "stateMutability": "view",
      "type": "function"
    },
    {
      "inputs": [],
      "name": "idCounter",
      "outputs": [
        {
          "internalType": "uint256",
          "name": "",
          "type": "uint256"
        }
      ],
      "stateMutability": "view",
      "type": "function"
    },
    {
      "inputs": [
        {
          "internalType": "address",
          "name": "owner",
          "type": "address"
        },
        {
          "internalType": "address",
          "name": "operator",
          "type": "address"
        }
      ],
      "name": "isApprovedForAll",
      "outputs": [
        {
          "internalType": "bool",
          "name": "",
          "type": "bool"
        }
      ],
      "stateMutability": "view",
      "type": "function"
    },
    {
      "inputs": [],
      "name": "lastMinted",
      "outputs": [
        {
          "internalType": "string",
          "name": "",
          "type": "string"
        }
      ],
      "stateMutability": "view",
      "type": "function"
    },
    {
      "inputs": [],
      "name": "name",
      "outputs": [
        {
          "internalType": "string",
          "name": "",
          "type": "string"
        }
      ],
      "stateMutability": "view",
      "type": "function"
    },
    {
      "inputs": [],
      "name": "owner",
      "outputs": [
        {
          "internalType": "address",
          "name": "",
          "type": "address"
        }
      ],
      "stateMutability": "view",
      "type": "function"
    },
    {
      "inputs": [
        {
          "internalType": "uint256",
          "name": "tokenId",
          "type": "uint256"
        }
      ],
      "name": "ownerOf",
      "outputs": [
        {
          "internalType": "address",
          "name": "",
          "type": "address"
        }
      ],
      "stateMutability": "view",
      "type": "function"
    },
    {
      "inputs": [
        {
          "internalType": "address",
          "name": "_member",
          "type": "address"
        },
        {
          "internalType": "bytes32",
          "name": "_roleId",
          "type": "bytes32"
        }
      ],
      "name": "removeMember",
      "outputs": [],
      "stateMutability": "nonpayable",
      "type": "function"
    },
    {
      "inputs": [
        {
          "internalType": "bytes32",
          "name": "_roleId",
          "type": "bytes32"
        }
      ],
      "name": "roleExists",
      "outputs": [
        {
          "internalType": "bool",
          "name": "",
          "type": "bool"
        }
      ],
      "stateMutability": "view",
      "type": "function"
    },
    {
      "inputs": [
        {
          "internalType": "address",
          "name": "to",
          "type": "address"
        },
        {
          "internalType": "string",
          "name": "ipfsUri",
          "type": "string"
        }
      ],
      "name": "safeMint",
      "outputs": [],
      "stateMutability": "nonpayable",
      "type": "function"
    },
    {
      "inputs": [
        {
          "internalType": "address",
          "name": "from",
          "type": "address"
        },
        {
          "internalType": "address",
          "name": "to",
          "type": "address"
        },
        {
          "internalType": "uint256",
          "name": "tokenId",
          "type": "uint256"
        }
      ],
      "name": "safeTransferFrom",
      "outputs": [],
      "stateMutability": "nonpayable",
      "type": "function"
    },
    {
      "inputs": [
        {
          "internalType": "address",
          "name": "from",
          "type": "address"
        },
        {
          "internalType": "address",
          "name": "to",
          "type": "address"
        },
        {
          "internalType": "uint256",
          "name": "tokenId",
          "type": "uint256"
        },
        {
          "internalType": "bytes",
          "name": "data",
          "type": "bytes"
        }
      ],
      "name": "safeTransferFrom",
      "outputs": [],
      "stateMutability": "nonpayable",
      "type": "function"
    },
    {
      "inputs": [
        {
          "internalType": "address",
          "name": "operator",
          "type": "address"
        },
        {
          "internalType": "bool",
          "name": "approved",
          "type": "bool"
        }
      ],
      "name": "setApprovalForAll",
      "outputs": [],
      "stateMutability": "nonpayable",
      "type": "function"
    },
    {
      "inputs": [
        {
          "internalType": "bytes4",
          "name": "interfaceId",
          "type": "bytes4"
        }
      ],
      "name": "supportsInterface",
      "outputs": [
        {
          "internalType": "bool",
          "name": "",
          "type": "bool"
        }
      ],
      "stateMutability": "view",
      "type": "function"
    },
    {
      "inputs": [],
      "name": "symbol",
      "outputs": [
        {
          "internalType": "string",
          "name": "",
          "type": "string"
        }
      ],
      "stateMutability": "view",
      "type": "function"
    },
    {
      "inputs": [],
      "name": "tokenIdCounter",
      "outputs": [
        {
          "internalType": "uint256",
          "name": "_value",
          "type": "uint256"
        }
      ],
      "stateMutability": "view",
      "type": "function"
    },
    {
      "inputs": [
        {
          "internalType": "uint256",
          "name": "tokenId",
          "type": "uint256"
        }
      ],
      "name": "tokenURI",
      "outputs": [
        {
          "internalType": "string",
          "name": "",
          "type": "string"
        }
      ],
      "stateMutability": "view",
      "type": "function"
    },
    {
      "inputs": [
        {
          "internalType": "address",
          "name": "from",
          "type": "address"
        },
        {
          "internalType": "address",
          "name": "to",
          "type": "address"
        },
        {
          "internalType": "uint256",
          "name": "tokenId",
          "type": "uint256"
        }
      ],
      "name": "transferFrom",
      "outputs": [],
      "stateMutability": "nonpayable",
      "type": "function"
    }
  ],
  "bytecode": "0x60806040526040516200390d3803806200390d8339818101604052810190620000299190620003cb565b81818160009080519060200190620000439291906200017e565b5080600190805190602001906200005c9291906200017e565b50505033600760006101000a81548173ffffffffffffffffffffffffffffffffffffffff021916908373ffffffffffffffffffffffffffffffffffffffff1602179055506000600960008060001b815260200190815260200160002090507f524f4f54000000000000000000000000000000000000000000000000000000008160010181905550600160096000836001015481526020019081526020016000206002016000600760009054906101000a900473ffffffffffffffffffffffffffffffffffffffff1673ffffffffffffffffffffffffffffffffffffffff1673ffffffffffffffffffffffffffffffffffffffff16815260200190815260200160002060006101000a81548160ff021916908315150217905550505050620004b5565b8280546200018c906200047f565b90600052602060002090601f016020900481019282620001b05760008555620001fc565b82601f10620001cb57805160ff1916838001178555620001fc565b82800160010185558215620001fc579182015b82811115620001fb578251825591602001919060010190620001de565b5b5090506200020b91906200020f565b5090565b5b808211156200022a57600081600090555060010162000210565b5090565b6000604051905090565b600080fd5b600080fd5b600080fd5b600080fd5b6000601f19601f8301169050919050565b7f4e487b7100000000000000000000000000000000000000000000000000000000600052604160045260246000fd5b62000297826200024c565b810181811067ffffffffffffffff82111715620002b957620002b86200025d565b5b80604052505050565b6000620002ce6200022e565b9050620002dc82826200028c565b919050565b600067ffffffffffffffff821115620002ff57620002fe6200025d565b5b6200030a826200024c565b9050602081019050919050565b60005b83811015620003375780820151818401526020810190506200031a565b8381111562000347576000848401525b50505050565b6000620003646200035e84620002e1565b620002c2565b90508281526020810184848401111562000383576200038262000247565b5b6200039084828562000317565b509392505050565b600082601f830112620003b057620003af62000242565b5b8151620003c28482602086016200034d565b91505092915050565b60008060408385031215620003e557620003e462000238565b5b600083015167ffffffffffffffff8111156200040657620004056200023d565b5b620004148582860162000398565b925050602083015167ffffffffffffffff8111156200043857620004376200023d565b5b620004468582860162000398565b9150509250929050565b7f4e487b7100000000000000000000000000000000000000000000000000000000600052602260045260246000fd5b600060028204905060018216806200049857607f821691505b60208210811415620004af57620004ae62000450565b5b50919050565b61344880620004c56000396000f3fe608060405234801561001057600080fd5b50600436106101585760003560e01c806398bdf6f5116100c3578063bed34bba1161007c578063bed34bba146103d9578063c87b56dd14610409578063ca7ca5b414610439578063d204c45e14610455578063e985e9c514610471578063eb08ab28146104a157610158565b806398bdf6f514610305578063a22cb46514610323578063ac4ab3fb1461033f578063b41406f91461036f578063b88d4fde1461039f578063bbc19ab0146103bb57610158565b806349df72081161011557806349df72081461022f5780636352211e1461024b57806370a082311461027b5780637e8c7f08146102ab5780638da5cb5b146102c957806395d89b41146102e757610158565b806301ffc9a71461015d57806306fdde031461018d578063081812fc146101ab578063095ea7b3146101db57806323b872dd146101f757806342842e0e14610213575b600080fd5b610177600480360381019061017291906121a7565b6104bf565b60405161018491906121ef565b60405180910390f35b6101956105a1565b6040516101a291906122a3565b60405180910390f35b6101c560048036038101906101c091906122fb565b610633565b6040516101d29190612369565b60405180910390f35b6101f560048036038101906101f091906123b0565b610679565b005b610211600480360381019061020c91906123f0565b610791565b005b61022d600480360381019061022891906123f0565b6107f1565b005b61024960048036038101906102449190612479565b610811565b005b610265600480360381019061026091906122fb565b6109ab565b6040516102729190612369565b60405180910390f35b610295600480360381019061029091906124b9565b610a32565b6040516102a291906124f5565b60405180910390f35b6102b3610aea565b6040516102c0919061251f565b60405180910390f35b6102d1610b0e565b6040516102de9190612369565b60405180910390f35b6102ef610b34565b6040516102fc91906122a3565b60405180910390f35b61030d610bc6565b60405161031a91906124f5565b60405180910390f35b61033d60048036038101906103389190612566565b610bd2565b005b61035960048036038101906103549190612479565b610be8565b60405161036691906121ef565b60405180910390f35b610389600480360381019061038491906125a6565b610c9b565b60405161039691906121ef565b60405180910390f35b6103b960048036038101906103b49190612708565b610cc8565b005b6103c3610d2a565b6040516103d091906122a3565b60405180910390f35b6103f360048036038101906103ee919061282c565b610d91565b60405161040091906121ef565b60405180910390f35b610423600480360381019061041e91906122fb565b610dea565b60405161043091906122a3565b60405180910390f35b610453600480360381019061044e9190612479565b610dfc565b005b61046f600480360381019061046a91906128a4565b610f8c565b005b61048b60048036038101906104869190612900565b610ff5565b60405161049891906121ef565b60405180910390f35b6104a9611089565b6040516104b691906124f5565b60405180910390f35b60007f80ac58cd000000000000000000000000000000000000000000000000000000007bffffffffffffffffffffffffffffffffffffffffffffffffffffffff1916827bffffffffffffffffffffffffffffffffffffffffffffffffffffffff1916148061058a57507f5b5e139f000000000000000000000000000000000000000000000000000000007bffffffffffffffffffffffffffffffffffffffffffffffffffffffff1916827bffffffffffffffffffffffffffffffffffffffffffffffffffffffff1916145b8061059a57506105998261109a565b5b9050919050565b6060600080546105b09061296f565b80601f01602080910402602001604051908101604052809291908181526020018280546105dc9061296f565b80156106295780601f106105fe57610100808354040283529160200191610629565b820191906000526020600020905b81548152906001019060200180831161060c57829003601f168201915b5050505050905090565b600061063e82611104565b6004600083815260200190815260200160002060009054906101000a900473ffffffffffffffffffffffffffffffffffffffff169050919050565b6000610684826109ab565b90508073ffffffffffffffffffffffffffffffffffffffff168373ffffffffffffffffffffffffffffffffffffffff1614156106f5576040517f08c379a00000000000000000000000000000000000000000000000000000000081526004016106ec90612a13565b60405180910390fd5b8073ffffffffffffffffffffffffffffffffffffffff1661071461114f565b73ffffffffffffffffffffffffffffffffffffffff16148061074357506107428161073d61114f565b610ff5565b5b610782576040517f08c379a000000000000000000000000000000000000000000000000000000000815260040161077990612aa5565b60405180910390fd5b61078c8383611157565b505050565b6107a261079c61114f565b82611210565b6107e1576040517f08c379a00000000000000000000000000000000000000000000000000000000081526004016107d890612b37565b60405180910390fd5b6107ec8383836112a5565b505050565b61080c83838360405180602001604052806000815250610cc8565b505050565b61081a81610c9b565b610859576040517f08c379a000000000000000000000000000000000000000000000000000000000815260040161085090612ba3565b60405180910390fd5b610879336009600084815260200190815260200160002060010154610be8565b6108b8576040517f08c379a00000000000000000000000000000000000000000000000000000000081526004016108af90612c0f565b60405180910390fd5b6108c28282610be8565b15610902576040517f08c379a00000000000000000000000000000000000000000000000000000000081526004016108f990612c7b565b60405180910390fd5b60016009600083815260200190815260200160002060020160008473ffffffffffffffffffffffffffffffffffffffff1673ffffffffffffffffffffffffffffffffffffffff16815260200190815260200160002060006101000a81548160ff0219169083151502179055507fefa218b911bf678a6f21f2b3d02057e2eccecfd8a6310eeb77b66e4cb37e9025828260405161099f929190612c9b565b60405180910390a15050565b6000806109b78361159f565b9050600073ffffffffffffffffffffffffffffffffffffffff168173ffffffffffffffffffffffffffffffffffffffff161415610a29576040517f08c379a0000000000000000000000000000000000000000000000000000000008152600401610a2090612d10565b60405180910390fd5b80915050919050565b60008073ffffffffffffffffffffffffffffffffffffffff168273ffffffffffffffffffffffffffffffffffffffff161415610aa3576040517f08c379a0000000000000000000000000000000000000000000000000000000008152600401610a9a90612da2565b60405180910390fd5b600360008373ffffffffffffffffffffffffffffffffffffffff1673ffffffffffffffffffffffffffffffffffffffff168152602001908152602001600020549050919050565b7f524f4f540000000000000000000000000000000000000000000000000000000081565b600760009054906101000a900473ffffffffffffffffffffffffffffffffffffffff1681565b606060018054610b439061296f565b80601f0160208091040260200160405190810160405280929190818152602001828054610b6f9061296f565b8015610bbc5780601f10610b9157610100808354040283529160200191610bbc565b820191906000526020600020905b815481529060010190602001808311610b9f57829003601f168201915b5050505050905090565b60088060000154905081565b610be4610bdd61114f565b83836115dc565b5050565b6000610bf382610c9b565b610c32576040517f08c379a0000000000000000000000000000000000000000000000000000000008152600401610c2990612ba3565b60405180910390fd5b6009600083815260200190815260200160002060020160008473ffffffffffffffffffffffffffffffffffffffff1673ffffffffffffffffffffffffffffffffffffffff16815260200190815260200160002060009054906101000a900460ff16905092915050565b60006009600083815260200190815260200160002060000160009054906101000a900460ff169050919050565b610cd9610cd361114f565b83611210565b610d18576040517f08c379a0000000000000000000000000000000000000000000000000000000008152600401610d0f90612b37565b60405180910390fd5b610d2484848484611749565b50505050565b60606000610d3860086117a5565b90506000811415610d5b5760405180602001604052806000815250915050610d8e565b6000811115610d8157610d79600182610d749190612df1565b610dea565b915050610d8e565b610d8a81610dea565b9150505b90565b600081604051602001610da49190612e61565b6040516020818303038152906040528051906020012083604051602001610dcb9190612e61565b6040516020818303038152906040528051906020012014905092915050565b6060610df5826117b3565b9050919050565b610e0581610c9b565b610e44576040517f08c379a0000000000000000000000000000000000000000000000000000000008152600401610e3b90612ba3565b60405180910390fd5b610e64336009600084815260200190815260200160002060010154610be8565b610ea3576040517f08c379a0000000000000000000000000000000000000000000000000000000008152600401610e9a90612ec4565b60405180910390fd5b610ead8282610be8565b610eec576040517f08c379a0000000000000000000000000000000000000000000000000000000008152600401610ee390612f30565b60405180910390fd5b6009600082815260200190815260200160002060020160008373ffffffffffffffffffffffffffffffffffffffff1673ffffffffffffffffffffffffffffffffffffffff16815260200190815260200160002060006101000a81549060ff02191690557fbd1f9a02c9ef3c31bebe4c93654b10bf2693f6db933277e6896355ae68c8aac78282604051610f80929190612c9b565b60405180910390a15050565b6000610f9860086117a5565b9050610fa460086118c6565b610fae83826118dc565b610fb881836118fa565b7f20ca71800840a1730c265dcac5f68ec9daffe929561a6ed11f49ada5e4f7a31a6001604051610fe891906121ef565b60405180910390a1505050565b6000600560008473ffffffffffffffffffffffffffffffffffffffff1673ffffffffffffffffffffffffffffffffffffffff16815260200190815260200160002060008373ffffffffffffffffffffffffffffffffffffffff1673ffffffffffffffffffffffffffffffffffffffff16815260200190815260200160002060009054906101000a900460ff16905092915050565b600061109560086117a5565b905090565b60007f01ffc9a7000000000000000000000000000000000000000000000000000000007bffffffffffffffffffffffffffffffffffffffffffffffffffffffff1916827bffffffffffffffffffffffffffffffffffffffffffffffffffffffff1916149050919050565b61110d8161196e565b61114c576040517f08c379a000000000000000000000000000000000000000000000000000000000815260040161114390612d10565b60405180910390fd5b50565b600033905090565b816004600083815260200190815260200160002060006101000a81548173ffffffffffffffffffffffffffffffffffffffff021916908373ffffffffffffffffffffffffffffffffffffffff160217905550808273ffffffffffffffffffffffffffffffffffffffff166111ca836109ab565b73ffffffffffffffffffffffffffffffffffffffff167f8c5be1e5ebec7d5bd14f71427d1e84f3dd0314c0f7b2291e5b200ac8c7c3b92560405160405180910390a45050565b60008061121c836109ab565b90508073ffffffffffffffffffffffffffffffffffffffff168473ffffffffffffffffffffffffffffffffffffffff16148061125e575061125d8185610ff5565b5b8061129c57508373ffffffffffffffffffffffffffffffffffffffff1661128484610633565b73ffffffffffffffffffffffffffffffffffffffff16145b91505092915050565b8273ffffffffffffffffffffffffffffffffffffffff166112c5826109ab565b73ffffffffffffffffffffffffffffffffffffffff161461131b576040517f08c379a000000000000000000000000000000000000000000000000000000000815260040161131290612fc2565b60405180910390fd5b600073ffffffffffffffffffffffffffffffffffffffff168273ffffffffffffffffffffffffffffffffffffffff16141561138b576040517f08c379a000000000000000000000000000000000000000000000000000000000815260040161138290613054565b60405180910390fd5b61139883838360016119af565b8273ffffffffffffffffffffffffffffffffffffffff166113b8826109ab565b73ffffffffffffffffffffffffffffffffffffffff161461140e576040517f08c379a000000000000000000000000000000000000000000000000000000000815260040161140590612fc2565b60405180910390fd5b6004600082815260200190815260200160002060006101000a81549073ffffffffffffffffffffffffffffffffffffffff02191690556001600360008573ffffffffffffffffffffffffffffffffffffffff1673ffffffffffffffffffffffffffffffffffffffff168152602001908152602001600020600082825403925050819055506001600360008473ffffffffffffffffffffffffffffffffffffffff1673ffffffffffffffffffffffffffffffffffffffff16815260200190815260200160002060008282540192505081905550816002600083815260200190815260200160002060006101000a81548173ffffffffffffffffffffffffffffffffffffffff021916908373ffffffffffffffffffffffffffffffffffffffff160217905550808273ffffffffffffffffffffffffffffffffffffffff168473ffffffffffffffffffffffffffffffffffffffff167fddf252ad1be2c89b69c2b068fc378daa952ba7f163c4a11628f55a4df523b3ef60405160405180910390a461159a83838360016119b5565b505050565b60006002600083815260200190815260200160002060009054906101000a900473ffffffffffffffffffffffffffffffffffffffff169050919050565b8173ffffffffffffffffffffffffffffffffffffffff168373ffffffffffffffffffffffffffffffffffffffff16141561164b576040517f08c379a0000000000000000000000000000000000000000000000000000000008152600401611642906130c0565b60405180910390fd5b80600560008573ffffffffffffffffffffffffffffffffffffffff1673ffffffffffffffffffffffffffffffffffffffff16815260200190815260200160002060008473ffffffffffffffffffffffffffffffffffffffff1673ffffffffffffffffffffffffffffffffffffffff16815260200190815260200160002060006101000a81548160ff0219169083151502179055508173ffffffffffffffffffffffffffffffffffffffff168373ffffffffffffffffffffffffffffffffffffffff167f17307eab39ab6107e8899845ad3d59bd9653f200f220920489ca2b5937696c318360405161173c91906121ef565b60405180910390a3505050565b6117548484846112a5565b611760848484846119bb565b61179f576040517f08c379a000000000000000000000000000000000000000000000000000000000815260040161179690613152565b60405180910390fd5b50505050565b600081600001549050919050565b60606117be82611104565b60006006600084815260200190815260200160002080546117de9061296f565b80601f016020809104026020016040519081016040528092919081815260200182805461180a9061296f565b80156118575780601f1061182c57610100808354040283529160200191611857565b820191906000526020600020905b81548152906001019060200180831161183a57829003601f168201915b505050505090506000611868611b52565b905060008151141561187e5781925050506118c1565b6000825111156118b357808260405160200161189b929190613172565b604051602081830303815290604052925050506118c1565b6118bc84611b69565b925050505b919050565b6001816000016000828254019250508190555050565b6118f6828260405180602001604052806000815250611bd1565b5050565b6119038261196e565b611942576040517f08c379a000000000000000000000000000000000000000000000000000000000815260040161193990613208565b60405180910390fd5b80600660008481526020019081526020016000209080519060200190611969929190612098565b505050565b60008073ffffffffffffffffffffffffffffffffffffffff166119908361159f565b73ffffffffffffffffffffffffffffffffffffffff1614159050919050565b50505050565b50505050565b60006119dc8473ffffffffffffffffffffffffffffffffffffffff16611c2c565b15611b45578373ffffffffffffffffffffffffffffffffffffffff1663150b7a02611a0561114f565b8786866040518563ffffffff1660e01b8152600401611a27949392919061327d565b602060405180830381600087803b158015611a4157600080fd5b505af1925050508015611a7257506040513d601f19601f82011682018060405250810190611a6f91906132de565b60015b611af5573d8060008114611aa2576040519150601f19603f3d011682016040523d82523d6000602084013e611aa7565b606091505b50600081511415611aed576040517f08c379a0000000000000000000000000000000000000000000000000000000008152600401611ae490613152565b60405180910390fd5b805181602001fd5b63150b7a0260e01b7bffffffffffffffffffffffffffffffffffffffffffffffffffffffff1916817bffffffffffffffffffffffffffffffffffffffffffffffffffffffff191614915050611b4a565b600190505b949350505050565b606060405180602001604052806000815250905090565b6060611b7482611104565b6000611b7e611b52565b90506000815111611b9e5760405180602001604052806000815250611bc9565b80611ba884611c4f565b604051602001611bb9929190613172565b6040516020818303038152906040525b915050919050565b611bdb8383611d27565b611be860008484846119bb565b611c27576040517f08c379a0000000000000000000000000000000000000000000000000000000008152600401611c1e90613152565b60405180910390fd5b505050565b6000808273ffffffffffffffffffffffffffffffffffffffff163b119050919050565b606060006001611c5e84611f45565b01905060008167ffffffffffffffff811115611c7d57611c7c6125dd565b5b6040519080825280601f01601f191660200182016040528015611caf5781602001600182028036833780820191505090505b509050600082602001820190505b600115611d1c578080600190039150507f3031323334353637383961626364656600000000000000000000000000000000600a86061a8153600a8581611d0657611d0561330b565b5b0494506000851415611d1757611d1c565b611cbd565b819350505050919050565b600073ffffffffffffffffffffffffffffffffffffffff168273ffffffffffffffffffffffffffffffffffffffff161415611d97576040517f08c379a0000000000000000000000000000000000000000000000000000000008152600401611d8e90613386565b60405180910390fd5b611da08161196e565b15611de0576040517f08c379a0000000000000000000000000000000000000000000000000000000008152600401611dd7906133f2565b60405180910390fd5b611dee6000838360016119af565b611df78161196e565b15611e37576040517f08c379a0000000000000000000000000000000000000000000000000000000008152600401611e2e906133f2565b60405180910390fd5b6001600360008473ffffffffffffffffffffffffffffffffffffffff1673ffffffffffffffffffffffffffffffffffffffff16815260200190815260200160002060008282540192505081905550816002600083815260200190815260200160002060006101000a81548173ffffffffffffffffffffffffffffffffffffffff021916908373ffffffffffffffffffffffffffffffffffffffff160217905550808273ffffffffffffffffffffffffffffffffffffffff16600073ffffffffffffffffffffffffffffffffffffffff167fddf252ad1be2c89b69c2b068fc378daa952ba7f163c4a11628f55a4df523b3ef60405160405180910390a4611f416000838360016119b5565b5050565b600080600090507a184f03e93ff9f4daa797ed6e38ed64bf6a1f0100000000000000008310611fa3577a184f03e93ff9f4daa797ed6e38ed64bf6a1f0100000000000000008381611f9957611f9861330b565b5b0492506040810190505b6d04ee2d6d415b85acef81000000008310611fe0576d04ee2d6d415b85acef81000000008381611fd657611fd561330b565b5b0492506020810190505b662386f26fc10000831061200f57662386f26fc1000083816120055761200461330b565b5b0492506010810190505b6305f5e1008310612038576305f5e100838161202e5761202d61330b565b5b0492506008810190505b612710831061205d5761271083816120535761205261330b565b5b0492506004810190505b6064831061208057606483816120765761207561330b565b5b0492506002810190505b600a831061208f576001810190505b80915050919050565b8280546120a49061296f565b90600052602060002090601f0160209004810192826120c6576000855561210d565b82601f106120df57805160ff191683800117855561210d565b8280016001018555821561210d579182015b8281111561210c5782518255916020019190600101906120f1565b5b50905061211a919061211e565b5090565b5b8082111561213757600081600090555060010161211f565b5090565b6000604051905090565b600080fd5b600080fd5b60007fffffffff0000000000000000000000000000000000000000000000000000000082169050919050565b6121848161214f565b811461218f57600080fd5b50565b6000813590506121a18161217b565b92915050565b6000602082840312156121bd576121bc612145565b5b60006121cb84828501612192565b91505092915050565b60008115159050919050565b6121e9816121d4565b82525050565b600060208201905061220460008301846121e0565b92915050565b600081519050919050565b600082825260208201905092915050565b60005b83811015612244578082015181840152602081019050612229565b83811115612253576000848401525b50505050565b6000601f19601f8301169050919050565b60006122758261220a565b61227f8185612215565b935061228f818560208601612226565b61229881612259565b840191505092915050565b600060208201905081810360008301526122bd818461226a565b905092915050565b6000819050919050565b6122d8816122c5565b81146122e357600080fd5b50565b6000813590506122f5816122cf565b92915050565b60006020828403121561231157612310612145565b5b600061231f848285016122e6565b91505092915050565b600073ffffffffffffffffffffffffffffffffffffffff82169050919050565b600061235382612328565b9050919050565b61236381612348565b82525050565b600060208201905061237e600083018461235a565b92915050565b61238d81612348565b811461239857600080fd5b50565b6000813590506123aa81612384565b92915050565b600080604083850312156123c7576123c6612145565b5b60006123d58582860161239b565b92505060206123e6858286016122e6565b9150509250929050565b60008060006060848603121561240957612408612145565b5b60006124178682870161239b565b93505060206124288682870161239b565b9250506040612439868287016122e6565b9150509250925092565b6000819050919050565b61245681612443565b811461246157600080fd5b50565b6000813590506124738161244d565b92915050565b600080604083850312156124905761248f612145565b5b600061249e8582860161239b565b92505060206124af85828601612464565b9150509250929050565b6000602082840312156124cf576124ce612145565b5b60006124dd8482850161239b565b91505092915050565b6124ef816122c5565b82525050565b600060208201905061250a60008301846124e6565b92915050565b61251981612443565b82525050565b60006020820190506125346000830184612510565b92915050565b612543816121d4565b811461254e57600080fd5b50565b6000813590506125608161253a565b92915050565b6000806040838503121561257d5761257c612145565b5b600061258b8582860161239b565b925050602061259c85828601612551565b9150509250929050565b6000602082840312156125bc576125bb612145565b5b60006125ca84828501612464565b91505092915050565b600080fd5b600080fd5b7f4e487b7100000000000000000000000000000000000000000000000000000000600052604160045260246000fd5b61261582612259565b810181811067ffffffffffffffff82111715612634576126336125dd565b5b80604052505050565b600061264761213b565b9050612653828261260c565b919050565b600067ffffffffffffffff821115612673576126726125dd565b5b61267c82612259565b9050602081019050919050565b82818337600083830152505050565b60006126ab6126a684612658565b61263d565b9050828152602081018484840111156126c7576126c66125d8565b5b6126d2848285612689565b509392505050565b600082601f8301126126ef576126ee6125d3565b5b81356126ff848260208601612698565b91505092915050565b6000806000806080858703121561272257612721612145565b5b60006127308782880161239b565b94505060206127418782880161239b565b9350506040612752878288016122e6565b925050606085013567ffffffffffffffff8111156127735761277261214a565b5b61277f878288016126da565b91505092959194509250565b600067ffffffffffffffff8211156127a6576127a56125dd565b5b6127af82612259565b9050602081019050919050565b60006127cf6127ca8461278b565b61263d565b9050828152602081018484840111156127eb576127ea6125d8565b5b6127f6848285612689565b509392505050565b600082601f830112612813576128126125d3565b5b81356128238482602086016127bc565b91505092915050565b6000806040838503121561284357612842612145565b5b600083013567ffffffffffffffff8111156128615761286061214a565b5b61286d858286016127fe565b925050602083013567ffffffffffffffff81111561288e5761288d61214a565b5b61289a858286016127fe565b9150509250929050565b600080604083850312156128bb576128ba612145565b5b60006128c98582860161239b565b925050602083013567ffffffffffffffff8111156128ea576128e961214a565b5b6128f6858286016127fe565b9150509250929050565b6000806040838503121561291757612916612145565b5b60006129258582860161239b565b92505060206129368582860161239b565b9150509250929050565b7f4e487b7100000000000000000000000000000000000000000000000000000000600052602260045260246000fd5b6000600282049050600182168061298757607f821691505b6020821081141561299b5761299a612940565b5b50919050565b7f4552433732313a20617070726f76616c20746f2063757272656e74206f776e6560008201527f7200000000000000000000000000000000000000000000000000000000000000602082015250565b60006129fd602183612215565b9150612a08826129a1565b604082019050919050565b60006020820190508181036000830152612a2c816129f0565b9050919050565b7f4552433732313a20617070726f76652063616c6c6572206973206e6f7420746f60008201527f6b656e206f776e6572206f7220617070726f76656420666f7220616c6c000000602082015250565b6000612a8f603d83612215565b9150612a9a82612a33565b604082019050919050565b60006020820190508181036000830152612abe81612a82565b9050919050565b7f4552433732313a2063616c6c6572206973206e6f7420746f6b656e206f776e6560008201527f72206f7220617070726f76656400000000000000000000000000000000000000602082015250565b6000612b21602d83612215565b9150612b2c82612ac5565b604082019050919050565b60006020820190508181036000830152612b5081612b14565b9050919050565b7f526f6c6520646f65736e27742065786973742e00000000000000000000000000600082015250565b6000612b8d601383612215565b9150612b9882612b57565b602082019050919050565b60006020820190508181036000830152612bbc81612b80565b9050919050565b7f557365722063616e277420616464206d656d626572732e000000000000000000600082015250565b6000612bf9601783612215565b9150612c0482612bc3565b602082019050919050565b60006020820190508181036000830152612c2881612bec565b9050919050565b7f41646472657373206973206d656d626572206f6620726f6c652e000000000000600082015250565b6000612c65601a83612215565b9150612c7082612c2f565b602082019050919050565b60006020820190508181036000830152612c9481612c58565b9050919050565b6000604082019050612cb0600083018561235a565b612cbd6020830184612510565b9392505050565b7f4552433732313a20696e76616c696420746f6b656e2049440000000000000000600082015250565b6000612cfa601883612215565b9150612d0582612cc4565b602082019050919050565b60006020820190508181036000830152612d2981612ced565b9050919050565b7f4552433732313a2061646472657373207a65726f206973206e6f74206120766160008201527f6c6964206f776e65720000000000000000000000000000000000000000000000602082015250565b6000612d8c602983612215565b9150612d9782612d30565b604082019050919050565b60006020820190508181036000830152612dbb81612d7f565b9050919050565b7f4e487b7100000000000000000000000000000000000000000000000000000000600052601160045260246000fd5b6000612dfc826122c5565b9150612e07836122c5565b925082821015612e1a57612e19612dc2565b5b828203905092915050565b600081905092915050565b6000612e3b8261220a565b612e458185612e25565b9350612e55818560208601612226565b80840191505092915050565b6000612e6d8284612e30565b915081905092915050565b7f557365722063616e27742072656d6f7665206d656d626572732e000000000000600082015250565b6000612eae601a83612215565b9150612eb982612e78565b602082019050919050565b60006020820190508181036000830152612edd81612ea1565b9050919050565b7f41646472657373206973206e6f74206d656d626572206f6620726f6c652e0000600082015250565b6000612f1a601e83612215565b9150612f2582612ee4565b602082019050919050565b60006020820190508181036000830152612f4981612f0d565b9050919050565b7f4552433732313a207472616e736665722066726f6d20696e636f72726563742060008201527f6f776e6572000000000000000000000000000000000000000000000000000000602082015250565b6000612fac602583612215565b9150612fb782612f50565b604082019050919050565b60006020820190508181036000830152612fdb81612f9f565b9050919050565b7f4552433732313a207472616e7366657220746f20746865207a65726f2061646460008201527f7265737300000000000000000000000000000000000000000000000000000000602082015250565b600061303e602483612215565b915061304982612fe2565b604082019050919050565b6000602082019050818103600083015261306d81613031565b9050919050565b7f4552433732313a20617070726f766520746f2063616c6c657200000000000000600082015250565b60006130aa601983612215565b91506130b582613074565b602082019050919050565b600060208201905081810360008301526130d98161309d565b9050919050565b7f4552433732313a207472616e7366657220746f206e6f6e20455243373231526560008201527f63656976657220696d706c656d656e7465720000000000000000000000000000602082015250565b600061313c603283612215565b9150613147826130e0565b604082019050919050565b6000602082019050818103600083015261316b8161312f565b9050919050565b600061317e8285612e30565b915061318a8284612e30565b91508190509392505050565b7f45524337323155524953746f726167653a2055524920736574206f66206e6f6e60008201527f6578697374656e7420746f6b656e000000000000000000000000000000000000602082015250565b60006131f2602e83612215565b91506131fd82613196565b604082019050919050565b60006020820190508181036000830152613221816131e5565b9050919050565b600081519050919050565b600082825260208201905092915050565b600061324f82613228565b6132598185613233565b9350613269818560208601612226565b61327281612259565b840191505092915050565b6000608082019050613292600083018761235a565b61329f602083018661235a565b6132ac60408301856124e6565b81810360608301526132be8184613244565b905095945050505050565b6000815190506132d88161217b565b92915050565b6000602082840312156132f4576132f3612145565b5b6000613302848285016132c9565b91505092915050565b7f4e487b7100000000000000000000000000000000000000000000000000000000600052601260045260246000fd5b7f4552433732313a206d696e7420746f20746865207a65726f2061646472657373600082015250565b6000613370602083612215565b915061337b8261333a565b602082019050919050565b6000602082019050818103600083015261339f81613363565b9050919050565b7f4552433732313a20746f6b656e20616c7265616479206d696e74656400000000600082015250565b60006133dc601c83612215565b91506133e7826133a6565b602082019050919050565b6000602082019050818103600083015261340b816133cf565b905091905056fea26469706673582212208c70a1bf32d2b683c073d5ce82620478fd0a4529fb3b878465ac72ef1ff3e0aa64736f6c63430008090033",
  "linkReferences": {},
  "deployedLinkReferences": {}
}