{
  "_format": "hh-sol-artifact-1",
  "contractName": "NftERC721",
  "sourceName": "contracts/NftERC721.sol",
  "abi": [
    {
      "inputs": [
        {
          "internalType": "string",
          "name": "_collectionName",
          "type": "string"
        },
        {
          "internalType": "string",
          "name": "_token",
          "type": "string"
        }
      ],
      "stateMutability": "nonpayable",
      "type": "constructor"
    },
    {
      "anonymous": false,
      "inputs": [
        {
          "indexed": true,
          "internalType": "address",
          "name": "owner",
          "type": "address"
        },
        {
          "indexed": true,
          "internalType": "address",
          "name": "approved",
          "type": "address"
        },
        {
          "indexed": true,
          "internalType": "uint256",
          "name": "tokenId",
          "type": "uint256"
        }
      ],
      "name": "Approval",
      "type": "event"
    },
    {
      "anonymous": false,
      "inputs": [
        {
          "indexed": true,
          "internalType": "address",
          "name": "owner",
          "type": "address"
        },
        {
          "indexed": true,
          "internalType": "address",
          "name": "operator",
          "type": "address"
        },
        {
          "indexed": false,
          "internalType": "bool",
          "name": "approved",
          "type": "bool"
        }
      ],
      "name": "ApprovalForAll",
      "type": "event"
    },
    {
      "anonymous": false,
      "inputs": [
        {
          "indexed": true,
          "internalType": "address",
          "name": "from",
          "type": "address"
        },
        {
          "indexed": true,
          "internalType": "address",
          "name": "to",
          "type": "address"
        },
        {
          "indexed": true,
          "internalType": "uint256",
          "name": "tokenId",
          "type": "uint256"
        }
      ],
      "name": "Transfer",
      "type": "event"
    },
    {
      "inputs": [
        {
          "internalType": "address",
          "name": "to",
          "type": "address"
        },
        {
          "internalType": "uint256",
          "name": "tokenId",
          "type": "uint256"
        }
      ],
      "name": "approve",
      "outputs": [],
      "stateMutability": "nonpayable",
      "type": "function"
    },
    {
      "inputs": [
        {
          "internalType": "address",
          "name": "owner",
          "type": "address"
        }
      ],
      "name": "balanceOf",
      "outputs": [
        {
          "internalType": "uint256",
          "name": "",
          "type": "uint256"
        }
      ],
      "stateMutability": "view",
      "type": "function"
    },
    {
      "inputs": [
        {
          "internalType": "string",
          "name": "a",
          "type": "string"
        },
        {
          "internalType": "string",
          "name": "b",
          "type": "string"
        }
      ],
      "name": "compareStrings",
      "outputs": [
        {
          "internalType": "bool",
          "name": "",
          "type": "bool"
        }
      ],
      "stateMutability": "pure",
      "type": "function"
    },
    {
      "inputs": [
        {
          "internalType": "uint256",
          "name": "tokenId",
          "type": "uint256"
        }
      ],
      "name": "getApproved",
      "outputs": [
        {
          "internalType": "address",
          "name": "",
          "type": "address"
        }
      ],
      "stateMutability": "view",
      "type": "function"
    },
    {
      "inputs": [
        {
          "internalType": "address",
          "name": "owner",
          "type": "address"
        },
        {
          "internalType": "address",
          "name": "operator",
          "type": "address"
        }
      ],
      "name": "isApprovedForAll",
      "outputs": [
        {
          "internalType": "bool",
          "name": "",
          "type": "bool"
        }
      ],
      "stateMutability": "view",
      "type": "function"
    },
    {
      "inputs": [],
      "name": "lastMinted",
      "outputs": [
        {
          "internalType": "string",
          "name": "",
          "type": "string"
        }
      ],
      "stateMutability": "view",
      "type": "function"
    },
    {
      "inputs": [],
      "name": "name",
      "outputs": [
        {
          "internalType": "string",
          "name": "",
          "type": "string"
        }
      ],
      "stateMutability": "view",
      "type": "function"
    },
    {
      "inputs": [],
      "name": "owner",
      "outputs": [
        {
          "internalType": "address",
          "name": "",
          "type": "address"
        }
      ],
      "stateMutability": "view",
      "type": "function"
    },
    {
      "inputs": [
        {
          "internalType": "uint256",
          "name": "tokenId",
          "type": "uint256"
        }
      ],
      "name": "ownerOf",
      "outputs": [
        {
          "internalType": "address",
          "name": "",
          "type": "address"
        }
      ],
      "stateMutability": "view",
      "type": "function"
    },
    {
      "inputs": [
        {
          "internalType": "address",
          "name": "to",
          "type": "address"
        },
        {
          "internalType": "string",
          "name": "ipfsUri",
          "type": "string"
        }
      ],
      "name": "safeMint",
      "outputs": [],
      "stateMutability": "nonpayable",
      "type": "function"
    },
    {
      "inputs": [
        {
          "internalType": "address",
          "name": "from",
          "type": "address"
        },
        {
          "internalType": "address",
          "name": "to",
          "type": "address"
        },
        {
          "internalType": "uint256",
          "name": "tokenId",
          "type": "uint256"
        }
      ],
      "name": "safeTransferFrom",
      "outputs": [],
      "stateMutability": "nonpayable",
      "type": "function"
    },
    {
      "inputs": [
        {
          "internalType": "address",
          "name": "from",
          "type": "address"
        },
        {
          "internalType": "address",
          "name": "to",
          "type": "address"
        },
        {
          "internalType": "uint256",
          "name": "tokenId",
          "type": "uint256"
        },
        {
          "internalType": "bytes",
          "name": "data",
          "type": "bytes"
        }
      ],
      "name": "safeTransferFrom",
      "outputs": [],
      "stateMutability": "nonpayable",
      "type": "function"
    },
    {
      "inputs": [
        {
          "internalType": "address",
          "name": "operator",
          "type": "address"
        },
        {
          "internalType": "bool",
          "name": "approved",
          "type": "bool"
        }
      ],
      "name": "setApprovalForAll",
      "outputs": [],
      "stateMutability": "nonpayable",
      "type": "function"
    },
    {
      "inputs": [
        {
          "internalType": "bytes4",
          "name": "interfaceId",
          "type": "bytes4"
        }
      ],
      "name": "supportsInterface",
      "outputs": [
        {
          "internalType": "bool",
          "name": "",
          "type": "bool"
        }
      ],
      "stateMutability": "view",
      "type": "function"
    },
    {
      "inputs": [],
      "name": "symbol",
      "outputs": [
        {
          "internalType": "string",
          "name": "",
          "type": "string"
        }
      ],
      "stateMutability": "view",
      "type": "function"
    },
    {
      "inputs": [],
      "name": "tokenIdCounter",
      "outputs": [
        {
          "internalType": "uint256",
          "name": "_value",
          "type": "uint256"
        }
      ],
      "stateMutability": "view",
      "type": "function"
    },
    {
      "inputs": [
        {
          "internalType": "uint256",
          "name": "tokenId",
          "type": "uint256"
        }
      ],
      "name": "tokenURI",
      "outputs": [
        {
          "internalType": "string",
          "name": "",
          "type": "string"
        }
      ],
      "stateMutability": "view",
      "type": "function"
    },
    {
      "inputs": [
        {
          "internalType": "address",
          "name": "from",
          "type": "address"
        },
        {
          "internalType": "address",
          "name": "to",
          "type": "address"
        },
        {
          "internalType": "uint256",
          "name": "tokenId",
          "type": "uint256"
        }
      ],
      "name": "transferFrom",
      "outputs": [],
      "stateMutability": "nonpayable",
      "type": "function"
    },
    {
      "inputs": [
        {
          "internalType": "address",
          "name": "",
          "type": "address"
        }
      ],
      "name": "whiteList",
      "outputs": [
        {
          "internalType": "bool",
          "name": "",
          "type": "bool"
        }
      ],
      "stateMutability": "view",
      "type": "function"
    }
  ],
  "bytecode": "0x60806040523480156200001157600080fd5b5060405162002f9f38038062002f9f8339818101604052810190620000379190620002c2565b818181600090805190602001906200005192919062000075565b5080600190805190602001906200006a92919062000075565b5050505050620003ac565b828054620000839062000376565b90600052602060002090601f016020900481019282620000a75760008555620000f3565b82601f10620000c257805160ff1916838001178555620000f3565b82800160010185558215620000f3579182015b82811115620000f2578251825591602001919060010190620000d5565b5b50905062000102919062000106565b5090565b5b808211156200012157600081600090555060010162000107565b5090565b6000604051905090565b600080fd5b600080fd5b600080fd5b600080fd5b6000601f19601f8301169050919050565b7f4e487b7100000000000000000000000000000000000000000000000000000000600052604160045260246000fd5b6200018e8262000143565b810181811067ffffffffffffffff82111715620001b057620001af62000154565b5b80604052505050565b6000620001c562000125565b9050620001d3828262000183565b919050565b600067ffffffffffffffff821115620001f657620001f562000154565b5b620002018262000143565b9050602081019050919050565b60005b838110156200022e57808201518184015260208101905062000211565b838111156200023e576000848401525b50505050565b60006200025b6200025584620001d8565b620001b9565b9050828152602081018484840111156200027a57620002796200013e565b5b620002878482856200020e565b509392505050565b600082601f830112620002a757620002a662000139565b5b8151620002b984826020860162000244565b91505092915050565b60008060408385031215620002dc57620002db6200012f565b5b600083015167ffffffffffffffff811115620002fd57620002fc62000134565b5b6200030b858286016200028f565b925050602083015167ffffffffffffffff8111156200032f576200032e62000134565b5b6200033d858286016200028f565b9150509250929050565b7f4e487b7100000000000000000000000000000000000000000000000000000000600052602260045260246000fd5b600060028204905060018216806200038f57607f821691505b60208210811415620003a657620003a562000347565b5b50919050565b612be380620003bc6000396000f3fe608060405234801561001057600080fd5b50600436106101215760003560e01c80638da5cb5b116100ad578063bbc19ab011610071578063bbc19ab01461031a578063bed34bba14610338578063c87b56dd14610368578063d204c45e14610398578063e985e9c5146103b457610121565b80638da5cb5b1461028857806395d89b41146102a657806398bdf6f5146102c4578063a22cb465146102e2578063b88d4fde146102fe57610121565b806323b872dd116100f457806323b872dd146101c0578063372c12b1146101dc57806342842e0e1461020c5780636352211e1461022857806370a082311461025857610121565b806301ffc9a71461012657806306fdde0314610156578063081812fc14610174578063095ea7b3146101a4575b600080fd5b610140600480360381019061013b9190611c54565b6103e4565b60405161014d9190611c9c565b60405180910390f35b61015e6104c6565b60405161016b9190611d50565b60405180910390f35b61018e60048036038101906101899190611da8565b610558565b60405161019b9190611e16565b60405180910390f35b6101be60048036038101906101b99190611e5d565b61059e565b005b6101da60048036038101906101d59190611e9d565b6106b6565b005b6101f660048036038101906101f19190611ef0565b610716565b6040516102039190611c9c565b60405180910390f35b61022660048036038101906102219190611e9d565b610736565b005b610242600480360381019061023d9190611da8565b610756565b60405161024f9190611e16565b60405180910390f35b610272600480360381019061026d9190611ef0565b6107dd565b60405161027f9190611f2c565b60405180910390f35b610290610895565b60405161029d9190611e16565b60405180910390f35b6102ae6108bb565b6040516102bb9190611d50565b60405180910390f35b6102cc61094d565b6040516102d99190611f2c565b60405180910390f35b6102fc60048036038101906102f79190611f73565b610959565b005b610318600480360381019061031391906120e8565b61096f565b005b6103226109d1565b60405161032f9190611d50565b60405180910390f35b610352600480360381019061034d919061220c565b610a17565b60405161035f9190611c9c565b60405180910390f35b610382600480360381019061037d9190611da8565b610a70565b60405161038f9190611d50565b60405180910390f35b6103b260048036038101906103ad9190612284565b610a82565b005b6103ce60048036038101906103c991906122e0565b610ab3565b6040516103db9190611c9c565b60405180910390f35b60007f80ac58cd000000000000000000000000000000000000000000000000000000007bffffffffffffffffffffffffffffffffffffffffffffffffffffffff1916827bffffffffffffffffffffffffffffffffffffffffffffffffffffffff191614806104af57507f5b5e139f000000000000000000000000000000000000000000000000000000007bffffffffffffffffffffffffffffffffffffffffffffffffffffffff1916827bffffffffffffffffffffffffffffffffffffffffffffffffffffffff1916145b806104bf57506104be82610b47565b5b9050919050565b6060600080546104d59061234f565b80601f01602080910402602001604051908101604052809291908181526020018280546105019061234f565b801561054e5780601f106105235761010080835404028352916020019161054e565b820191906000526020600020905b81548152906001019060200180831161053157829003601f168201915b5050505050905090565b600061056382610bb1565b6004600083815260200190815260200160002060009054906101000a900473ffffffffffffffffffffffffffffffffffffffff169050919050565b60006105a982610756565b90508073ffffffffffffffffffffffffffffffffffffffff168373ffffffffffffffffffffffffffffffffffffffff16141561061a576040517f08c379a0000000000000000000000000000000000000000000000000000000008152600401610611906123f3565b60405180910390fd5b8073ffffffffffffffffffffffffffffffffffffffff16610639610bfc565b73ffffffffffffffffffffffffffffffffffffffff161480610668575061066781610662610bfc565b610ab3565b5b6106a7576040517f08c379a000000000000000000000000000000000000000000000000000000000815260040161069e90612485565b60405180910390fd5b6106b18383610c04565b505050565b6106c76106c1610bfc565b82610cbd565b610706576040517f08c379a00000000000000000000000000000000000000000000000000000000081526004016106fd90612517565b60405180910390fd5b610711838383610d52565b505050565b60096020528060005260406000206000915054906101000a900460ff1681565b6107518383836040518060200160405280600081525061096f565b505050565b6000806107628361104c565b9050600073ffffffffffffffffffffffffffffffffffffffff168173ffffffffffffffffffffffffffffffffffffffff1614156107d4576040517f08c379a00000000000000000000000000000000000000000000000000000000081526004016107cb90612583565b60405180910390fd5b80915050919050565b60008073ffffffffffffffffffffffffffffffffffffffff168273ffffffffffffffffffffffffffffffffffffffff16141561084e576040517f08c379a000000000000000000000000000000000000000000000000000000000815260040161084590612615565b60405180910390fd5b600360008373ffffffffffffffffffffffffffffffffffffffff1673ffffffffffffffffffffffffffffffffffffffff168152602001908152602001600020549050919050565b600860009054906101000a900473ffffffffffffffffffffffffffffffffffffffff1681565b6060600180546108ca9061234f565b80601f01602080910402602001604051908101604052809291908181526020018280546108f69061234f565b80156109435780601f1061091857610100808354040283529160200191610943565b820191906000526020600020905b81548152906001019060200180831161092657829003601f168201915b5050505050905090565b60078060000154905081565b61096b610964610bfc565b8383611089565b5050565b61098061097a610bfc565b83610cbd565b6109bf576040517f08c379a00000000000000000000000000000000000000000000000000000000081526004016109b690612517565b60405180910390fd5b6109cb848484846111f6565b50505050565b606060006109df6007611252565b90506000811115610a07576109ff6001826109fa9190612664565b610a70565b915050610a14565b610a1081610a70565b9150505b90565b600081604051602001610a2a91906126d4565b6040516020818303038152906040528051906020012083604051602001610a5191906126d4565b6040516020818303038152906040528051906020012014905092915050565b6060610a7b82611260565b9050919050565b6000610a8e6007611252565b9050610a9a6007611373565b610aa48382611389565b610aae81836113a7565b505050565b6000600560008473ffffffffffffffffffffffffffffffffffffffff1673ffffffffffffffffffffffffffffffffffffffff16815260200190815260200160002060008373ffffffffffffffffffffffffffffffffffffffff1673ffffffffffffffffffffffffffffffffffffffff16815260200190815260200160002060009054906101000a900460ff16905092915050565b60007f01ffc9a7000000000000000000000000000000000000000000000000000000007bffffffffffffffffffffffffffffffffffffffffffffffffffffffff1916827bffffffffffffffffffffffffffffffffffffffffffffffffffffffff1916149050919050565b610bba8161141b565b610bf9576040517f08c379a0000000000000000000000000000000000000000000000000000000008152600401610bf090612583565b60405180910390fd5b50565b600033905090565b816004600083815260200190815260200160002060006101000a81548173ffffffffffffffffffffffffffffffffffffffff021916908373ffffffffffffffffffffffffffffffffffffffff160217905550808273ffffffffffffffffffffffffffffffffffffffff16610c7783610756565b73ffffffffffffffffffffffffffffffffffffffff167f8c5be1e5ebec7d5bd14f71427d1e84f3dd0314c0f7b2291e5b200ac8c7c3b92560405160405180910390a45050565b600080610cc983610756565b90508073ffffffffffffffffffffffffffffffffffffffff168473ffffffffffffffffffffffffffffffffffffffff161480610d0b5750610d0a8185610ab3565b5b80610d4957508373ffffffffffffffffffffffffffffffffffffffff16610d3184610558565b73ffffffffffffffffffffffffffffffffffffffff16145b91505092915050565b8273ffffffffffffffffffffffffffffffffffffffff16610d7282610756565b73ffffffffffffffffffffffffffffffffffffffff1614610dc8576040517f08c379a0000000000000000000000000000000000000000000000000000000008152600401610dbf9061275d565b60405180910390fd5b600073ffffffffffffffffffffffffffffffffffffffff168273ffffffffffffffffffffffffffffffffffffffff161415610e38576040517f08c379a0000000000000000000000000000000000000000000000000000000008152600401610e2f906127ef565b60405180910390fd5b610e45838383600161145c565b8273ffffffffffffffffffffffffffffffffffffffff16610e6582610756565b73ffffffffffffffffffffffffffffffffffffffff1614610ebb576040517f08c379a0000000000000000000000000000000000000000000000000000000008152600401610eb29061275d565b60405180910390fd5b6004600082815260200190815260200160002060006101000a81549073ffffffffffffffffffffffffffffffffffffffff02191690556001600360008573ffffffffffffffffffffffffffffffffffffffff1673ffffffffffffffffffffffffffffffffffffffff168152602001908152602001600020600082825403925050819055506001600360008473ffffffffffffffffffffffffffffffffffffffff1673ffffffffffffffffffffffffffffffffffffffff16815260200190815260200160002060008282540192505081905550816002600083815260200190815260200160002060006101000a81548173ffffffffffffffffffffffffffffffffffffffff021916908373ffffffffffffffffffffffffffffffffffffffff160217905550808273ffffffffffffffffffffffffffffffffffffffff168473ffffffffffffffffffffffffffffffffffffffff167fddf252ad1be2c89b69c2b068fc378daa952ba7f163c4a11628f55a4df523b3ef60405160405180910390a46110478383836001611462565b505050565b60006002600083815260200190815260200160002060009054906101000a900473ffffffffffffffffffffffffffffffffffffffff169050919050565b8173ffffffffffffffffffffffffffffffffffffffff168373ffffffffffffffffffffffffffffffffffffffff1614156110f8576040517f08c379a00000000000000000000000000000000000000000000000000000000081526004016110ef9061285b565b60405180910390fd5b80600560008573ffffffffffffffffffffffffffffffffffffffff1673ffffffffffffffffffffffffffffffffffffffff16815260200190815260200160002060008473ffffffffffffffffffffffffffffffffffffffff1673ffffffffffffffffffffffffffffffffffffffff16815260200190815260200160002060006101000a81548160ff0219169083151502179055508173ffffffffffffffffffffffffffffffffffffffff168373ffffffffffffffffffffffffffffffffffffffff167f17307eab39ab6107e8899845ad3d59bd9653f200f220920489ca2b5937696c31836040516111e99190611c9c565b60405180910390a3505050565b611201848484610d52565b61120d84848484611468565b61124c576040517f08c379a0000000000000000000000000000000000000000000000000000000008152600401611243906128ed565b60405180910390fd5b50505050565b600081600001549050919050565b606061126b82610bb1565b600060066000848152602001908152602001600020805461128b9061234f565b80601f01602080910402602001604051908101604052809291908181526020018280546112b79061234f565b80156113045780601f106112d957610100808354040283529160200191611304565b820191906000526020600020905b8154815290600101906020018083116112e757829003601f168201915b5050505050905060006113156115ff565b905060008151141561132b57819250505061136e565b60008251111561136057808260405160200161134892919061290d565b6040516020818303038152906040529250505061136e565b61136984611616565b925050505b919050565b6001816000016000828254019250508190555050565b6113a382826040518060200160405280600081525061167e565b5050565b6113b08261141b565b6113ef576040517f08c379a00000000000000000000000000000000000000000000000000000000081526004016113e6906129a3565b60405180910390fd5b80600660008481526020019081526020016000209080519060200190611416929190611b45565b505050565b60008073ffffffffffffffffffffffffffffffffffffffff1661143d8361104c565b73ffffffffffffffffffffffffffffffffffffffff1614159050919050565b50505050565b50505050565b60006114898473ffffffffffffffffffffffffffffffffffffffff166116d9565b156115f2578373ffffffffffffffffffffffffffffffffffffffff1663150b7a026114b2610bfc565b8786866040518563ffffffff1660e01b81526004016114d49493929190612a18565b602060405180830381600087803b1580156114ee57600080fd5b505af192505050801561151f57506040513d601f19601f8201168201806040525081019061151c9190612a79565b60015b6115a2573d806000811461154f576040519150601f19603f3d011682016040523d82523d6000602084013e611554565b606091505b5060008151141561159a576040517f08c379a0000000000000000000000000000000000000000000000000000000008152600401611591906128ed565b60405180910390fd5b805181602001fd5b63150b7a0260e01b7bffffffffffffffffffffffffffffffffffffffffffffffffffffffff1916817bffffffffffffffffffffffffffffffffffffffffffffffffffffffff1916149150506115f7565b600190505b949350505050565b606060405180602001604052806000815250905090565b606061162182610bb1565b600061162b6115ff565b9050600081511161164b5760405180602001604052806000815250611676565b80611655846116fc565b60405160200161166692919061290d565b6040516020818303038152906040525b915050919050565b61168883836117d4565b6116956000848484611468565b6116d4576040517f08c379a00000000000000000000000000000000000000000000000000000000081526004016116cb906128ed565b60405180910390fd5b505050565b6000808273ffffffffffffffffffffffffffffffffffffffff163b119050919050565b60606000600161170b846119f2565b01905060008167ffffffffffffffff81111561172a57611729611fbd565b5b6040519080825280601f01601f19166020018201604052801561175c5781602001600182028036833780820191505090505b509050600082602001820190505b6001156117c9578080600190039150507f3031323334353637383961626364656600000000000000000000000000000000600a86061a8153600a85816117b3576117b2612aa6565b5b04945060008514156117c4576117c9565b61176a565b819350505050919050565b600073ffffffffffffffffffffffffffffffffffffffff168273ffffffffffffffffffffffffffffffffffffffff161415611844576040517f08c379a000000000000000000000000000000000000000000000000000000000815260040161183b90612b21565b60405180910390fd5b61184d8161141b565b1561188d576040517f08c379a000000000000000000000000000000000000000000000000000000000815260040161188490612b8d565b60405180910390fd5b61189b60008383600161145c565b6118a48161141b565b156118e4576040517f08c379a00000000000000000000000000000000000000000000000000000000081526004016118db90612b8d565b60405180910390fd5b6001600360008473ffffffffffffffffffffffffffffffffffffffff1673ffffffffffffffffffffffffffffffffffffffff16815260200190815260200160002060008282540192505081905550816002600083815260200190815260200160002060006101000a81548173ffffffffffffffffffffffffffffffffffffffff021916908373ffffffffffffffffffffffffffffffffffffffff160217905550808273ffffffffffffffffffffffffffffffffffffffff16600073ffffffffffffffffffffffffffffffffffffffff167fddf252ad1be2c89b69c2b068fc378daa952ba7f163c4a11628f55a4df523b3ef60405160405180910390a46119ee600083836001611462565b5050565b600080600090507a184f03e93ff9f4daa797ed6e38ed64bf6a1f0100000000000000008310611a50577a184f03e93ff9f4daa797ed6e38ed64bf6a1f0100000000000000008381611a4657611a45612aa6565b5b0492506040810190505b6d04ee2d6d415b85acef81000000008310611a8d576d04ee2d6d415b85acef81000000008381611a8357611a82612aa6565b5b0492506020810190505b662386f26fc100008310611abc57662386f26fc100008381611ab257611ab1612aa6565b5b0492506010810190505b6305f5e1008310611ae5576305f5e1008381611adb57611ada612aa6565b5b0492506008810190505b6127108310611b0a576127108381611b0057611aff612aa6565b5b0492506004810190505b60648310611b2d5760648381611b2357611b22612aa6565b5b0492506002810190505b600a8310611b3c576001810190505b80915050919050565b828054611b519061234f565b90600052602060002090601f016020900481019282611b735760008555611bba565b82601f10611b8c57805160ff1916838001178555611bba565b82800160010185558215611bba579182015b82811115611bb9578251825591602001919060010190611b9e565b5b509050611bc79190611bcb565b5090565b5b80821115611be4576000816000905550600101611bcc565b5090565b6000604051905090565b600080fd5b600080fd5b60007fffffffff0000000000000000000000000000000000000000000000000000000082169050919050565b611c3181611bfc565b8114611c3c57600080fd5b50565b600081359050611c4e81611c28565b92915050565b600060208284031215611c6a57611c69611bf2565b5b6000611c7884828501611c3f565b91505092915050565b60008115159050919050565b611c9681611c81565b82525050565b6000602082019050611cb16000830184611c8d565b92915050565b600081519050919050565b600082825260208201905092915050565b60005b83811015611cf1578082015181840152602081019050611cd6565b83811115611d00576000848401525b50505050565b6000601f19601f8301169050919050565b6000611d2282611cb7565b611d2c8185611cc2565b9350611d3c818560208601611cd3565b611d4581611d06565b840191505092915050565b60006020820190508181036000830152611d6a8184611d17565b905092915050565b6000819050919050565b611d8581611d72565b8114611d9057600080fd5b50565b600081359050611da281611d7c565b92915050565b600060208284031215611dbe57611dbd611bf2565b5b6000611dcc84828501611d93565b91505092915050565b600073ffffffffffffffffffffffffffffffffffffffff82169050919050565b6000611e0082611dd5565b9050919050565b611e1081611df5565b82525050565b6000602082019050611e2b6000830184611e07565b92915050565b611e3a81611df5565b8114611e4557600080fd5b50565b600081359050611e5781611e31565b92915050565b60008060408385031215611e7457611e73611bf2565b5b6000611e8285828601611e48565b9250506020611e9385828601611d93565b9150509250929050565b600080600060608486031215611eb657611eb5611bf2565b5b6000611ec486828701611e48565b9350506020611ed586828701611e48565b9250506040611ee686828701611d93565b9150509250925092565b600060208284031215611f0657611f05611bf2565b5b6000611f1484828501611e48565b91505092915050565b611f2681611d72565b82525050565b6000602082019050611f416000830184611f1d565b92915050565b611f5081611c81565b8114611f5b57600080fd5b50565b600081359050611f6d81611f47565b92915050565b60008060408385031215611f8a57611f89611bf2565b5b6000611f9885828601611e48565b9250506020611fa985828601611f5e565b9150509250929050565b600080fd5b600080fd5b7f4e487b7100000000000000000000000000000000000000000000000000000000600052604160045260246000fd5b611ff582611d06565b810181811067ffffffffffffffff8211171561201457612013611fbd565b5b80604052505050565b6000612027611be8565b90506120338282611fec565b919050565b600067ffffffffffffffff82111561205357612052611fbd565b5b61205c82611d06565b9050602081019050919050565b82818337600083830152505050565b600061208b61208684612038565b61201d565b9050828152602081018484840111156120a7576120a6611fb8565b5b6120b2848285612069565b509392505050565b600082601f8301126120cf576120ce611fb3565b5b81356120df848260208601612078565b91505092915050565b6000806000806080858703121561210257612101611bf2565b5b600061211087828801611e48565b945050602061212187828801611e48565b935050604061213287828801611d93565b925050606085013567ffffffffffffffff81111561215357612152611bf7565b5b61215f878288016120ba565b91505092959194509250565b600067ffffffffffffffff82111561218657612185611fbd565b5b61218f82611d06565b9050602081019050919050565b60006121af6121aa8461216b565b61201d565b9050828152602081018484840111156121cb576121ca611fb8565b5b6121d6848285612069565b509392505050565b600082601f8301126121f3576121f2611fb3565b5b813561220384826020860161219c565b91505092915050565b6000806040838503121561222357612222611bf2565b5b600083013567ffffffffffffffff81111561224157612240611bf7565b5b61224d858286016121de565b925050602083013567ffffffffffffffff81111561226e5761226d611bf7565b5b61227a858286016121de565b9150509250929050565b6000806040838503121561229b5761229a611bf2565b5b60006122a985828601611e48565b925050602083013567ffffffffffffffff8111156122ca576122c9611bf7565b5b6122d6858286016121de565b9150509250929050565b600080604083850312156122f7576122f6611bf2565b5b600061230585828601611e48565b925050602061231685828601611e48565b9150509250929050565b7f4e487b7100000000000000000000000000000000000000000000000000000000600052602260045260246000fd5b6000600282049050600182168061236757607f821691505b6020821081141561237b5761237a612320565b5b50919050565b7f4552433732313a20617070726f76616c20746f2063757272656e74206f776e6560008201527f7200000000000000000000000000000000000000000000000000000000000000602082015250565b60006123dd602183611cc2565b91506123e882612381565b604082019050919050565b6000602082019050818103600083015261240c816123d0565b9050919050565b7f4552433732313a20617070726f76652063616c6c6572206973206e6f7420746f60008201527f6b656e206f776e6572206f7220617070726f76656420666f7220616c6c000000602082015250565b600061246f603d83611cc2565b915061247a82612413565b604082019050919050565b6000602082019050818103600083015261249e81612462565b9050919050565b7f4552433732313a2063616c6c6572206973206e6f7420746f6b656e206f776e6560008201527f72206f7220617070726f76656400000000000000000000000000000000000000602082015250565b6000612501602d83611cc2565b915061250c826124a5565b604082019050919050565b60006020820190508181036000830152612530816124f4565b9050919050565b7f4552433732313a20696e76616c696420746f6b656e2049440000000000000000600082015250565b600061256d601883611cc2565b915061257882612537565b602082019050919050565b6000602082019050818103600083015261259c81612560565b9050919050565b7f4552433732313a2061646472657373207a65726f206973206e6f74206120766160008201527f6c6964206f776e65720000000000000000000000000000000000000000000000602082015250565b60006125ff602983611cc2565b915061260a826125a3565b604082019050919050565b6000602082019050818103600083015261262e816125f2565b9050919050565b7f4e487b7100000000000000000000000000000000000000000000000000000000600052601160045260246000fd5b600061266f82611d72565b915061267a83611d72565b92508282101561268d5761268c612635565b5b828203905092915050565b600081905092915050565b60006126ae82611cb7565b6126b88185612698565b93506126c8818560208601611cd3565b80840191505092915050565b60006126e082846126a3565b915081905092915050565b7f4552433732313a207472616e736665722066726f6d20696e636f72726563742060008201527f6f776e6572000000000000000000000000000000000000000000000000000000602082015250565b6000612747602583611cc2565b9150612752826126eb565b604082019050919050565b600060208201905081810360008301526127768161273a565b9050919050565b7f4552433732313a207472616e7366657220746f20746865207a65726f2061646460008201527f7265737300000000000000000000000000000000000000000000000000000000602082015250565b60006127d9602483611cc2565b91506127e48261277d565b604082019050919050565b60006020820190508181036000830152612808816127cc565b9050919050565b7f4552433732313a20617070726f766520746f2063616c6c657200000000000000600082015250565b6000612845601983611cc2565b91506128508261280f565b602082019050919050565b6000602082019050818103600083015261287481612838565b9050919050565b7f4552433732313a207472616e7366657220746f206e6f6e20455243373231526560008201527f63656976657220696d706c656d656e7465720000000000000000000000000000602082015250565b60006128d7603283611cc2565b91506128e28261287b565b604082019050919050565b60006020820190508181036000830152612906816128ca565b9050919050565b600061291982856126a3565b915061292582846126a3565b91508190509392505050565b7f45524337323155524953746f726167653a2055524920736574206f66206e6f6e60008201527f6578697374656e7420746f6b656e000000000000000000000000000000000000602082015250565b600061298d602e83611cc2565b915061299882612931565b604082019050919050565b600060208201905081810360008301526129bc81612980565b9050919050565b600081519050919050565b600082825260208201905092915050565b60006129ea826129c3565b6129f481856129ce565b9350612a04818560208601611cd3565b612a0d81611d06565b840191505092915050565b6000608082019050612a2d6000830187611e07565b612a3a6020830186611e07565b612a476040830185611f1d565b8181036060830152612a5981846129df565b905095945050505050565b600081519050612a7381611c28565b92915050565b600060208284031215612a8f57612a8e611bf2565b5b6000612a9d84828501612a64565b91505092915050565b7f4e487b7100000000000000000000000000000000000000000000000000000000600052601260045260246000fd5b7f4552433732313a206d696e7420746f20746865207a65726f2061646472657373600082015250565b6000612b0b602083611cc2565b9150612b1682612ad5565b602082019050919050565b60006020820190508181036000830152612b3a81612afe565b9050919050565b7f4552433732313a20746f6b656e20616c7265616479206d696e74656400000000600082015250565b6000612b77601c83611cc2565b9150612b8282612b41565b602082019050919050565b60006020820190508181036000830152612ba681612b6a565b905091905056fea264697066735822122070502387e3fbab23c549db7e47211c5803fe173ba70c5f65930118656d681ff764736f6c63430008090033",
  "linkReferences": {},
  "deployedLinkReferences": {}
}